:020000021000EC
:10C20000A035012069230200F30B03003D23020047
:10C210003D2302003D2302003D2302003D23020096
:10C22000000000000000000000000000C91C020027
:10C230003D23020000000000351C02003D230200E7
:10C240006D1D02006D1D02006D1D02006D1D0200BE
:10C250006D1D02006D1D02006D1D02006D1D0200AE
:10C260006D1D02006D1D02006D1D02006D1D02009E
:10C270006D1D02006D1D02006D1D02006D1D02008E
:10C280006D1D02006D1D02006D1D02006D1D02007E
:10C290006D1D02006D1D02006D1D02006D1D02006E
:10C2A0006D1D02006D1D02006D1D02006D1D02005E
:10C2B000491803006D1D02006D1D02006D1D020076
:10C2C0006D1D02006D1D02006D1D02006D1D02003E
:10C2D0006D1D02006D1D02006D1D02006D1D02002E
:10C2E0006D1D02006D1D02006D1D02006D1D02001E
:10C2F0006D1D02006D1D02006D1D02006D1D02000E
:10C300006D1D02006D1D02006D1D02006D1D0200FD
:10C310006D1D02006D1D02006D1D02006D1D0200ED
:10C320006D1D02006D1D02006D1D02006D1D0200DD
:10C330006D1D02006D1D02006D1D02006D1D0200CD
:04C340006D1D02006D
:04C34400FFFFFFFFF9
:10C3480081F0004102E000BF83F0004330B54FEABE
:10C3580041044FEA430594EA050F08BF90EA020F2B
:10C368001FBF54EA000C55EA020C7FEA645C7FEABE
:10C37800655C00F0E2804FEA5454D4EB5555B8BFE1
:10C388006D420CDD2C4480EA020281EA030382EA52
:10C39800000083EA010180EA020281EA0303362DE4
:10C3A80088BF30BD11F0004F4FEA01314FF4801CB7
:10C3B8004CEA113102D0404261EB410113F0004FC9
:10C3C8004FEA03334CEA133302D0524263EB430380
:10C3D80094EA050F00F0A780A4F10104D5F1200E1E
:10C3E8000DDB02FA0EFC22FA05F2801841F1000179
:10C3F80003FA0EF2801843FA05F359410EE0A5F14D
:10C4080020050EF1200E012A03FA0EFC28BF4CF07D
:10C41800020C43FA05F3C01851EBE37101F0004533
:10C4280007D54FF0000EDCF1000C7EEB00006EEB40
:10C438000101B1F5801F1BD3B1F5001F0CD34908CA
:10C448005FEA30004FEA3C0C04F101044FEA445221
:10C4580012F5800F80F09A80BCF1004F08BF5FEAA8
:10C46800500C50F1000041EB045141EA050130BD88
:10C478005FEA4C0C404141EB0101013C28BFB1F59A
:10C48800801FE9D291F0000F04BF01460020B1FAE5
:10C4980081F308BF2033A3F10B03B3F120020CDAB8
:10C4A8000C3208DD02F1140CC2F10C0201FA0CF096
:10C4B80021FA02F10CE002F11402D8BFC2F1200CFB
:10C4C80001FA02F120FA0CFCDCBF41EA0C019040B1
:10C4D800E41AA2BF01EB0451294330BD6FEA0404FA
:10C4E8001F3C1CDA0C340EDC04F11404C4F12002E5
:10C4F80020FA04F001FA02F340EA030021FA04F3F7
:10C5080045EA030130BDC4F10C04C4F1200220FA4D
:10C5180002F001FA04F340EA0300294630BD21FA8B
:10C5280004F0294630BD94F0000F83F4801306BF51
:10C5380081F480110134013D4EE77FEA645C18BF45
:10C548007FEA655C29D094EA050F08BF90EA020FDC
:10C5580005D054EA000C04BF1946104630BD91EAD4
:10C56800030F1EBF0021002030BD5FEA545C05D1D7
:10C578004000494128BF41F0004130BD14F5800416
:10C588003CBF01F5801130BD01F0004545F0FE418A
:10C5980041F470014FF0000030BD7FEA645C1ABFBF
:10C5A800194610467FEA655C1CBF0B46024650EAF6
:10C5B800013406BF52EA033591EA030F41F4002122
:10C5C80030BD00BF90F0000F04BF0021704730B5A8
:10C5D8004FF4806404F132044FF000054FF000017D
:10C5E80050E700BF90F0000F04BF0021704730B53E
:10C5F8004FF4806404F1320410F0004548BF404213
:10C608004FF000013EE700BF42004FEAE2014FEA67
:10C6180031014FEA02701FBF12F07F4393F07F4F42
:10C6280081F06051704732F07F4208BF704793F045
:10C638007F4F04BF41F40021704730B54FF4607458
:10C6480001F0004521F000411CE700BF50EA01025B
:10C6580008BF704730B54FF000050AE050EA010204
:10C6680008BF704730B511F0004502D5404261EB74
:10C6780041014FF4806404F132045FEA915C3FF4B5
:10C68800D8AE4FF003025FEADC0C18BF03325FEA52
:10C69800DC0C18BF033202EBDC02C2F1200300FA03
:10C6A80003FC20FA02F001FA03FE40EA0E0021FA28
:10C6B80002F11444BDE600BF70B54FF0FF0C4CF416
:10C6C800E06C1CEA11541DBF1CEA135594EA0C0FC8
:10C6D80095EA0C0F00F0DEF82C4481EA030621EA03
:10C6E8004C5123EA4C5350EA013518BF52EA03353E
:10C6F80041F4801143F4801338D0A0FB02CE4FF0F0
:10C708000005E1FB02E506F00042E0FB03E54FF01F
:10C718000006E1FB03569CF0000F18BF4EF0010E17
:10C72800A4F1FF04B6F5007F64F5407404D25FEA13
:10C738004E0E6D4146EB060642EAC62141EA5551C6
:10C748004FEAC52040EA5E504FEACE2EB4F1FD0C08
:10C7580088BFBCF5E06F1ED8BEF1004F08BF5FEA86
:10C76800500E50F1000041EB045170BD06F0004638
:10C7780046EA010140EA020081EA0301B4EB5C04E5
:10C78800C2BFD4EB0C0541EA045170BD41F48011DD
:10C798004FF0000E013C00F3AB8014F1360FDEBF02
:10C7A800002001F0004170BDC4F10004203C35DADE
:10C7B8000C341BDC04F11404C4F1200500FA05F361
:10C7C80020FA04F001FA05F240EA020001F0004202
:10C7D80021F0004110EBD37021FA04F642EB060178
:10C7E8005EEA430E08BF20EAD37070BDC4F10C04A2
:10C7F800C4F1200500FA04F320FA05F001FA04F266
:10C8080040EA020001F0004110EBD37041F1000151
:10C818005EEA430E08BF20EAD37070BDC4F120055C
:10C8280000FA05F24EEA020E20FA04F301FA05F2C4
:10C8380043EA020321FA04F001F0004121FA04F26C
:10C8480020EA020000EBD3705EEA430E08BF20EA3C
:10C85800D37070BD94F0000F0FD101F00046400076
:10C8680041EB010111F4801F08BF013CF7D041EAF8
:10C87800060195F0000F18BF704703F000465200FC
:10C8880043EB030313F4801F08BF013DF7D043EACD
:10C898000603704794EA0C0F0CEA135518BF95EA83
:10C8A8000C0F0CD050EA410618BF52EA4306D1D10A
:10C8B80081EA030101F000414FF0000070BD50EA29
:10C8C800410606BF1046194652EA430619D094EAB3
:10C8D8000C0F02D150EA013613D195EA0C0F05D19D
:10C8E80052EA03361CBF104619460AD181EA0301F1
:10C8F80001F0004141F0FE4141F470014FF00000A9
:10C9080070BD41F0FE4141F4780170BD70B54FF043
:10C91800FF0C4CF4E06C1CEA11541DBF1CEA1355C3
:10C9280094EA0C0F95EA0C0F00F0A7F8A4EB0504A5
:10C9380081EA030E52EA03354FEA013100F088809C
:10C948004FEA03334FF0805545EA131343EA126365
:10C958004FEA022245EA111545EA10654FEA00261A
:10C968000EF000419D4208BF964244F1FD0404F5D3
:10C97800407402D25B084FEA3202B61A65EB03052F
:10C988005B084FEA32024FF480104FF4002CB6EBEC
:10C99800020E75EB030E22BFB61A754640EA0C006C
:10C9A8005B084FEA3202B6EB020E75EB030E22BFAC
:10C9B800B61A754640EA5C005B084FEA3202B6EBED
:10C9C800020E75EB030E22BFB61A754640EA9C00AC
:10C9D8005B084FEA3202B6EB020E75EB030E22BF7C
:10C9E800B61A754640EADC0055EA060E18D04FEA3A
:10C9F800051545EA16754FEA06164FEAC30343EADA
:10CA080052734FEAC2025FEA1C1CC0D111F4801FA6
:10CA18000BD141EA00014FF000004FF0004CB6E79F
:10CA280011F4801F04BF01430020B4F1FD0C88BF3E
:10CA3800BCF5E06F3FF6AFAEB5EB030C04BFB6EB49
:10CA4800020C5FEA500C50F1000041EB045170BD3C
:10CA58000EF0004E4EEA113114EB5C04C2BFD4EB69
:10CA68000C0541EA045170BD41F480114FF0000EED
:10CA7800013C90E645EA060E8DE60CEA135594EA69
:10CA88000C0F08BF95EA0C0F3FF43BAF94EA0C0F6C
:10CA98000AD150EA01347FF434AF95EA0C0F7FF4E1
:10CAA80025AF104619462CE795EA0C0F06D152EA35
:10CAB80003353FF4FDAE1046194622E750EA410619
:10CAC80018BF52EA43067FF4C5AE50EA41047FF42A
:10CAD8000DAF52EA43057FF4EBAE12E74FF0FF3C8F
:10CAE80006E000BF4FF0010C02E000BF4FF0010C60
:10CAF8004DF804CD4FEA410C7FEA6C5C4FEA430CD9
:10CB080018BF7FEA6C5C1BD001B050EA410C0CBF27
:10CB180052EA430C91EA030F02BF90EA020F002089
:10CB2800704710F1000F91EA030F58BF994208BFF0
:10CB380090422CBFD8176FEAE37040F001007047AD
:10CB48004FEA410C7FEA6C5C02D150EA013C07D104
:10CB58004FEA430C7FEA6C5CD6D152EA033CD3D04F
:10CB68005DF8040B704700BF8446104662468C4649
:10CB78001946634600E000BF01B5FFF7B7FF00287C
:10CB880048BF10F1000F01BD4DF808EDFFF7F4FFA5
:10CB98000CBF012000205DF808FB00BF4DF808ED30
:10CBA800FFF7EAFF34BF012000205DF808FB00BF53
:10CBB8004DF808EDFFF7E0FF94BF012000205DF875
:10CBC80008FB00BF4DF808EDFFF7CEFF94BF01202A
:10CBD80000205DF808FB00BF4DF808EDFFF7C4FF23
:10CBE80034BF012000205DF808FB00BF4FEA410C6C
:10CBF8007FEA6C5C02D150EA013C0AD14FEA430C4F
:10CC08007FEA6C5C02D152EA033C02D14FF000008B
:10CC180070474FF0010070474FEA410212F50012C9
:10CC280015D211D56FF47873B3EB625212D94FEA6B
:10CC3800C12343F0004343EA505311F0004F23FA55
:10CC480002F018BF404270474FF00000704750EAAA
:10CC5800013005D111F0004008BF6FF00040704767
:10CC68004FF00000704700BF4FEA4102B2F1E043C5
:10CC780024BFB3F5001CDCF1FE5C0DD901F0004CBB
:10CC88004FEAC0024CEA5070B2F1004F40EB83000B
:10CC980008BF20F00100704711F0804F21D113F137
:10CCA8003872BCBF01F00040704741F480114FEA70
:10CCB8005252C2F11802C2F1200C10FA0CF320FAF9
:10CCC80002F018BF40F001004FEAC1234FEAD32316
:10CCD80003FA0CFC40EA0C0023FA02F34FEA430380
:10CCE800CCE77FEA625307D150EA01331EBF4FF009
:10CCF800FE4040F44000704701F0004040F0FE4024
:10CD080040F40000704700BF7BB972B90029BEBF6C
:10CD180000204FF0004106E008BF00281CBF6FF05C
:10CD280000414FF0FF3000F057B8ADF1080C6DE945
:10CD380004CE002909DB002B1ADB00F04FF8DDF8E0
:10CD480004E0DDE9022304B07047404261EB410191
:10CD5800002B1BDB00F042F8DDF804E0DDE90223DC
:10CD680004B0404261EB4101524263EB4303704718
:10CD7800524263EB430300F031F8DDF804E0DDE9EB
:10CD8800022304B0404261EB41017047524263EB19
:10CD9800430300F023F8DDF804E0DDE9022304B0E2
:10CDA800524263EB4303704753B94AB9002908BF9D
:10CDB80000281CBF4FF0FF314FF0FF3000F00CB8D7
:10CDC800ADF1080C6DE904CE00F008F8DDF804E0D8
:10CDD800DDE9022304B07047704700BF2DE9F04F2A
:10CDE800099E88468E46154604461946002B40F093
:10CDF800C6804245B2FA82F746D94FB1C7F1200C36
:10CE080008FA07F3BD40BC4020FA0CFC4CEA030EBC
:10CE18004FEA15481FFA85FC220CBEFBF8F908FBFF
:10CE280019E309FB0CFA42EA03439A4528D9EB189F
:10CE380009F1FF3004D29A4502D9A9F102002B4426
:10CE4800A3EB0A03A4B2B3FBF8F208FB123302FB0C
:10CE58000CFC44EA0344A44514D92C1902F1FF330D
:10CE680003D2A44501D9931E2C44A4EB0C0443EA35
:10CE780000401EB1FC40002334607360BDE8F08FB1
:10CE88004846DDE71346F0E702B9FFDE8FBBA8EBA3
:10CE9800020301214FEA154EAAB2200CB3FBFEFC97
:10CEA8000EFB1C330CFB02F840EA0343984562D999
:10CEB800EB180CF1FF3004D2984502D9ACF102000E
:10CEC8002B44A3EB0803A4B2B3FBFEFC0EFB1C33FC
:10CED8000CFB02F244EA0344A2424ED92C190CF18D
:10CEE800FF3304D2A24202D9ACF102032C44A41AA3
:10CEF800BDE7C7F1200CBD4008FA07F3BC4028FA8B
:10CF08000CF94FEA154E20FA0CFC4CEA0302ABB2BE
:10CF1800B9FBFEFC110C0EFB1C900CFB03F841EA5C
:10CF28000040804523D928180CF1FF3104D28045F0
:10CF380002D9ACF102012844A0EB080092B2B0FB80
:10CF4800FEFC0EFB1C000CFB03F842EA004398456C
:10CF58000FD9EB180CF1FF3204D2984502D9ACF185
:10CF680002022B44A3EB080342EA014192E761461F
:10CF7800E2E76246F6E76046A3E76346B7E743455C
:10CF880005D90EB1C6E900080021084676E7B3FACC
:10CF980083FCBCF1000F10D1434501D382420AD86B
:10CFA800841A68EB030301209E46002E68D0C6E968
:10CFB800004E002162E76046F7E7CCF1200E03FA45
:10CFC8000CF302FA0CF500FA0CF722FA0EF428FA20
:10CFD8000EFB20FA0EF11C4308FA0CF34FEA144931
:10CFE8001943A3B20A0CBBFBF9F809FB18BB08FBF1
:10CFF80003FA42EA0B4292453ED9A21808F1FF30E3
:10D0080004D2924502D9A8F102002244A2EB0A02F6
:10D0180089B2B2FBF9F809FB182208FB03F341EACD
:10D02800024293422AD9A21808F1FF3104D293424E
:10D0380002D9A8F10201224441EA0040D21AA0FB19
:10D04800059842454B46414602D306D14F4504D286
:10D058000138B9EB050368EB04018EB1FC1A62EBE9
:10D06800010707FA0EFE24FA0CF327FA0CF74EEA2A
:10D078000303C6E900379CE74046C7E74146DBE7BC
:10D088003146FBE610F8012B11F8013B012A28BFB5
:10D098009A42F7D0D01A7047034613F8012B002A9A
:10D0A800FBD1181A013870472DE9F0412DED028B9C
:10D0B8000123A2B000218DF820302A23CDE90931BF
:10D0C80004238DF82C306A4B6A4F0C9340F2BB1343
:10D0D800ADF8343047F230531193674B674E1293D3
:10D0E8004FF400630790382214A8CDE90E7110960A
:10D0F80013939FED5D8B16F052FEDFF8B481002488
:10D108005F4B03225F4920460293CDE90044234642
:10D1180012F001FB0CF0A8F805465B480CF08CF8FF
:10D128005A490246284615F037F8B0EE480AF0EE9C
:10D13800680A01F01DF841460246284615F02CF809
:10D1480023468022314628460CF050F814A907A837
:10D158000E970BF0FFF90E9A0346002848D1CDE947
:10D1680003624B4A4749CDE901020090032212F0BD
:10D17800D2FA3822002114A816F011FE414628469A
:10D1880015F029F8434B93ED000B00F0F1FF4249ED
:10D198000246284615F000F8404B93ED000B00F0CE
:10D1A800E7FF3F490246284614F0F6FF8022002395
:10D1B800314628460CF01AF83A4B14A907A80E93E2
:10D1C8000BF0C8F90E9A034670BBCDE90362304AEA
:10D1D8002C49CDE901020090032212F09CFA28465E
:10D1E8000BF0E0FF00214FF4F0100FF0EFFD86E7A1
:10D1F8002D4BCDE90420CDE90143012223462046E9
:10D2080020490396009412F086FA169B002BB0D0A2
:10D218000393264B0322CDE90143204623461949AF
:10D22800009412F078FAA4E700241F4BCDE90420FB
:10D238000293012223462046CDE900441149039672
:10D2480012F069FA169B002BC9D00393174B0322DF
:10D25800CDE90143204623460A49009412F05BFABF
:10D26800BDE700BFAFF30080000000000000F03F02
:10D27800F9560300C8570300EBD900206BD90020EA
:10D28800E0570300AC4B030010D90020735903008A
:10D29800F957030048CC00205F58030050CC002009
:10D2A80063580300685803002158030052580300CC
:10D2B800F5570300000000002DE9F04F2DED028B1B
:10D2C80081468A4615461C4600269FEDA98B9BB0D1
:10D2D800287810B9304600F0CBBD6B1C2528029386
:10D2E80006D05146C8470028C0F2C28501362EE252
:10D2F800182200210CA816F052FD6B78252B59D066
:10D308006A1C174612F8013B2B2B00F08B8079D84A
:10D31800202B00F08C80232B00F08E809DF8383075
:10D3280003F04402442A03D16FF386138DF8383092
:10D338009DF838300A9743F080038DF838303B78F1
:10D348002A2B7ED19DF8393043F001038DF839300E
:10D358007B1C0A931A782E2A0CBF012100219DF804
:10D36800392061F341028DF839200BD15A1C0A92F9
:10D378005A782A2A7BD19DF83920023342F00402D8
:10D388008DF83920194611F8010B6C2800F0CF8070
:10D398007DD8682800F084806A2800F0D2804C2864
:10D3A80000F0D6809DF8392019466FF3C6028DF833
:10D3B800392080E0AA1C02928DF83B309DF8393064
:10D3C800DF0740F1788154F804BBBBF1000F07DA9E
:10D3D8009DF83820CBF1000B42F004028DF838207C
:10D3E800580740F1718154F8048BB8F1000F80F2AE
:10D3F80070819DF839306FF341038DF839304FF063
:10D40800FF3866E12D2B06D0302B87D19DF83830B8
:10D4180043F0400303E09DF8383043F004038DF8EF
:10D4280038306EE79DF8383043F00803F7E79DF889
:10D43800383043F01003F2E79DF8383043F020030A
:10D44800EDE70AA803F09EF80A9BBB4281D09DF83D
:10D4580038700F90C7F3400141EAD072520062F071
:10D468007F0207F07D010A438DF8382071E70AA88A
:10D4780003F088F89DF838301090C3F3400242EA70
:10D48800D07060F341038DF838300A9B7AE774282E
:10D498009DF8392059D07A2884D11346062241E0D4
:10D4A8005A78682A9DF839203AD1012161F3C602D9
:10D4B8008DF83920991C0B4613F8012B782A029312
:10D4C8008DF83B2000F2CD80572A55D8412A04D048
:10D4D800A2F14503022B00F2C48004219DF83A30E2
:10D4E80061F302038DF83A3002F0DF03A3F141083B
:10D4F8009DF83920D8F1000343EB080363F3C71202
:10D508008DF83920D3B2120600F1D38003F07802E7
:10D51800182A40F0A3806FF3C6038DF839308AE0EB
:10D528001346022262F3C6038DF83930C3E75A78EE
:10D538006C2A9DF8392001D10421B7E7134603224C
:10D54800F0E705229DF83930ECE713460722E9E7B2
:10D55800BDF8383023F4F04323F0020343F480434A
:10D5680043F00203ADF83830A5E700BFAFF3008001
:10D578000000000000000008A2F15803202B70D81A
:10D5880001A151F823F000BF43D601006BD601007A
:10D598006BD601006BD601006BD601006BD601007B
:10D5A8006BD601006BD601006BD60100E3D40100F5
:10D5B8006BD6010043D6010015D60100E3D4010063
:10D5C800E3D40100E3D401006BD6010015D60100B5
:10D5D8006BD601006BD601006BD601006BD601003B
:10D5E80079D6010043D601009DD601006BD6010013
:10D5F8006BD601009DD601006BD6010043D6010011
:10D608006BD601006BD6010043D6010001219DF8BD
:10D618003A3061F302038DF83A309DF8393003F05F
:10D628007803402B02BF9DF8381041F001018DF8B6
:10D638003810632A05D0002306E002219DF83A300D
:10D64800E7E7003B18BF01239DF83820C2F34001EB
:10D658000B4363F341028DF83820AFE613F0380F1F
:10D66800E9D09DF8383043F001038DF83830E2E70F
:10D6780003229DF83A3062F302038DF83A309DF8A0
:10D68800393003F07803A3F1400CDCF1000343EBDD
:10D698000C03D9E703229DF83A3062F302038DF8B0
:10D6A8003A309DF8393013F0780F14BF0123002366
:10D6B800CAE70123C8E79DF93820002AACBF4FF01C
:10D6C800FF3BDDF83CB08BE699077FF598AEDDF8B7
:10D6D80040800023CDE90F339DF83A309DF839108A
:10D6E80003F00702042A09D18A0707D49DF93920D3
:10D6F800002AB4BF4FF00D084FF0060803F00703E7
:10D70800012BC1F3C30134D1CB1E042B21D8DFE890
:10D7180003F003090920200054F8043BDA17CDE987
:10D728000C3206E0073424F00704F4E80223CDE9BC
:10D738000C239DF83870BB0759D02A4651464846F5
:10D74800029B12F08EFB0028C0F292830644029DD1
:10D75800BEE554F8043B01294FEAE372CDE90C32E7
:10D7680002D19DF93030D9E70229E2D1BDF9303034
:10D77800D4E7022B29D1CB1E042B13D8DFE803F002
:10D78800030A0A12120000222068231D0C900D9231
:10D798001C46CEE7E31D23F00703B3EC027B8DEDB7
:10D7A8000C7BF5E754F8043B01290C934FF0000378
:10D7B8000D9305D19DF830300C9300230D93B8E7F5
:10D7C8000229B6D1BDF83030F6E7042B09D1E31DA4
:10D7D80023F0070303F10804D3E90023CDE90C2360
:10D7E800A7E7032B04BF54F8043B0C93A1E79DF86B
:10D7F8003B20782AABD8572A00F28C80252A00F0E3
:10D80800D380242AA3D9412A03D0A2F14503022BAD
:10D818009DD8DDE90C13002BC0F2B581380700F163
:10D82800B48117F0100718BF2027C3F30A55C3F3B4
:10D838001303CDE90813002D40F0A98151EA030034
:10D8480014BF01200020DB0243EA5153C902462AD3
:10D8580045EA010E43EAE57C08BF66225EEA0C0C45
:10D86800CDE9081300F00182002840F0C981DDE904
:10D8780008014FF0000C4FF0050E634641F00041DF
:10D88800A5F2FE35099115F1020FC0F2C081BCF175
:10D89800000F01D0CDE90801DDE90801002D00F3F2
:10D8A800CB8109980899C5F1040C1C3500FA05F5D7
:10D8B800ACF1200E21FA0CF120FA0EFE294341EAC0
:10D8C8000E0120FA0CF0CDE9081002F0DF0147291B
:10D8D80040F0D281DD1C02DB984580F2C981023A12
:10D8E800B8F1000FD2B201DD08F1FF389DF8381009
:10D8F800880600F1C181B8F1000FD4BF00210121D1
:10D90800662A039140F0BA8113EB080140F1B8810F
:10D918000021B8E1A2F15803202B3FF618AF01A06F
:10D9280050F823F031DB010057D7010057D7010029
:10D9380057D7010057D7010057D7010057D7010023
:10D9480057D7010057D701001BD8010057D701004E
:10D95800DDD90100D1DA01001BD801001BD8010074
:10D968001BD8010057D70100D1DA010057D70100B1
:10D9780057D7010057D7010057D7010067DB0100CF
:10D9880031DB010035DB010057D7010057D7010013
:10D99800B7D9010057D7010031DB010057D7010083
:10D9A80057D7010031DB0100514610469AE4B8F11F
:10D9B800000F0C9A09DB41461046039216F0C0FB93
:10D9C8000027039A151862B9C1E610460392FFF7BB
:10D9D80063FBF5E700270C9B0DF14D058DF84C30E6
:10D9E80013AAAB1A07B101339DF83A00C10640F1FA
:10D9F800338202330F9940060B4444BF10995B18D9
:10DA0800BBF1000F23DDABEB030B9DF83830590752
:10DA1800C3F380081BD4580640F13482002F00F06D
:10DA28003482514638460392C8470028C0F2208203
:10DA380047464FF03008039A01365E445B46002B98
:10DA4800A6EB0B000BF1FF3B00F30A82064647B139
:10DA5800514638460392C8470028C0F20982039A03
:10DA680001369DF83A30590640F163829DF9393004
:10DA7800B61A002B80F218821746B846F31917F821
:10DA8800010B702840F004821E46109F1F44BB1BE8
:10DA9800002B00F347822B4642465146484612F077
:10DAA800E0F90028C0F2E481304406468344ABEB39
:10DAB8000603002B7FF74BAE51462020C8470028AD
:10DAC800C0F2D6810136F2E73D072BD417F01007D4
:10DAD80018BF2027DDE90C23002B05DA2D27524239
:10DAE80063EB4303CDE90C23DDE90C010DF165037C
:10DAF80000930EAA13AB02F05BFD0246B8F1000FCB
:10DB08000DF16505FFF65FAF9DF83810AB1A6FF39E
:10DB1800861198458DF838107FF655AFA8EB0303AA
:10DB28000F9350E72B27D5E70027DDE70C9800284F
:10DB380000F08E810DF1650300930EAA13AB00214E
:10DB480002F036FDBDF83A30024603F0EF0343F425
:10DB5800F04343F010030027ADF83A30CEE70C9BB2
:10DB680007293FF6F4ADDFE801F00C04060C0808BD
:10DB78000C0C1E70EBE51E80E9E5F217C3E90062A4
:10DB8800E5E51E60E3E52D274FE62B274DE640F23D
:10DB9800FF70854231D1B9480132D2B2125C0B43D1
:10DBA80002F003021BD1012A11D149238DF84C3010
:10DBB8004E238DF84D3046238DF84E309DF8383081
:10DBC8000DF14F056FF386138DF8383008E7692398
:10DBD8008DF84C306E238DF84D306623ECE7012A22
:10DBE80007BF4E2341226E2361220CBF8DF84C30B3
:10DBF8008DF84C308DF84D20DEE7002023E6013DFE
:10DC080049185B41002BFADACDE908132FE64008E2
:10DC180040EAC1704908B1F1333FAC4605F101054E
:10DC2800F5D20EFB01F5A0FB0E01013B29440CF1D6
:10DC380002054FF0010C26E6023041F10001CDE962
:10DC4800080108A8CDE9032312F0DCF8DDE9081083
:10DC5800049B039A013D013349184041002805F10E
:10DC6800FF35F9DACDE9081016E600231D4618E657
:10DC78006622A8EB030839E6002141E608F1010114
:10DC88001029A8BF102110208DED0A8B0D46079092
:10DC9800DDE90A01A5B9089D4019099D41EB050177
:10DCA800B1F1805F1BD2CDE90801662A40F0988067
:10DCB800002B23DC30210DF14D058DF84C102FE0A1
:10DCC800400840EAC1704908CDE90A010AA8CDE92F
:10DCD8000423013D12F096F8DDE90423D8E7400853
:10DCE80040EAC1704908CDE9080108A8CDE9042334
:10DCF80012F088F8059B049A0133D6E713AD07990B
:10DD080000290BDD07A908A8CDE9042312F092F831
:10DD1800059B049A013B05F8010BF0D10F930023F2
:10DD28009DF83810890602D4B8F1000F1DDD2E21A8
:10DD380005F8011B9BB1B8F1000F16DD59424145AA
:10DD4800A8BF414600290F91A8EB0108D4BF0021C4
:10DD580001219DF83A0061F345108DF83A00B8F1B9
:10DD6800000F02DD0799002955DC0399002962D1CB
:10DD7800CDF8408002F0DF01452920D12946002B4B
:10DD880001F8022BB6BF2D222B225B42632B6A704F
:10DD980009DD6420B3FBF0F200FB123302F1300C12
:10DDA800E91C85F802C00A20B3FBF0F20D4600FB1F
:10DDB800123302F1300C303305F802CB4B700F9B55
:10DDC800002B43DC109B002BD4BF002301239DF8BC
:10DDD8003A2063F3861200238DF83A202B70FFE572
:10DDE80007A908A8CDE9042312F024F8DDE90423E3
:10DDF8009DF8381030288DF84C0018BF03F1FF3318
:10DE0800880602D4B8F1000F12DD2E210DF14E055F
:10DE18008DF84D10A3E707A908A8CDE9042312F04F
:10DE280009F8DDE9042305F8010B08F1FF3896E746
:10DE38000DF14D0599E700211091284615F8011DAF
:10DE48003029FAD02E2918BF054693E70123BEE7EB
:10DE58000B4D07466A1FC4E5010748BF0133C9E5F2
:10DE6800514640460392C8470028039ABFF6E6ADDC
:10DE78001BB0BDEC028BBDE8F08F00BFA2A0030071
:10DE8800137B03004FF02008D7E54FF03008D4E5A6
:10DE98005146C8470028BFF6F0ADE9E7514603925E
:10DEA800C8470028039AE3DB1078374B1746C35C52
:10DEB80006EB02085B0702F10102EFD49DF83A3045
:10DEC8000F9E990607D4B044002EA8EB060206F16F
:10DED800FF360FDC904638782E2808D15146C847BF
:10DEE8000028C5DB002E08F1010809DC0137A8EB82
:10DEF80007060EE051463020C8470028E4DAB7E7A5
:10DF080051463020C847013EEAE75146C847002835
:10DF1800AEDBB8461C4AF31917F8010B125C52071E
:10DF2800F3D4B1E551463020C8470028A0DB0136BC
:10DF3800ADE5D80601D4190707D55146302003921C
:10DF4800C847002894DB039A01369DF83A30DB066F
:10DF580008D551469DF83B000392C847002887DB47
:10DF6800039A01360F9F3744BB1B002B01DC2B465D
:10DF780093E5514630200392C8470028FFF678AF52
:10DF8800039A0136F0E700BFA3A0030000000000D9
:10DF9800F0B52DED028B002504238BB00E46074605
:10DFA800CDE908550593002800F0BC80002900F051
:10DFB800B980062108A813F06FFE044678B15E4BBD
:10DFC8000390CDE9015301222B4628465B49009571
:10DFD80013F0B8FF20460BB0BDEC028BF0BD014634
:10DFE80008AA384613F03FFE044670B1544B03901C
:10DFF800CDE901532B460095012218464F4913F0ED
:10E00800A1FF08A813F073FEE4E7032105AB06AAF5
:10E0180008A813F04AFF044610B14A4B0390E7E7FB
:10E02800059B0AAA1344014603F8100C022206A80D
:10E0380010F00EF90121C7B204AA08A813F009FFCD
:10E04800044610B1404B0390D2E7049B042B1BD02D
:10E05800052B0CD03D4B0222CDE90103374903467D
:10E068003070009013F06EFF6FF07F04C9E709234A
:10E078000F2F337028D96FF01504354B0394029392
:10E088000023CDE90033B7E707230F2F3370F2D809
:10E098009FED308A304B33F81700D8B1FEF7A2FA5B
:10E0A80023A3D3E90023FEF707FBFEF7DDFD0421D8
:10E0B800706005AB06AA08A8059113F0F6FE0446A1
:10E0C80050B1264B0390DAE7254B9FED268A33F8AB
:10E0D8001700E2E72448EAE7059B0AAA1344014629
:10E0E80003F8100C022206A810F0B2F8C0B20F28EC
:10E0F8000DD91E4B0390CDE90143204623460094D9
:10E1080001220E4913F01EFF6FF0150479E7013064
:10E11800C0B207EE900AF8EEE77A67EE887AC6EDA5
:10E12800027A6EE76FF0150454E700BFAFF3008082
:10E138007B14AE47E17A24404B950300FC4B030067
:10E1480074950300A0950300CC950300EE95030099
:10E15800169603000AD7A33F8C5503003A9603008E
:10E16800AC5503000AD723400AD7A340659603009D
:10E17800174BD0B5186857EC106B13F0FEFF044628
:10E1880070B10823C0E90667C36039460EA3D3E916
:10E1980000233046FEF716FD20B16FF0004363619F
:10E1A8002046D0BD0022304639460A4BFEF700FD16
:10E1B80010B14FF00043F2E730463946FEF72CFD28
:10E1C8006061EDE7AFF300800000C0FFFFFFDF41B3
:10E1D800E8C500200000E0C12DE9F0472DED028BD5
:10E1E80004469FED478B484E84B04FF02003EFF371
:10E1F800118783F31288BFF36F8FD4F8C8508DB995
:10E20800022104F1E00015F0EBF9002835D10023D4
:10E218008DED008B3946029304F1D0023B480EF095
:10E2280055FEE2E7D4F8CC202B689542C4F8C830F4
:10E2380001D1C4F8CC30D4F8E03043F00203C4F87C
:10E24800E030EB6823F0040343F00103EB606B68F4
:10E2580087F31188BFF36F8F284698474FF0200344
:10E26800EFF3118883F31288BFF36F8FEB68990778
:10E2780023F001020BD4EA600EE004F1D805002275
:10E288000121284615F039FB0028F8D1BFE730688E
:10E2980023F00303EB6070B9D4F8E03023F00203F5
:10E2A800C4F8E03088F31188BFF36F8FD8059CD489
:10E2B8000EF004FD99E70027BA46D0F800904368AD
:10E2C80002469D420BD102688FB97368326083425F
:10E2D80000D1726040F808AB0EF090F93A46B9F1F7
:10E2E800000FD9D048461746D9F80090E7E7736879
:10E2F8003A60984208BF7760ECE700BFAFF3008050
:10E30800FFFFFFFFFFFFFFFFE4D800209E0701206B
:10E318002DE9F04F456A044610EE10AA2DED048B46
:10E3280093B057EC106BDDF88080BB4606910992DC
:10E338000C9375B910200FF011F80246606220B9ED
:10E34800A74BEA21A74811F08BF9C0E901550560F0
:10E35800C560636A196851B15A6801232046934021
:10E368004A608B6010F0BEFA636A00221A603B1E96
:10E37800ADBF0023012223F0004BC8F800309A4BB0
:10E38800B8BFC8F8002033EA0B031BD142F20F7361
:10E398000C9A1360CBF31303334300F08F85219B52
:10E3A80063B9924B22E0924B01930833219A136090
:10E3B800019813B0BDEC048BBDE8F08F8B4B019333
:10E3C8000333F3E70022002350465946FEF7DCFBEF
:10E3D80080464BEC19AB58B101230C9A1360219B72
:10E3E800002B00F0688583481860431E0193DFE71F
:10E3F800CBF30A5510AA11A920464BEC10AB10F02C
:10E40800F3FC08EE100A002D00F0828019EE903A15
:10E418005646A5F2FF35CDF83880C3F3130343F011
:10E428007F5747F440170022734B30463946FDF7B3
:10E438008BFF65A3D3E90023FEF73EF964A3D3E974
:10E448000023FDF783FF06460F462846FEF7CAF865
:10E4580061A3D3E90023FEF72FF902460B463046A5
:10E468003946FDF773FF06460F46FEF7D5FB002237
:10E478000090002330463946FEF790FB50B10098D3
:10E48800FEF7B0F832463B46FEF77EFB10B9009B1C
:10E49800013B0093009B162B59D8009A574B03EB6E
:10E4A800C20351EC190BD3E90023FEF777FB0028D0
:10E4B8004FD0009B013B009300230B93109B5D1BE7
:10E4C8006B1E059349BFC5F1010300230493002384
:10E4D80054BF04930593009B002B3CDB059B009ADB
:10E4E80013440A92059300230793069B092B00F215
:10E4F8008980052BC5BF043B002501250693069B93
:10E50800023B032B00F28980DFE803F02E3B395AE7
:10E51800DDE910531D4405F23243202BC6BFC3F179
:10E52800400305F21240C3F1200305F1FF35C5BFD2
:10E538000BFA03F326FA00F006FA03F01843FEF785
:10E5480041F801230646A1F1F8770E936BE7012302
:10E55800B3E70B90B2E7049B009A9B1A04935342CB
:10E56800079300230A93C0E700230893099B002B15
:10E5780056DC01231A46CDE9023309920CE0012347
:10E58800F3E70023099A0893009B1344029301338D
:10E59800012B0393B8BF01230022606A4260042262
:10E5A80002F1140641689E423ED9204610F05AF9FD
:10E5B800019000283CD1124B02464FF4D571C1E6B8
:10E5C8000123DFE7AFF3008061436F63A787D23F82
:10E5D800B3C8608B288AC63FFB799F501344D33F4A
:10E5E800EFA1030006A203000000F07FEBA10300E7
:10E5F800E2A10300DA9403000000F83F104D030085
:10E6080062A2030001250023089506934FF0FF330B
:10E618000022CDE902331223AFE701230893F5E77F
:10E62800099BCDE90233B7E7013152004160B7E7F2
:10E63800636A019A1A60039B0E2B00F29D80002DDD
:10E6480000F09A80009B002B32DD03F00F03B64ADE
:10E6580002EBC303D3E90089009BD8054FEA2317CF
:10E6680016D5B24B07F00F070325D3E9082351EC61
:10E67800190BFEF74BF982468B46AC4E57B942460A
:10E688004B4650465946FEF741F982468B4628E0EC
:10E698000225F2E7F90708D5404649460135D6E98B
:10E6A8000023FEF709F8804689467F100836E5E71B
:10E6B80000F09B80009B02259C4F5E429A4B06F01F
:10E6C8000F02361103EBC20351EC190BD3E90023F7
:10E6D800FDF7F2FF002382468B46002E7AD1002BED
:10E6E800D3D10B9B002B00F082800022904B504628
:10E6F8005946FEF753FA002879D0039B002B76D0B1
:10E70800029B002B36DD009B5046594600225F1EB7
:10E71800884BFDF7D1FF013582468B46029E28467D
:10E72800D046FDF75FFF52465B46D946FDF7C4FF6A
:10E738000022814BFDF70AFE8246A1F1507B002E94
:10E7480058D100227D4B40464946FDF7FDFD524613
:10E758005B4680468946FEF73FFA002840F09382E0
:10E7680052460BF1004340464946FEF717FA002887
:10E7780040F087825BEC19AB119B002BC0F24881FB
:10E78800009A0E2A00F34481674B03EBC203D3E9D6
:10E798000089099B002B80F2D580039B002B00F396
:10E7A800D18040F06D820022644B40464946FDF717
:10E7B80083FF52465B46FEF705FA039E374600285C
:10E7C80040F043823123019D05F8013B009B013352
:10E7D80000933EE2F20705D50135D7E90023FDF79E
:10E7E8006BFF01237610083777E7022579E7009F4A
:10E7F800039E94E701994C4B314403EBC6030D91FA
:10E80800089953E90223002943D000204C49FEF718
:10E818007DF852465B46FDF797FD019D82468B4683
:10E8280049464046FEF7F8F90646FDF7DBFE024684
:10E8380030360B4640464946FDF786FD52465B4654
:10E8480005F8016B80468946FEF7A8F9002863D1D0
:10E8580042464B4600203649FDF776FD52465B4658
:10E86800FEF79CF9002840F0B5800D9B9D4281D0B1
:10E878000022304B50465946FDF71EFF00228246C3
:10E888008B46404649462B4BFDF716FF8046894686
:10E89800C6E750465946FDF70FFF0D9B82468B464B
:10E8A800019D0F9349464046FEF7B6F90646FDF727
:10E8B80099FE02460B46404649463036FDF744FD70
:10E8C8000D9B05F8016B80469D4289464FF000027A
:10E8D80024D11B4B50465946FDF738FD02460B46DE
:10E8E80040464946FEF778F9002873D152465B4600
:10E8F80000201349FDF728FD02460B4640464946CD
:10E90800FEF74CF900283FF435AF0F9D6B1E0F93AF
:10E9180015F8013C302BF8D0009749E0054BFDF77E
:10E92800CBFE80468946BDE7104D0300E84C030046
:10E938000000F03F0000244000001C40000014408C
:10E948000000E03F56465F46019D42464B46304632
:10E958003946FDF7DBFFFEF75FF98246FDF742FE19
:10E9680042464B46FDF7A8FE024630460AF13006FD
:10E978000B463946FDF7E8FC05F8016B019E024697
:10E98800039F0B46AE1BB74235D1FDF7DFFC42466D
:10E998004B4606460F46FEF71FF9D0B942464B468E
:10E9A80030463946FEF7F0F810B11AF0010F10D1D1
:10E9B800204618EE101A0FF095FF002300982B70D0
:10E9C80001300C9B1860219B002B3FF4F1AC1D60BB
:10E9D800EEE4009F2B461D4613F8012D392A06D177
:10E9E800019A9A42F7D13022019901370A701A78B0
:10E9F80001321A7090E70022A44BFDF75DFE002259
:10EA0800002306460F46FEF7BFF800289DD0CFE743
:10EA1800089A002A00F0D580069A012A00F3B980E6
:10EA28000E9A002A00F0B18003F23343079E049D3A
:10EA3800049A012120461A440492059A1A44059220
:10EA48000FF0BAFF0746002D0CDD059B002B09DDF2
:10EA5800AB42049AA8BF2B46D21AED1A0492059A23
:10EA6800D31A0593079B1BB3089B002B00F0AD80BE
:10EA7800002E13DD39463246204610F05BF818EEBA
:10EA8800102A0146074620460FF0ACFF804618EED4
:10EA9800101A204608EE108A0FF024FF079B9A1BD5
:10EAA80006D018EE101A204610F044F808EE100AA6
:10EAB800012120460FF080FF0A9B0646002B40F3F9
:10EAC80086801A460146204610F034F8069B064612
:10EAD800012B7FDD4FF00008336906EB83031869CB
:10EAE80015F094FCC0F12000059B184410F01F009D
:10EAF80000F09180C0F12003042B40F38980C0F11D
:10EB08001C00049B054403440493059B034405939C
:10EB1800049B002B07DD18EE101A1A46204610F049
:10EB280063F808EE100A059B002B05DD31461A46EE
:10EB3800204610F059F806460B9B002B6DD0314645
:10EB480018EE100A15F0B1FC002866DA009B18EEE2
:10EB5800101A0A222046013B009300230FF0E4FE1E
:10EB6800089B08EE100A002B00F0AF8100233946FD
:10EB78000A2220460FF0D8FE029B0746002B00F31E
:10EB88008D80069B022B50DC88E0109BC3F1360376
:10EB98004CE7039B5E1E079BB342B7BF079B9E1BB8
:10EBA8000796F21ABFBF0A9B00269B180A93039B7D
:10EBB800002BB7BFDDE90323DDE903359D1A0023E8
:10EBC80036E7079E049D089F3DE7079A69E7069B7D
:10EBD800012B18DCBAF1000F15D1CBF3130393B94D
:10EBE8002BF000431B0D1B0583B1049B4FF001085C
:10EBF80001330493059B013305930A9B002B7FF493
:10EC08006BAF012070E74FF00008F6E79846F4E78D
:10EC18003FF47EAF18461C3073E7039B002B37DCAC
:10EC2800069B022B34DD039B0293029B6BB9314692
:10EC3800052220460FF078FE0146064618EE100A17
:10EC480015F033FC00283FF7BDAD099B019DDB4360
:10EC580000934FF00008314620460FF043FE002F86
:10EC68003FF4A6AEB8F1000F05D0B84503D0414631
:10EC780020460FF037FE394620460FF033FE97E660
:10EC880000263746E1E7009737469BE50000244019
:10EC9800089B002B00F0CA80039B0293002D05DD22
:10ECA80039462A4620460FF09FFF0746B8F1000F65
:10ECB8005BD0796820460FF0D5FD054628B9874B0B
:10ECC800024640F2EA21FFF73DBB3A6907F10C0121
:10ECD8000C300232920015F042F8012229462046F3
:10ECE8000FF082FF019BB846074603F10109DDE9F1
:10ECF8000123134405930AF001030493314618EEE7
:10ED0800100A15F06EFA4146029000F1300A18EE2A
:10ED1800100A09F1FF3B15F0C8FB3A46039031464B
:10ED280020460FF0D1FFC268054602BB014618EE27
:10ED3800100A15F0BAFB02462946204607920FF042
:10ED4800D1FD4D46DDE9063243EA0201049B0B433F
:10ED58000FD1BAF1390F2AD0039B002B02DD029B99
:10ED680003F1310A8BF800A075E73846BAE70122AB
:10ED7800E2E7039B002B04DB06990B4304990B4342
:10ED880022D1002AEEDD18EE101A012220460FF0DB
:10ED98002BFF314608EE100A15F087FB002803DC2C
:10EDA800E0D11AF0010FDDD0BAF1390FD7D13923EC
:10EDB8008BF800302B461D46013B15F8012C392AEB
:10EDC80070D001321A7046E7002A07DDBAF1390F10
:10EDD800EDD00AF101038BF800303CE7059B09F8F8
:10EDE80001AC994546D018EE101A00230A22204695
:10EDF8000FF09AFDB84508EE100A4FF000034FF0E7
:10EE08000A024146204606D10FF08EFD804607468D
:10EE180009F1010972E70FF087FD394680460023A2
:10EE28000A2220460FF080FD0746F1E7039B029374
:10EE3800019D314618EE100A15F0D3F9019B00F137
:10EE4800300A05F801ABEA1A029B934209DD18EE75
:10EE5800101A00230A2220460FF066FD08EE100A59
:10EE6800E7E7029B4FF00008002BCCBF1D460125A9
:10EE7800019B1D4418EE101A012220460FF0B4FE23
:10EE8800314608EE100A15F010FB002892DC02D17A
:10EE98001AF0010F8ED12B461D4613F8012D302A8A
:10EEA800FAD0D8E6019A9A4285D1009B01330093A3
:10EEB80031231370CFE60A4BFFF798BA219B002B3A
:10EEC8007FF471AA074BFFF791BA029B002BAFDCC6
:10EED800069B022B3FF7A9AEAAE700BF62A2030078
:10EEE800D9940300E2A103001FB50378ABB9047AF3
:10EEF80004F0FB04012C10D1094A1846CDE901326F
:10EF080000930322074910F006FC074B1C700748C2
:10EF180004B0BDE810400DF071BB04B010BD00BFD7
:10EF2800CC550300AC4B03006AD9002024CA00204A
:10EF380013B500212A200DF1070209F09FFA0446B3
:10EF480020B10146194810F094FC10E09DF80730F4
:10EF5800E3B11748FEF7A0F821460346144A2A20D1
:10EF680009F04CFA044628B9124810F082FC2046F1
:10EF780002B010BD104810F07CFC00212A2009F0D6
:10EF88005FFA014610B10D4810F073FC0C4810F000
:10EF980070FC40F23A5300212A20054A09F006FA8B
:10EFA80004460028E3D001460648CCE7E5550300AF
:10EFB800BE5A03000E5603002156030037560300BD
:10EFC80066560300805603007FB500232A220546B3
:10EFD800CDE90232042605224FF48D71009602AB6A
:10EFE80011F075FC044640B111F0AFFE01681348FA
:10EFF80010F03FFC204604B070BD01224FF48D7123
:10F008002846009603AB11F062FC044620B111F0CB
:10F018009CFE01680A48EBE72423022200934FF480
:10F028008D712846074B11F052FC04460028E1D0A8
:10F0380011F08BFE01680448DAE700BFA956030007
:10F04800D4560300F95603001E57030030B51E4B73
:10F0580085B01B7803F0FF05CBB91C4B032228466B
:10F06800CDE901531A492B46009510F054FB1520A1
:10F0780008F0CAF9044660B1164B0390CDE9015374
:10F0880001222B4628461249009510F044FB05B092
:10F0980030BD4FF4A02200230F480DF0D5FA50B12F
:10F0A8000E4B0122CDE9014320462346084900942E
:10F0B80010F031FBEBE74FF40040002105B0BDE84C
:10F0C80030400DF083BE00BF6AD9002044570300CA
:10F0D800AC4B03005E57030024CA0020805703008E
:10F0E8001FB5142008F090F9034668B10C4B039043
:10F0F8000293002301221846CDE90033094910F094
:10F108000AFB05B05DF804FB074A06491070074A78
:10F118000090CDE90102032210F0FDFAF1E700BFEB
:10F1280093570300AC4B03006AD90020B75703007C
:10F1380000B589B000220023CDE90623002305226B
:10F14800CDE90133CDE9032300934FF48052044BFA
:10F15800044905480DF014F809B05DF804FB00BF38
:10F16800FDF50100A007012090CA002050222DE9DA
:10F17800F04F00240125A9B000210DEB020014F086
:10F188000EFEAE4B03220393AD4B2046AD490293CE
:10F19800CDE900442346CDE9165510F0BCFAAA4B38
:10F1A800AA4F0393AA4B03222046CDE90143A54960
:10F1B8002346009410F0AFFA3A46A649A6480CF048
:10F1C800CBF8A84206460CD0A44B2A46CDE9014309
:10F1D8002346009418469B4910F09DFA29B0BDE8D3
:10F1E800F08F9F4B03222046CDE9014395492346E2
:10F1F8000397009410F08FFAFFF79AFE054600284F
:10F20800ECD1984B0322CDE901038E4903460090C7
:10F2180010F081FA08F0EAF8044630B1924B0095F4
:10F22800CDE901532B463246D4E79048904D07F07C
:10F238007FFD304607F094FD2A468E498E480CF033
:10F248008BF8012805D08D4B0094CDE90143234666
:10F25800E9E78B4B2046CDE9014303222346794950
:10F268000395009410F057FAFFF762FF854D864C1E
:10F27800864E95ED000B14F047FD00281EDD844DE9
:10F288000AACFFF7E3FE0FCD0FC40FCD0FC495E80E
:10F298000300002384E803006A4F08930AAD2E6830
:10F2A8000EBB7C4B012203937B4B3046CDE90163B7
:10F2B80064493346009610F02EFA8FE794ED000B60
:10F2C80014F022FD0028DADC002303221846CDE9D9
:10F2D80000335C49029610F01EFA00214FF4A0207A
:10F2E8000DF074FDC5E700246A4B95F8048095F885
:10F2F800059095F806A095F807B00393674B03228D
:10F30800394620460293CDE906AB2346CDE9048968
:10F31800CDE9004410F0FFF9042209A9012009965B
:10F3280013F032FA5E4B03223946CDE901430390CC
:10F3380023462046009410F0EEF92146554808ABC4
:10F3480014AA11F0DCF90835064698B1554BCDE9F9
:10F3580006B0CDE901432046234603223946CDE9CC
:10F36800049ACDF80C80009410F0D5F9089811F0A3
:10F37800C8F994E74BF60132089B9B695A80012132
:10F388004FF48172084601F0C1FC431C054623D1A5
:10F39800454B0122CDE901633046334629490096A1
:10F3A80010F0B9F9414B032202930023254918466E
:10F3B800CDE9003310F0AFF9089808B111F0A1F9C0
:10F3C800284611F0A4F912F0B4FD394B0322029338
:10F3D8000023CDE90033FDE6FFF7F6FD04460028DB
:10F3E800E0D12C4B03220393324B1649CDE901039C
:10F3F8000090034610F08FF9089B99690822284667
:10F4080011F0D2F9034670B111F09FFC0368012294
:10F418000393294B2046CDE901430A49234600942A
:10F4280010F079F9BEE7254A0090CDE901020549B7
:10F43800032210F070F92846FDF736FE81580300C4
:10F4480091580300AC4B0300A758030038D900209B
:10F45800B0580300E5910300BE580300C6580300E6
:10F46800EC580300FE58030015590300F1EE0100A3
:10F4780010D900203E5903004F5903005D5903007D
:10F488007859030048CC002050CC0020885903004C
:10F49800804C0300F9560300905A0300A659030054
:10F4A800D0590300E25903000C5A0300585A0300CC
:10F4B800725A0300235A0300345A03004E5A0300B9
:10F4C800F0B51C4D87B0AA6812F018030AD11A4A81
:10F4D8001846CDE9013219490322009310F02AF9A0
:10F4E80007B0F0BD002401276B68154E04932B6804
:10F4F80020460393134B1149059202930322234696
:10F50800CDE90044377010F015F9FFF79FFD284644
:10F5180000F080FA48B10C4B3A46CDE90143204649
:10F5280023460649009410F005F9FFF7D9FD00239A
:10F538003370D5E720D10020F95F0300DC4B0300CE
:10F54800EBE10020426003008060030003287FB5E0
:10F5580002460ED004282FD0012818D1E8211D48D2
:10F568000CF0BCF898B91C4807B05DF804EB0DF036
:10F5780045B8532014F0B0FB0346059050B9174A1C
:10F588001749CDE901020090012210F0D3F807B025
:10F598005DF804FB022253210CF0A0F818B105987D
:10F5A80014F093FBF3E7002200230E4805A90CF0A2
:10F5B8008BFE0028EBD0F2E703220C210A480CF05E
:10F5C8008DF80028E3D10949094807B05DF804EB34
:10F5D80014F093B858CC00203CCA0020A260030065
:10F5E800DC4B0300F4C9002020D1002010D10020FA
:10F5F80060CB00202DE9F04F2DED028B00258DB05A
:10F60800954B0DF128084FF41062944994480A93D9
:10F61800CDF8008005238DF82C500DF093F8914912
:10F62800914814F04DF88E4800F076F9044670B110
:10F638008E4B0095CDE901532B46012218468C4983
:10F6480010F078F80DB0BDEC028BBDE8F08F1F20EC
:10F6580007F0DAFE054628B1864BCDE90143009450
:10F66800234609E084480CF0C3FA044678B1834B7A
:10F67800CDE901532B460095184601227C4910F02C
:10F6880059F87F4B02930023CDE90033D5E70720D3
:10F698000CF026FA48B17B4B0222CDE90143204603
:10F6A80023467349009410F045F800200CF07EFAC8
:10F6B800054628B1744B02930023CDE90033DBE7FC
:10F6C80078200CF051FA044608B1704BD0E7782046
:10F6D8000CF028FA054608B16D4BBEE70CF08EF920
:10F6E800044608B16B4BC3E70CF0DEF948B16A4B2E
:10F6F8000122CDE90143204623465D49009410F0DC
:10F7080019F8002414F05BF94FF47A72A146A0FBB3
:10F71800020302FB0131614EC00B40EA4140C90BB4
:10F72800C6E900015E4D5F4F4FF0FF334FF0FF32E7
:10F7380002215B480DF02EFDEB6803F4FC23B3F5C2
:10F74800804F6FD12869002200230CF07DFF00282C
:10F7580068D197F85030DA061DD509F10109B9F1D9
:10F76800020F18D9BCB90CF09FF948B14A4B0122D5
:10F77800CDE90143204623463D4900940FF0DAFFC6
:10F78800494B03220293002339491846CDE9003337
:10F798000FF0D0FF012497F85030DB0742D5D7E9A6
:10F7A80000AB97ED028B14F00AF94FF47A79A0FBBD
:10F7B800090309FB0131D6E90032C00B40EA414098
:10F7C800C01A4FEAD13161EB020100234FF47A727B
:10F7D800FDF7EAFA0024354BCDE90801CDE90143EC
:10F7E8008DED068B234603222046CDE904AB204944
:10F7F80000940FF09FFF14F0E2F8A0FB090309FB47
:10F808000131A1462A4BC00B40EA4140C90BC6E969
:10F818000001D7E90001C3E90001D7E90201254B3E
:10F82800C3E900012B6A03F4FC23B3F5003F09D1B7
:10F83800686A0022002341460CF09EFD10B90A9820
:10F8480014F043FAEB686FF35233EB602B6A6FF3F3
:10F8580052332B6268E700BFC5600300A017012080
:10F8680060CB0020C9F4010010D10020D160030052
:10F87800DC4B0300ED60030055F501001561030042
:10F88800EC610300366103005261030077610300F5
:10F8980094610300B4610300C961030058CB0020E0
:10F8A80000C5002058CC0020106203004A62030003
:10F8B80048CC002050CC002070B515461E460446A2
:10F8C80086B020B96FF00104204606B070BD05A9C6
:10F8D80011F0B9F80C490246204614F00AFC044617
:10F8E8000028EFD1402230460849A8473F28EBD8E6
:10F8F800074B0122CDE901432046234605490094E0
:10F908000FF027FFE0E700BF116C0300ECE10020D7
:10F918007D620300DC4B030030B585B001F00CFCC0
:10F92800044668B12D4B0390029300230122184628
:10F93800CDE900332A490FF00CFF204605B030BD51
:10F94800284801F0F9FA044610B1274B0390EBE779
:10F9580011F056F8044610B1244B0390E4E7402216
:10F968002349244814F0C5FB48B9234B0322CDE9A9
:10F97800014323461A4900940FF0EBFEDDE71C4AC9
:10F988001E491F480BF004FC054640B11D4B0122DF
:10F99800CDE901432046234611490094ECE71A4B70
:10F9A8000322CDE901430E49234600940FF0D1FE0E
:10F9B80040220F49154801F03DFA04460028BCD002
:10F9C800134B0390CDE9015301222B4628460449E5
:10F9D80000950FF0BEFE2C46AFE700BFAB620300F8
:10F9E800DC4B030028C50020DE6203000C63030023
:10F9F8002E630300ECE100206F630300AA63030099
:10FA0800B56B0300D06B0300F06B0300066C0300BA
:10FA1800226C03002DE9F041836805461A07B8B047
:10FA28001FD59022002114A814F0B9F90CAB029349
:10FA38000DAB01930BAC0EAB009368496848039477
:10FA48000FAB10AA0BF088FC0628064629D0654B98
:10FA580002220293002364491846CDE900330FF0CF
:10FA680078FEAB68DB0618D51022002114A814F024
:10FA780096F95E495E480BAA0BF06EFC0128804699
:10FA88004FF000074AD05B4B0222CDE9017338469C
:10FA98003B46554900970FF05CFE002038B0BDE8A2
:10FAA800F081109B2046643310930F9B524C013B0E
:10FAB8000F9300F0EDFC041961F1000700234F4A91
:10FAC80020463946FDF720F90023ADF850003946A5
:10FAD80020464A4AFDF718F99021159214A8324693
:10FAE80013F0F1FB034658B1454B039002930023F2
:10FAF80001221846CDE900333B490FF02AFEB0E752
:10FB0800159A39490492BDF85020009003923D4A55
:10FB1800CDE9010203220FF01CFEA2E70A223946B2
:10FB28000DF12D008DF830700EF076FA054680B292
:10FB380000F070F8ADB2044650B9334B0222CDE95B
:10FB4800010329490346039500900FF002FEA4E73C
:10FB5800436800EE103A00F06FF81490A36800EEC6
:10FB6800103A00F075F81590A37807228DF85A30EE
:10FB7800637810218DF85B30E37814A88DF85C3039
:10FB880023788DF85E30FF238DF85D3013F09BFBF2
:10FB9800064660B11D4BCDE90350CDE901734246DD
:10FBA8003B463846104900970FF0D3FD75E7089596
:10FBB800A068FCF729FDCDE906016068FCF724FD83
:10FBC800134BCDE90401CDE90163032233463046E6
:10FBD800054900960FF0BDFD5FE700BF596C0300B3
:10FBE800736C03007C6C0300DC4B03000E6D030098
:10FBF800336D03003F6D030092C22AED805101006E
:10FC0800BF6C0300DF6C03007E6D03009B6D030077
:10FC1800CA6D030030B500220E24064904FB021306
:10FC28009D89854201D1184630BD0132ED2AF5D1B2
:10FC38000020F9E7086E0300DFED047A20EE270ABA
:10FC4800FDEEC07A17EE900A704700BF610BB64709
:10FC5800DFED047A20EE270AFDEEC07A17EE900A4F
:10FC6800704700BF610B36472DE9F04F8DB01F4636
:10FC7800029202F00403C2F3C2020193531C8207EA
:10FC880005460E46DDF858B0049340F01782041D6F
:10FC9800002840F0168201F00706341DC6F1080658
:10FCA8004FF0000A4FF004085246D14641467B1EE9
:10FCB800CDF80CA005B127600498002807DCCF48D0
:10FCC8008742C0F03F81CE48874280F03B8102984E
:10FCD80010F0020E00F04F814FF0010C601BBEF1D6
:10FCE800000F00F03581B0F5007FC0F031816FF072
:10FCF8001500FBE02B2833D81F2811D84FF0000936
:10FD080013F8010F002800F06E81B9F1000FF1D14E
:10FD18002528F5D14FF001094FF004084146EFE7D7
:10FD280020380B28EAD80FF2080C5CF820F000BF46
:10FD380009FD010005FD010005FD010009FD0100A7
:10FD480005FD010005FD010005FD010005FD01009F
:10FD580005FD010005FD010017FF010009FD010077
:10FD68002D385FFA80FCBCF14D0FC7D84D28C5D897
:10FD78000FF2040C5CF820F009FD010009FD0100F8
:10FD880005FD010009FD010009FD010009FD010053
:10FD980009FD010009FD010009FD010009FD01003F
:10FDA80009FD010009FD010009FD010005FD010033
:10FDB80005FD010005FD010005FD010005FD01002F
:10FDC80005FD010005FD0100D5FE010005FD01004E
:10FDD80005FD010005FD0100D5FE0100D5FE01006D
:10FDE800D5FE010005FD010005FD010005FD01002E
:10FDF80005FD010009FD010005FD010005FD0100EB
:10FE080005FD010005FD010005FD010005FD0100DE
:10FE180005FD010005FD010005FD010005FD0100CE
:10FE280005FD0100B9FE010005FD010005FD010009
:10FE380005FD010005FD010005FD010005FD0100AE
:10FE480005FD010005FD0100D5FE010005FD0100CD
:10FE5800B9FE0100B9FE0100D5FE0100D5FE010082
:10FE6800D5FE010009FD0100B9FE010005FF0100F2
:10FE780005FD010009FD010005FD01000BFF010062
:10FE8800B9FE01000BFF010005FD010005FD0100A1
:10FE980013FF010021FD0100B9FE010005FD01006D
:10FEA80005FD0100B9FE010005FD010021FD01006D
:10FEB80013F8010C6C283FD1002013F8021C81466E
:10FEC8006C293CD04FF00408414621E00BF1070BA8
:10FED8002BF0070B073424F00704FBE8028955B11F
:10FEE8000EEB0400B04204D96FF01B000DB0BDE862
:10FEF800F08FC4E900894FF0000908344FF0080872
:10FF08000CE700204FF00009DCE74846FAE700203C
:10FF1800013C4444C8F1000C04EA0C0425B1A1EBEF
:10FF2800050CA4446645DFD3002841D004985BF84B
:10FF3800047B01380490BDE600208146E8E74FF0D5
:10FF48000808C1E702984FF0000C00F0020EC5E661
:10FF58000F2A3FF6CCAEC5B10DF1300EC0F38700C5
:10FF68009644BCF1000F0AD060F07F000EF8100C28
:10FF78000AF1010A01320434C5F1080EC0E60EF890
:10FF8800100C039801300390F4E7BCF1000F01D185
:10FF9800019808B10136EDE73846CDE90612059318
:10FFA800FDF77AF8DDE906120236059B0644E1E71B
:10FFB800042908D10BF1040C15B1DBF8000020600E
:10FFC800E34604349CE608297FF491AE0BF1070B55
:10FFD8002BF0070000F1080B1DB190ED007B84EDBC
:10FFE800007B08348CE6611BB1F5806FBFF47FAEEF
:08FFF80045B9A6F108046018E8
:020000022000DC
:1000000078E700BF144803004CA30300019B890854
:10001000286029709DF80C10A3B16870E97085F80C
:1000200002A0BAF1000F06D04FF0000C08A8C5F1ED
:10003000010E62450AD10DF1200808EB0209C5F155
:10004000010B39E0019B6970EB70E8E710F8011BC8
:100050000B0608D504EB0E08464501F07F01FFF4BE
:1000600047AF04F8011B0CF1010CE2E7BAF1000FF5
:1000700003D098F90020002A1CDB019B03BB98F8F1
:10008000002055F8227045F822303846FDF708F870
:10009000421C04EB0B0111448E42FFF429AF98F887
:1000A0000010029204F8011B2046394613F05BFE53
:1000B000029A144408F10108C145D7D1601B19E721
:1000C0000022E6E76FF00D0014E707293FF6ECADDC
:1000D0000EE700BF30B50A4C0A44914200D130BD52
:1000E00011F8013B58400309E35C83EA0013DDB2D9
:1000F000C3F30313E05C80EA0510C0B2EDE700BF74
:10010000FE7A0300032808B506D910F022FE092361
:1001100003604FF0FF3008BD044B03EB4010083084
:10012000D0E8AF3F002BF0D00020F4E72CD1002026
:1001300070B504460D461646FFF7E4FF002809DBBC
:10014000064B600145B11A185268AA4204D010F05B
:1001500000FE0660002000E0185870BD2CD1002081
:1001600070B504460E461546FFF7CCFF00280CDBA1
:10017000074B610103EB4414626832601DB101F169
:100180000C021A442A60585870BD0020FCE700BFDA
:100190002CD1002010B500244FF0FF324FF0FF3378
:1001A00014480CF047F9144A6301D2E8AF1F79B143
:1001B0000134042C02F12002F6D110F0CAFD1723FD
:1001C0004FF0FF3403600B480CF0ACF9204610BD33
:1001D000D2E8EF0F0130C2E8EC0FBCF1000FF7D10D
:1001E0000648C218C15051600C33184413F06AF924
:1001F000E9E700BF68C9002034D100202CD10020DD
:1002000010B4044610460A4B620103EB44149950A3
:10021000606048B1C4683CB10C3213445DF8044BD3
:1002200040F205120FF0D8BA5DF8044B704700BFDA
:100230002CD1002030B50D49400100F108030B44DA
:10024000D3E8AF2F82B1541ED3E8EF5F954204D1BB
:10025000C3E8EC4FBCF1000FF6D1F1D1012A01BF88
:1002600000230A180B50536030BD00BF2CD1002072
:10027000014B1B68184700BF40C50020014B1860A8
:10028000704700BF40C5002007B50B46002102465D
:1002900000910348FDF714F803B05DF804FB00BFBC
:1002A0007102020030B5002587B0CDE90301044694
:1002B000009503A905480595FDF702F8DDE904302E
:1002C0009842B8BF255407B030BD00BF55F80200B2
:1002D0002DE9F74FB0F81890044619F00808934636
:1002E0000ED001290CBF49F0100949F02009A0F8EF
:1002F00018908BF31188BFF36F8F03B0BDE8F08FB8
:10030000DFF890A109F00709022907D120460FF074
:10031000CEFA0028EDD00128238B4BD16769218BC1
:10032000002F15DA256821F00701C4E9008841F0A3
:10033000010121830026218B01F007024A4502D0EA
:10034000A368002B57D10DB9002E6FD0002353E0C6
:1003500001F007035A1F012A1DD821F00701062BBF
:10036000256889B2C4E900880AD13DB12A46638B69
:10037000126801339BB2002AFAD1638341F0020173
:10038000204621830FF093FA0028D3D0238B43F02B
:1003900020032383CEE7042B0AD121F0070189B281
:1003A000204621830FF083FA10B141F02001218310
:1003B0000025BFE7032809D1226923F00703166847
:1003C00043F00603002523832F46B4E7042806D113
:1003D000226923F00703566843F00403F2E7052877
:1003E00006D1226923F00703966843F00503E9E785
:1003F00000252E46E8E7012341F0080121838BF315
:100400001188BFF36F8F03BB002D31D116B1514658
:100410002046B0474FF02003EFF3118B83F312888F
:10042000BFF36F8F238B23F008032383238BDA061C
:1004300027D5012123F010032383B4F8189009F085
:10044000070900297FF460AF53E7A1680029DBD0DA
:10045000D1F800903B462046D1F804B00192D8472D
:10046000019AB9F1000FCFD04946D9F80090F1E7D1
:1004700029463B46204601922D680FF034FA019A36
:10048000C2E713F020011EBF23F0200302212383C3
:10049000D3E700BF13F902002DE9F843C3684469AC
:1004A0005F1E40F26C730569E1170135E41841F1F4
:1004B0000001022D8CBF00230123E41A61F1000129
:1004C0000029804655DA6FF4C7704FF4C8720023D4
:1004D000201861F10001FCF71BFC284B024603FBCE
:1004E0000044D8E900903C23D8F80880C617C8FB20
:1004F0000306B446A0FB0306022D8CBF6FF0020E6C
:100500004FF0090E03FB0C6610EB090C40F26D1066
:100510004FEA940300FB04334FF06400B4FBF0F4A3
:1005200005EB0E004FF0990505FB00F04FF00505B7
:1005300000F10200B0FBF5F03B44A3EB0403104CC8
:100540000344A2FB040204FB012146EBE9761B18DD
:100550000C480D4A41F100011B18A3FB020361F195
:10056000000102FB013110EB0C0041EB0601BDE87C
:10057000F8834FF4C87200232046ACE770FEFFFFFB
:10058000B13A02009405F5FF80510100F0B5024632
:1005900001680A270020074E0C46237801319D5D33
:1005A0006D0701D41460F0BD07FB0033A3F13000E8
:1005B000F2E700BFA3A003002DE9F84F15469A46C5
:1005C000D378224A6F2B13F802B080460F460BF007
:1005D000030B29D024D8582B14BF0A261026DDF887
:1005E00028903246002340463946FCF7E1FB092AB1
:1005F000D4B21ED83034B045E4B277F1000309F824
:10060000014D01D3D14511D82B789B0605D5082E75
:1006100015D1AB7843F00803AB704846BDE8F88FBE
:1006200003F0F703702BD7E70826D8E780460F467C
:10063000D7E7BBF1010F0CBF37345734DBE7102E7F
:10064000EBD1AB7843F01003E6E700BFA3A00300B3
:100650004FF02002EFF3118382F31288BFF36F8F04
:100660000121044AC2F8401583F31188BFF36F8F4C
:10067000002070470090034020B1034B800143F0FD
:1006800001031847704700BFE04C030008F0FCBDB1
:100690002DE9F74F82460F46324BD3E8EF5F6A1CD5
:1006A000C3E8E12F0029F8D17DB92F4CA946A04617
:1006B0004FF0010B2D4E361B3611B14508DBBAF158
:1006C000000F02D04FF0010AFDB903B0BDE8F08F72
:1006D000237B73B12368DA681AB1204601939047EF
:1006E000019B1B694BB9636804222046196800F01E
:1006F000BFF809F101091034DFE7204698470028C8
:10070000F1D00BFA09F31D43F3E7A94695FAA5F4D6
:10071000B4FA84F40AFA04F3260108EB04146FEA2D
:10072000030B25EA0305237B63B158F806301B69E8
:1007300093B94644736804222046196809EA0B09F4
:1007400000F096F8002DE1D127B14FF4A4700021FC
:100750000CF040FB4D46B7E7204698470028F1D102
:10076000E7E700BFB4D10020644C0300744C0300E1
:10077000014B53F820007047D84D03000023054A71
:100780004FF400401370044A1360044B044A1A608B
:1007900000F06CBA2CE20020B0D1002044C500204B
:1007A000FBFE0200F8B50D4F3D785DB929460120EA
:1007B000FFF76EFF0A4C0B4E361B3611B54202DBBB
:1007C00001233B70F8BD63685B791BB12368204649
:1007D0009B68984701351034F0E700BF2CE20020F9
:1007E000644C0300744C0300084BD3E8EF2F013234
:1007F000C3E8E12F0029F8D138B1054BD3E8EF2F3A
:10080000013AC3E8E12F0029F8D17047B0D10020A8
:10081000ACD10020F8B50C4B06461B689847002762
:100820000A4C0B4DB0602D1B2D11AF4200DBF8BD03
:1008300063685B7923B12368314620461B6898477B
:1008400001371034F1E700BF44C50020644C0300B9
:10085000744C0300044A054B9B1AB1EBD30F34BF11
:1008600052F8310000207047AC4B0300644C030089
:10087000054A4368801A012200110130187119607D
:100880005A710FF043BB00BF644C03002DE9F04FD9
:1008900085B002AF9946D7E90C6BD7E90E3A054609
:1008A0008846144693B310215A460020CDF800A084
:1008B000C7F804A0FFF7DCF90146BB6B04F00702A0
:1008C00005F00704E40044EA8214114A114D02EADB
:1008D000C64217360E4405EA412526F007062C438A
:1008E000ADEB060D144302AD33B15A46CDF800A06E
:1008F00005F11000FFF7BCF94B4622464146284659
:100900000FF007FB0C37BD46BDE8F08F1946D5E761
:100910000000F87F00FE07000EB403B503AB53F8E8
:10092000042B0146044801930FF036FB02B05DF83A
:1009300004EB03B0704700BF49FF02002DE9F04F00
:100940008BB09A469DF8503004460593DDE9158337
:100950000793179B0F460693059B9346189E002B03
:1009600000F0148106F00103099306F008030893D0
:100970000FF0CDFA06F002050246002800F0B18023
:1009800020468849FFF7C8FF81464DB116F0440F55
:1009900040F0A9803A4620468349FFF7BDFF8144D5
:1009A000099B5BB1814B059A204653F82220804B6E
:1009B0008049002A08BF1A46FFF7AEFF089B002BAC
:1009C00000F0BD807C4B059A204653F822207B49DD
:1009D000FFF7A2FF0546BBF1000F05D05A4620469F
:1009E0007749FFF799FF0544BAF1000F05D0524649
:1009F00020467449FFF790FF05444D44B8F1000FBD
:100A000000F0CC8070484346224670490EF0B4FE98
:100A1000069B002B4DD0DFF8D881069F102F28BFF2
:100A20001027F30607D4B00648BF6949204658BFCF
:100A30006849FFF771FF4FF0000A554500F38480C5
:100A40004FF00009DFF8ACA1DFF8ACB1B94580F098
:100A50008B80079B5946204613F80920FFF75CFF5F
:100A600009F10109B9F1100F75D120465A49FFF774
:100A700053FF4FF0000BDFF884A15F4540F2818007
:100A8000079B514613F80B20544B2046D35C13F0C0
:100A9000970F08BF2E22FFF73FFF0BF1010BBBF1B1
:100AA000100F66D1079B3B440793069BDB1B069305
:100AB000B3D1059B7BB1F10704D520463C4A3D49A3
:100AC000FFF72AFFF20606D4B30620464CBF404982
:100AD0004049FFF721FF20460BB0BDE8F04F0FF073
:100AE00062BA814651E73E4B186800283FF457AF81
:100AF0003C4B4FF4616519684FF47A7EB7FBF1F710
:100B0000B7FBF0F1B1FBF5F200FB11770EFB07F735
:100B1000B7FBF0FC05FB12153C2100FB1C77B5FB75
:100B2000F1F30EFB07F7B7FBF0F701FB135120467B
:100B30000091CDE901C72C49FFF7EEFE2FE7089D94
:100B400049E7059D29485EE741462046FFF7E4FE58
:100B50000AF1010A71E719F0070F7FF477AF4146F8
:100B60002046FFF7D9FE71E751462046FFF7D4FE35
:100B700076E71BF0070F80D141462046FFF7CCFEF9
:100B80007BE741462046FFF7C7FE86E7B8F1000F36
:100B9000D7D1069B002B9ED0059D3CE7069B002BE2
:100BA00089D038E7217B0300257B0300E44D030057
:100BB0001C7B0300E5910300F84D03004A7B030012
:100BC000507B0300547B030049FF020099FF0200A1
:100BD000119A0300109A0300637B0300A3A0030093
:100BE000B8D10020BCD100202E7B030065FF02009D
:100BF000617B03005F7B0300597B030013930300B9
:100C00002DE9F0414B680F8805460C4690468E68EA
:100C100086B0C7F382175BB113495B1A43F3CF0168
:100C200000291FDB2078C0F3C200FFF713FE034644
:100C3000214651F8102B6088C2F34922002A01EBAB
:100C4000020408BF0021C0F3CB00CDE90308CDE9C1
:100C500001140022314628460097FFF76FFE06B0C8
:100C6000BDE8F0810023E3E7AC4B03000123002142
:100C7000074A10B5074C1360A04204D801B11360B5
:100C8000054B186010BD012140085B00F4E700BF70
:100C9000BCD1002040420F00B8D10020F8B50D466D
:100CA0000446064F4618B44201D12846F8BD3868BC
:100CB00014F8011B83685B689847F4E7D8D10020DB
:100CC000014B002019607047C8D10020014B024A37
:100CD0001A607047D8D10020044903000122024B5A
:100CE00002481A700FF05FB92DE20020284E030071
:100CF00007B5064B01911868FFF73AFD0F2203462E
:100D00000199034803B05DF804EB1847C8D10020EF
:100D1000284E030073B505460F4C104EB44207D35E
:100D200010F017F86A2303604FF0FF3002B070BD77
:100D30002368AB4200D06BB92846A368CDE9001206
:100D40009847DDE9001228B12846E36802B0BDE803
:100D5000704018471034E1E79C4B0300AC4B030094
:100D6000014B1860704700BFDCD1002010B4034C69
:100D700024682468A4465DF8044B6047DCD1002059
:100D8000014B1B685B681847DCD10020114B70B524
:100D90001B680C468BB1104A116800228A4202DBA4
:100DA0006FF0010070BD1D4613F8106B864207D02E
:100DB0000132F3E700202560F4E76FF00C00F1E763
:100DC000E86818B112F0D3FA0028F3D16FF01200DE
:100DD000E8E700BF94C500202C4F030070B588B031
:100DE00005460C46C0B269461646FFF7CFFF0028FD
:100DF0001BDB0098C8B143682268029383680195A1
:100E0000CDE903360023C568CDE9062305930FF02D
:100E100094FD6DB12846084901AA10F01FFB079800
:100E200008B9059B236008B070BD6FF01500FAE7A4
:100E30006FF01200F7E700BFCD090300104B2DE95A
:100E4000F0411C6805460E461746ACB14FF0FF3224
:100E50004FF0FF330B480BF0EDFA63683246D3F8DE
:100E6000088029463B462046C047044605480BF00B
:100E700059FB2046BDE8F0816FF00104F9E700BF9F
:100E8000E8D10020CCC9002000230360044B5A683D
:100E900012B9C3E90000704710605860704700BF86
:100EA000E0D10020014B1860704700BFE8D100205E
:100EB000002330B585B00546CDE9023301904FF0EF
:100EC000FF334FF0FF320B480BF0B4FA0A4B1C68AB
:100ED00034B1636820461B6801A998472468F7E786
:100EE000284600F0F5F8044602480BF01BFB2046AC
:100EF00005B030BDCCC90020E0D100200022024B5B
:100F0000C3E90022704700BFE0D100207FB50BABE2
:100F100005930393054B0122029300231846CDE964
:100F20000033FFF7B3FC07B05DF804FB9F7B0300C1
:100F30000022024BC3E90022FFF7E0BFECD1002002
:100F400070B505461A4C1B4EB44212D31A4E4FF0E0
:100F5000FF324FF0FF3319480BF06CFA34687CB164
:100F6000286854F8141C143CFCF790F8C8B1646964
:100F7000F5E721682868FCF789F8A8B11434E3E79D
:100F80000024726805F114036C613AB91446C6E98D
:100F900000330A480BF0C6FA204670BD1360736038
:100FA000F7E76FF01004F4E76FF01004F4E700BF08
:100FB000744C0300744C0300ECD10020CCC9002019
:100FC0002DE9F34107460E4609B100230B600025C9
:100FD0001B4CDFF87480444510D31A4B1C685CB37B
:100FE000384601AA54F8141C143C0FF010FD08B345
:100FF000CDB90EB1019B336025461BE03846216810
:1010000001AA0FF004FD60B125B90EB1019B336058
:10101000254606E00022296820680FF0F8FC002829
:10102000F3D11434D7E70022296820680FF0EFFCD1
:101030000028DED16469D2E7284602B0BDE8F0811D
:10104000744C0300ECD10020744C03002DE9F041F6
:101050008AB0109F04460D4616460990BFB1396804
:1010600081B109AA07930FF0D2FC079B50B9002069
:101070000AB0BDE8F081BA68294600920998324664
:10108000C047F5E7D7F80480B8F1000FF3D1204648
:1010900009A90793FFF794FF0028E8D08768324634
:1010A0002946079B0998B8470028E0D0CDE90340BE
:1010B0000024054B0122029320462346CDE900443B
:1010C0000249FFF723FFD2E79F7B03004C4C03004C
:1010D000F8B506460025174C174FBC4208D3174BEE
:1010E0001C6824B3143CAEB9E368DBB96469F8E763
:1010F0001EB9E3684BB91434EFE70022314620688B
:101100000FF085FC0028F4D1F5E79847002D08BFC3
:101110000546F0E70022314620680FF078FC0028F1
:10112000E2D1E3E79847002D08BF0546DEE72846F1
:10113000F8BD00BF744C0300744C0300ECD10020D8
:1011400010B5064C23783BB9FFF7F2FE00F0B8FA71
:1011500008B90123237010BD0020FCE72FE2002016
:101160002DE9F04FDFF8B0A08BB002939AF80C3065
:101170000646884615460193002A46D01746102396
:101180000593019BDAF8004096FBF3FB03FB0BFB96
:101190001598594605AB06AAA0470446002837D142
:1011A000059AA6EB0B0BA2EB0B02BA4228BF3A46FC
:1011B00006AB9B44149B91461BB35846197812F01A
:1011C000B4FD00B30123A0EB0B0959464A46404643
:1011D000039312F0C8FD0599039B0F29A7EB09079C
:1011E00004D91BB9C8444E44002FC8D1029AED1B44
:1011F0001560149A0AB183F0010420460BB0BDE8D3
:10120000F08F149BE1E72346DFE76FF01504F4E766
:101210006FF00404F1E700BFF4D100202DE9F04F96
:10122000DFF8BC9087B099F80C8082468B46174651
:101230000193FBF735FFB0FBF8F408FB1404051B22
:101240002B46D9F80460524601991098B047019B8B
:101250002B441E4634B1102322460AEB050102A896
:1012600012F08EFD3D2206AB234403F8102C04F14E
:10127000010ABAF10F0F0BD9002453463146D9F8B1
:101280000450109802AAA84720BB2CBB5644A24683
:101290007FB1CAF11004BC4228BF3C4602AB59469C
:1012A00003EB0A00224612F05EFDA3443F1BA2445A
:1012B000DFE7BAFBF8F408FB14A44CB1A8EB040474
:1012C00002AB03EB0A002246394612F06CFDA24441
:1012D0000124D2E76FF0040007B0BDE8F08F00BF33
:1012E000F4D10020034B10B59B680446084698478C
:1012F000001B10BDF4D100202DE9F04780468A463E
:1013000091461D466FF0150086B00E9E134F16B91C
:1013100006B0BDE8F087102E334628BF10232946BB
:10132000019348463C6801AB02AAA0470028EFD1D0
:10133000019B397BB3FBF1F201FB12320AB10B4482
:101340009B1A514640467C6802AAA0470028DFD17C
:10135000019B1D449A44F61AD9E700BFF4D100203E
:1013600010B5034CC4E90001A260237310BD00BF97
:10137000F4D1002030B5044685B010461D46CDE9B5
:101380000212FFF7AFFF044A01460095204602AB68
:10139000FFF75CFE05B030BD9B0A03002DE9F04F5E
:1013A0000546B7B00E4617460021102206A89846FB
:1013B00012F0F9FC2B6CDFF8CCB0DFF8CCA00A936C
:1013C00005F10809484606A90FF041F9044618B18D
:1013D000002037B0BDE8F08F4A2106AB04AA10A860
:1013E0000FF06AFB58B1264B0390CDE9014301226F
:1013F00023465146204600940FF0D3FBE0E7049BC0
:1014000036AA1A4402F8980CB8F1000F13D0BDF8B0
:10141000242001339342D3DA0BAC0DF1180CBCE855
:101420000F000FC4DCF80030236048460BA90FF012
:101430000EF9044630B1049A3B46013206A910A8C1
:10144000B047BDE74A210BAB05AA23A80FF034FB38
:1014500048B12346012251462046CDE9014B009474
:101460000FF09FFBE1E7059B36AA134403F84C0CF1
:1014700023A910A8FBF70AFE0028D6D1A0E700BFD9
:10148000C47B0300E17B03004C4C03000A460123AC
:101490000149FFF783BF00BF751302002DE9F04F2C
:1014A00005460F4691469846C3B003B17AB1002471
:1014B00028462346624909AACDE90979CDE90B847A
:1014C000FFF76CFF0C9B012B00F0B68017B96FF093
:1014D0001504B1E0414638460FF0CFFADFF86CB1A1
:1014E00005906B7B9C42F2DA05F108060DF1340A97
:1014F00052463046BDF814100EF08EFD10F11C0F50
:10150000034640F083806B7B013BA3421FDD3046E6
:101510000EF060FD8246D0B9286C0FF050FA2B6CAB
:10152000CDE912AA1693304612A90FF090F880B1B7
:1015300030460FF0A7F850B1424B039002930023BE
:10154000012259461846CDE900330FF02AFB013439
:10155000C7E7AB6A129A9A42EAD1492112AB07AAAD
:101560001CA80FF0A9FA0028DDD1079BBDF8542074
:1015700001339342D7D00DF15C0C0DF1480EBEE85B
:101580000F00ACE80F00DEF80030CCF80030304639
:1015900017A90FF05CF830B33046BDF8541017AA05
:1015A0000EF03AFD0028BED1BDF85430014600933C
:1015B00012AA034617A8FFF79FFE82460028B2D161
:1015C000304617A90EF0C9FD0028ACD01E4B039081
:1015D000CDE901A30122534659465046CDF800A05B
:1015E0000FF0DFFA9FE7492117AB08AA2FA80FF0E9
:1015F00063FA0028CBD1DDE907239A42C7D12FA98E
:101600001CA812F0A0FB0028C1D18CE700287FF4B1
:101610005EAF2A6C4946119238464246CDF800A08A
:10162000FFF7FCFD431D044606D0514630460EF040
:1016300094FD002C08BF0446204643B0BDE8F08F5F
:10164000D90A0300167C0300F57B03004C4C030011
:10165000012370B504460373837300F10806314615
:101660000C200EF07CFE0546B0B930460EF0DDFDD4
:1016700000280ADCE36A206CD3E900120FF088F935
:101680000028ECD06FF0040504E0054B20466360B1
:10169000FFF7FAFB284670BD6FF01505FAE700BFAB
:1016A000384E030090F83E30024A03490348FFF7E2
:1016B00057BE00BF570B03005F0B0300730B030003
:1016C000092337B50C206946214A0093FFF786FBB2
:1016D00010F1130F3AD038B10C3005D0404080F3F0
:1016E00011884FF0040002DF1A4C009B2046637300
:1016F000FFF7AEFF08B301A90C20FFF747FB014637
:1017000060B1404080F311884FF0040002DF404098
:1017100080F311884FF0040002DF0EE00198826828
:101720000FF036F9054601980FF007F9002DE8D1C2
:101730002046FFF78DFF0028E9D1074B054863607D
:10174000FFF7B0FB0348FFF7ADFF002003B030BD4B
:1017500004D2002048C50020384E03002DE9F8438C
:1017600005464FF02003EFF3118683F31288BFF391
:101770006F8F0E4B1C689CB14FF00C090C4FDFF8BB
:101780003480D4E90132002D08BF13462BB198F8FC
:10179000142009FB02F2B85C98472468002CF0D1B1
:1017A00086F31188BFF36F8FBDE8F8834CD2002019
:1017B00060D20020B4D80020012238B5174B1C7D20
:1017C00004F01F039A40D043154B610903EB8103DA
:1017D000D3E8EF1F01EA0005C3E8EC5FBCF1000F9E
:1017E000F6D1114213D00F4B0F4D8BB10C23634335
:1017F000EA185178E85C0EF05EFB0020FFF7AEFFC0
:101800000C235C4300232A192B51C2E9013338BD54
:1018100083F31188BFF36F8FEFE700BFB4D80020C8
:101820006CD20020B7FE020060D200202DE9F0410A
:10183000314B07461D7D4FF02003EFF3118883F3F2
:101840001288BFF36F8F0C246C432C4B2C4E195D08
:101850001A19002945D007CA06EB040C8CE80700CA
:1018600000221A5588F31188BFF36F8F0C236B4346
:10187000F05CF21898B37B1C0FD04FF400440021A9
:10188000D2F808C01F480023ECFB04011E4AFBF7F6
:101890008FFA0121381A12F077F80BF01BF80120AB
:1018A000FFF75CFF012105F01F029140174A6B0909
:1018B00002EB8303D3E8EF2F0A43C3E8E02F0028AD
:1018C000F8D1134B33B10C20684333185978305C8E
:1018D0000EF0E5FAFFF770FF0BF0CCF90120BDE840
:1018E000F0810146284600F015F80028BAD007C854
:1018F000344484E80700B5E7B4D8002054D200206F
:1019000060D200203F420F0040420F006CD2002006
:101910009FFE02002DE9F04F85B00E4603A900F0AE
:1019200041F84FF400474FF0000B039B013801933F
:10193000194BDFF86C80D3F800A004B2631C04D10B
:101940000025284605B0BDE8F08FC4465946019BE6
:1019500004EB440503EB850568680023E0FB07C141
:101960000E4A6046FBF724FAC44659468146A868E9
:101970000023E0FB07C1094A6046FBF719FABAF1F8
:10198000FF3F01D0824504D9721CDAD04844B042EE
:10199000D7D9013C24B2D1E790C5002040420F00C6
:1019A0003F420F0008B9024B0B600020704700BF98
:1019B0004C4E0300014910220A60704710ED00E010
:1019C00072B6404080F31188BFF36F8FBFF34F8F23
:1019D00030BF62B6BFF36F8F704700BF72B6494029
:1019E00081F3118820BF80F3118862B6704700BF71
:1019F0002DE9F04780460D468CB0002977D00024B1
:101A00008B68012205934B68204604930B683B4981
:101A100003933B4BCDE90044029323460FF0D1F8EA
:101A20006B69012205932B6920460493EB683349C7
:101A30000393344B0094CDE9014323460FF0C1F8E2
:101A4000EB6901220393304B2046CDE901432B493A
:101A5000234600940FF0B5F82F462646DFF8B490E1
:101A6000DFF898A0D7ED0B7AFCEEE77AE31C099338
:101A7000CDED0A7AD7ED0A7AFCEEE77AA31C07933C
:101A8000CDED087AD7ED097AFCEEE77A631C059371
:101A9000CDED067AD7ED087A0023FCEEE77ACDE9A2
:101AA0000294CDED047A012251461846CDE9006634
:101AB00004340FF086F8102C07F11007D2D12B6EEA
:101AC00001220393114B0D49CDE9016300230096D8
:101AD00018460FF076F8AB69012203930C4B0749C7
:101AE000CDE901630023009618460FF06AF82946F5
:101AF00040460CB0BDE8F0470AF0D8B9244C0300CA
:101B0000337C0300627C0300917C0300E37C0300D0
:101B1000F27C0300A07C030043B2002B08DB01220F
:101B200000F01F0002FA00F0024A5B0942F82300AD
:101B3000704700BF00E100E0054B420953F8222046
:101B4000012300F01F0003FA00F01040704700BFAF
:101B500000E100E043B2002B01F10101ACBF03F151
:101B60006043064B4FEA4111C9B2ABBF03F5614375
:101B700000F00F0083F800131954704714ED00E0D3
:101B800008B572B6044BDA691AB10022DA6111F0B5
:101B90008AFC62B608BD00BFB4D8002030BFFFF792
:101BA000FDBF00BF144A08B5144B22F07F029A60B3
:101BB000BFF34F8FBFF36F8FD3F8882022F47002EA
:101BC000C3F88820D3F8882042F4A002C3F8882004
:101BD0004FF04042C3F83422BFF34F8FBFF36F8FF3
:101BE0000023E1EE103A0AF0DFF90BF085F900F07E
:101BF000AFFB0AF019FA00BF00C2010000ED00E0DF
:101C0000094A0A49936809689867D96708494B687F
:101C100043F080534B60002383F31188BFF36F8F31
:101C20009368D86F704700BFB4D8002004550300F4
:101C300000ED00E022498A6882F8C1E04FF03000F0
:101C40001044EFF3098C80E8F01F1EF0100F03D151
:101C500002F1800080EC108A202080F31288BFF30C
:101C60006F8F184F4FF000660A6A8A603E6092F9E3
:101C7000C1E0906F0023936780F311881EF0100F6E
:101C800003D00023E1EE103A03E002F1800090EC73
:101C9000108AEFF3148323F0040383F31488BFF353
:101CA0006F8F02F1300090E8F01F8CF3098802F189
:101CB000000004B50EF0A4FFBDE80440704700002A
:101CC000B4D8002004ED00E01EF0040F0CBFEFF3C9
