:10000000E0FC002025210000BB610000F920000079
:10001000F9200000F9200000F9200000F92000007C
:10002000000000000000000000000000B11C000003
:10003000F920000000000000F9200000F920000075
:10004000111D0000111D0000111D0000111D0000F8
:10005000111D0000111D0000111D0000111D0000E8
:10006000111D0000111D0000111D0000111D0000D8
:10007000111D0000111D0000111D0000111D0000C8
:10008000111D0000111D0000111D0000111D0000B8
:10009000111D0000111D0000111D0000111D0000A8
:1000A000111D0000111D0000111D0000111D000098
:1000B000111D0000111D0000111D0000111D000088
:1000C000111D0000111D0000111D0000111D000078
:1000D000111D0000111D0000111D0000111D000068
:1000E000111D0000111D0000111D0000111D000058
:1000F000111D0000111D0000111D0000111D000048
:10010000111D0000111D0000111D0000111D000037
:10011000111D0000111D0000111D0000111D000027
:10012000111D0000111D0000111D0000111D000017
:10013000111D0000111D0000111D0000111D000007
:04014000111D00008D
:1001440053B94AB9002908BF00281CBF4FF0FF313A
:100154004FF0FF3000F00CB8ADF1080C6DE904CE9F
:1001640000F008F8DDF804E0DDE9022304B070478C
:10017400704700BF2DE9F04F099E88468E4615460C
:1001840004461946002B40F0C6804245B2FA82F775
:1001940046D94FB1C7F1200C08FA07F3BD40BC4063
:1001A40020FA0CFC4CEA030E4FEA15481FFA85FCB2
:1001B400220CBEFBF8F908FB19E309FB0CFA42EA2E
:1001C40003439A4528D9EB1809F1FF3004D29A4524
:1001D40002D9A9F102002B44A3EB0A03A4B2B3FB96
:1001E400F8F208FB123302FB0CFC44EA0344A44576
:1001F40014D92C1902F1FF3303D2A44501D9931E5B
:100204002C44A4EB0C0443EA00401EB1FC40002340
:1002140034607360BDE8F08F4846DDE71346F0E7CD
:1002240002B9FFDE8FBBA8EB020301214FEA154E92
:10023400AAB2200CB3FBFEFC0EFB1C330CFB02F831
:1002440040EA0343984562D9EB180CF1FF3004D21D
:10025400984502D9ACF102002B44A3EB0803A4B2E5
:10026400B3FBFEFC0EFB1C330CFB02F244EA03441A
:10027400A2424ED92C190CF1FF3304D2A24202D966
:10028400ACF102032C44A41ABDE7C7F1200CBD4015
:1002940008FA07F3BC4028FA0CF94FEA154E20FA85
:1002A4000CFC4CEA0302ABB2B9FBFEFC110C0EFBD6
:1002B4001C900CFB03F841EA0040804523D9281820
:1002C4000CF1FF3104D2804502D9ACF1020128447B
:1002D400A0EB080092B2B0FBFEFC0EFB1C000CFB72
:1002E40003F842EA004398450FD9EB180CF1FF32AA
:1002F40004D2984502D9ACF102022B44A3EB0803C3
:1003040042EA014192E76146E2E76246F6E7604667
:10031400A3E76346B7E7434505D90EB1C6E900082C
:100324000021084676E7B3FA83FCBCF1000F10D134
:10033400434501D382420AD8841A68EB030301209F
:100344009E46002E68D0C6E9004E002162E7604652
:10035400F7E7CCF1200E03FA0CF302FA0CF500FADD
:100364000CF722FA0EF428FA0EFB20FA0EF11C43C5
:1003740008FA0CF34FEA14491943A3B20A0CBBFB65
:10038400F9F809FB18BB08FB03FA42EA0B42924551
:100394003ED9A21808F1FF3004D2924502D9A8F13F
:1003A40002002244A2EB0A0289B2B2FBF9F809FB6B
:1003B400182208FB03F341EA024293422AD9A21805
:1003C40008F1FF3104D2934202D9A8F10201224478
:1003D40041EA0040D21AA0FB059842454B464146EB
:1003E40002D306D14F4504D20138B9EB050368EBBB
:1003F40004018EB1FC1A62EB010707FA0EFE24FA1F
:100404000CF327FA0CF74EEA0303C6E900379CE71E
:100414004046C7E74146DBE73146FBE6F0B52F4BE4
:100424002F4A4921C3F800262E48C3F8042685B074
:10043400C3F80826C3F80C26C3F81026C3F81426FC
:10044400C3F81826C3F81C2605F02DFE05F0E4F9C0
:1004540001A800F061FC244B1B68834204D04521B1
:10046400224805F020FEFEE7039A4921204805F0C2
:100474001AFE49211F4805F016FE4FF48031002072
:1004840002F0A2FE044620B145211B4805F00BFEF4
:10049400FEE769469DF8080000F032F8009B039DD2
:1004A4001D44019B1E8900F04BFFAF1900F02CFF87
:1004B40001F078FE84F30B8884F30A88AB5983F344
:1004C400088884F31488BFF36F8FBFF36F8F7B6842
:1004D40098474521094805F0E6FDFEE700800150F4
:1004E4003546526E1C700000C0C6002035700000F6
:1004F4005870000087700000AC700000DF700000CE
:1005040008B540B1024600230448452105F0CBFD5F
:100514006FF0150008BD0860FCE700BF0271000021
:100524002DE9F04F1D46834BDBB01746DDE96648E5
:100534001E68DDF890B100F0B5FE01227E4B3AA8AA
:10054400C3F8002504F096F83CB1B8F1000F04DDBF
:10055400424621463AA805F0B2FC4FF000097B89D7
:10056400B7F808809844FB689844C8454ED80DA94C
:100574003AA804F0F1F800226F4BC3F80025C3F841
:100584000025689B23B1202218460DA905F032FEF0
:1005940000232A46009339464FF6FF7307A805F057
:1005A4003CF90446002844D14FF0FF37DFF894A10A
:1005B400DFF8848102900DF1160305AA06A907A8A5
:1005C40005F077F9041E34DB40F0A480BDF81690E2
:1005D400B9F1100F38D1BDF81490B9F1200F40F0E3
:1005E400A3804B46284606993AAA05F06AFD0446BC
:1005F400F8B94A463AA90DA805F0D2F904464F4B7A
:100604001B68834215D101230293D4E7659AA8EBB2
:1006140009039A4228BF1A46494613469246284679
:100624005A4605F04EFD044638B10022424BC3F849
:10063400002520465BB0BDE8F08F524659463AA8E3
:1006440005F03DFCD14490E7B9F1010F3ED1BDF86E
:100654001430202B68D8284606993AAA05F031FDB3
:1006640004460028E5D19DF814B0BBF1200F09D849
:10067400DAF80030324F0393039B9C4205DB0023DE
:10068400C8F800354FF0FF341CE000F00BFEC8F84A
:1006940000951DA803F0EEFF7A681DA8126857F8AC
:1006A400081B05F00CFC15A91DA804F055F8002240
:1006B4003AA9C8F8002515A85A4605F08AFD18B9C4
:1006C400C8F80005274676E70134D5E7B9F1220FCB
:1006D4007FF471AF7B1C3FF46EAFDAF80030BB429D
:1006E40015DDBDF81430802B1ED8284606993AAA89
:1006F40005F0E7FC044600289BD1FFB22021BDF899
:10070400143000973AAA0DA800F01EF806464FF0E0
:10071400FF3750E7029B53B1084B1B68B34201D02B
:10072400044B1E68344684E74FF0FF3481E701240C
:100734007FE700BFE8C4002000008450C0C600204A
:100744006C6C0000686C00002DE9F04196B017460F
:100754001D469DF87020354B0E4653F8321003EBBE
:10076400C2035B688046186801913023014402AAE1
:1007740001A805F031FB10B14FF0FF3053E0DDE983
:1007840001431C44214606AB03AA01A805F04CFB17
:100794000028F1D1049A072AEED12549059805F0DD
:1007A40018FD0028E8D1079A082AE5D121490898BC
:1007B40005F00FFD0028DFD1214602AA01A805F0AB
:1007C4001FFB0028D8D1DDE9013213449C42D3D168
:1007D400412AD1D13D443023294603AA02A80297D5
:1007E40005F0FAFA0028C7D1DDE9023213449D422C
:1007F400C2D32A4602A906A805F0A6F80028BBD150
:100804002A4602A90EA805F09FF80028B4D1202E8C
:10081400B2D101990B78042BAED13346404606AAD7
:10082400013100F057FD16B0BDE8F0816C6C00009A
:1008340028710000307100002DE9F041032386B0D7
:100844000D466F460026DFF86880ADF8003017F8D3
:10085400010B01A901F01AF90446A0B9019810236B
:10086400816802AA103905F02CFC0446019805F0B1
:1008740027FC44B91022414602A805F0AAFC40B165
:100884002EB14FF0FF34204606B0BDE8F0810126BA
:10089400DDE7019805F0A1FE0423A0F108012A4632
:1008A400019805F00EFC0446019805F009FCEAE7FE
:1008B4000C7000002DE9F041384B88B0064600204A
:1008C4000D461C6804F09DFF06A9C0B201F0DEF8D5
:1008D400002857D1294604F094FF2C2407A9C0B25C
:1008E40004FB056401F0D2F8002836D04FF02C0840
:1008F40008FB05F806EB0807396911F0100137D138
:100904004FF480730193264B224600930846CDE9A9
:100914000311069B0291FFF703FE0446214B56F890
:10092400082006989A420CD13A89FB68D1438B423D
:1009340007D813448268934203D21B4B1B68A3421B
:100944001DD045B38268002105F0E5FB174A452117
:10095400174805F0A8FB012411E0079805F0F9FBFE
:100964000746079805F0ACFB631EE21C93420DD1C9
:10097400002DF0D03046069905F00DF92C46069866
:1009840005F09EFB204608B0BDE8F08113F8011F76
:10099400B942EBD0AAE7074AD9E700BFE8C4002070
:1009A400D8D300203DB8F396C0C6002039710000AA
:1009B4004B7100004371000073B50D4600210446DD
:1009C4002846CDE9001105F0A5F830B3164E23688A
:1009D400B34203D1204601AA05F031F8E36AB342D9
:1009E40004D16A460121204605F029F8DDE90032E8
:1009F400934288BF0193019BAB60019A294620462C
:100A040000F034FB094B1A68002A03DD572108481B
:100A140005F049FB002002B070BD05F10801FFF7A5
:100A24000BFFAB680193E8E73DB8F39624D30020AD
:100A3400737100002DE9F84F8A46904699460026C6
:100A4400DFF870B0194C1A4D0B9B9E4201D3002065
:100A54000FE00B9B50469F1BB7F5806F28BF4FF4E8
:100A64008067144A3B4606EB090105F02AFB10B1E6
:100A74000120BDE8F88F0A993B465A464046711852
:100A840005F034FB0028F3D1C4F800563E44C4F802
:100A94000456C4F80856C4F80C56C4F81056C4F8E2
:100AA4001456C4F81856C4F81C56CDE700800150FB
:100AB4003546526E24C700202DE9F0430F4600212D
:100AC4008D4B85B01E688D4B044643628C4B036589
:100AD400084604F096FE04F12001C0B200F0D6FFEF
:100AE4000121002004F08DFE04F14C01C0B200F09D
:100AF400CDFF0546204604F0E3FF804668B9002296
:100B04002046114604F082FF804600B3002257219C
:100B14007C4805F0C8FA012391E0802257217A48E5
:100B240005F0C1FA0123984584F85830E7D194F8C8
:100B34005830042B8DF8073000F28480012B00F22A
:100B4400888000F09F80FF2384F858309AE0204684
:100B540000F0A4F90028DED0684604F0D2FF69460C
:100B6400204605F06DF818B1424657216748D0E792
:100B7400684604F0CFFF80F001006A46C1B2204607
:100B840004F044FF02460028C0D1684604F0C2FFC6
:100B9400804660BB69462046FFF70EFF9DF807308C
:100BA40084F85830033B012B06D8404605F097F8EB
:100BB40010B1FF2384F858309DF80730023B022B14
:100BC4000BD8002005F079F838B1FF2384F85830A9
:100BD40045214F4805F067FAFEE794F85830FF2B9B
:100BE400F6D06A460021204604F010FF93E79DF8F2
:100BF4000790B9F1010F17D1104602F081FB831E53
:100C0400022B80460DD849462046FFF753FE414B40
:100C14001B68984205D001280CBF4FF001084FF023
:100C2400050884F8588082E701212046FFF742FE38
:100C3400384B1B68984214BF05239DF8073084F88D
:100C4400583074E7052B7FF47EAF002005F047F899
:100C540013E069462046FFF7AFFE94F85830054686
:100C6400DA1E012A0CD8002005F039F805460028C0
:100C74007FF469AF002005F020F8054610B162E763
:100C8400022BF7D094F85830FF2B04D1452120488B
:100C940005F009FAFEE7012B06D06A46002120463A
:100CA40004F0B4FE0546D0B900212046FFF702FE49
:100CB4000646DFF86080D8F8003098420FD1102241
:100CC4000021684605F0A1FA206A04F0A3FD00257E
:100CD4003871236AD8F800605B683C60BB60E06CE4
:100CE40005F0EEF9206A05F0EBF9002D14BF284653
:100CF400304605B0BDE8F083E8C4002024CB0020D2
:100D040024CF0020E4710000A271000010720000E2
:100D14003A720000C0C6002038B5064D0446602271
:100D24000021284605F071FA21462846FFF7C4FE43
:100D340038BD00BFC4C6002073B516461C4633B385
:100D4400436A5D686379012B15D101BB1F4B22688F
:100D54001B689A4298BF0025002004F052FD01A9A7
:100D6400C0B200F093FEF0B10125019805F0A8F996
:100D7400284602B070BD022B09D12368012B08D983
:100D8400124A1268934202D8B1FA81F14909002546
:100D9400E2E7FCD10029DFD00129F8D12179023919
:100DA40018BF0121F3E7294620233246019805F0B4
:100DB40088F905460028D7D1002CD6D035680448D8
:100DC4002D1A18BF4FF0FF35CFE700BFECC4002049
:100DD4003DB8F3962DE9F04F07460C4685B0014621
:100DE4000020164604F0E3FD051E51DB3846E46D91
:100DF40004F0EAFD5FFA84F94FF0000A4FF0010BAA
:100E04004FF0FF3405F1FF3809FB08089DB9BAF12A
:100E1400010F03DD4521204805F045F9631C06D088
:100E24007F2C2ADC40F2011301343460B38028465D
:100E340005B0BDE8F08F6B1E009341460123384690
:100E44000DF10F0205F03DF9031E019322DB01228F
:100E540038460DF10F0105F0D4FB019B40B15B4511
:100E640001D00AF1010A9B46009DA8EB0908CDE7D1
:100E7400B4F1FF3F08BF2C46F5E70223803C7371B1
:100E8400631004F001040133013433603471CEE79C
:100E94000725CCE70125CAE746720000816A426D46
:100EA40038B5914208D0531C8B4205D057211348C2
:100EB40005F0F9F8002038BD80291CD957211048C5
:100EC400F6E7446A056D04EBC30405EBC3056468E7
:100ED4006D68AC4202D057210A48E9E701339A42CF
:100EE400EFD1914205D9436A03EBC2025368A3428E
:100EF400F1D10120DFE700231C46F0E7697200000E
:100F0400A1720000D072000000B589B0032004A9CA
:100F140005F0DDFB9DF81020012A41D0254B264920
:100F2400032A18BF0B469DF81320492102929DF80D
:100F34001220224801929DF811200092204A05F0C7
:100F4400B2F8092006A905F0C2FB9DF81820012A71
:100F540028D0184B1849032A18BF0B469DF81B20AC
:100F6400492102929DF81A20144801929DF81920F3
:100F74000092144A05F097F89DF81030012B13D114
:100F84009DF81230032B0FD19DF81830012B0BD094
:100F94000D48492105F087F8022009B05DF804FBEB
:100FA4000A4BC0E7094BD9E70948492105F07BF80A
:100FB4000020F2E7017300000773000019730000BA
:100FC4000B7300005A7300006A730000FC72000087
:100FD4008973000070B54B6814461E4A03F0FF2362
:100FE400934206460D4686B02FD10B68012B2CD1B7
:100FF400204604A902F030F99DF81020012A26D0D9
:10100400154B1649032A18BF0B469DF81320492196
:1010140002929DF81220124801929DF8112000922C
:10102400104A05F040F89DF81030032B0DD12146ED
:10103400304604F0B0FD204605F03CFB2046A9688C
:1010440004F0D5FC204602F0E7F806B070BD064B6C
:10105400DBE700BF00010004017300000773000018
:10106400197300005A730000FC7200002DE9F04F60
:101074002DED028B05460C468548492189B017465B
:1010840005F011F86B6A01225E6800233344BB4209
:10109400114602F10102F9D3DFF800B22046CBF881
:1010A400001004F037FD18B3E86D04F07BFC002356
:1010B400AF6A013F3344834201D2013FFAE7DBF8D0
:1010C4000030BB4214D35721724804F0ECFFDBF824
:1010D400002007FB06F3572102FB06626E4804F06A
:1010E400E2FF0123E37109B0BDEC028BBDE8F08F90
:1010F40006A9032000F0CAFC07A9092000F0C6FCD9
:1011040021462846079AFFF765FF6379012B08D12A
:10111400DBF80070DFF888A1DBF80030A7B9012301
:1011240023604FF002030127DFF874816371DBF859
:101134000030DDF818909F424DD9484604F0C0FFB6
:10114400079804F0BDFFCEE7226801339B1A9F4243
:101154003FD86B6A012A196853F8370003EBC703B9
:1011640053F8083CDDF81880A3EB010308EE103AAD
:10117400A0EB010912D1E268079B022A0AD041467A
:101184002846029304F007FD22464146284604F00F
:1011940038FD029B1946284604F0FDFC32464946B8
:1011A400404604F0F6FC18EE103A42464146284602
:1011B400CDE90096FFF73EFC2146284604F0B7FC33
:1011C40023680133236020B1DAF800300133CAF810
:1011D4000030013FA0E723689F4257D3696A286D16
:1011E40051F83730FA0003930B68083A50F802C0FC
:1011F400029303682079DDF81CA00128ACEB0303FB
:1012040042D189580593029B3246C91A4846049133
:1012140004F0BFFC0499059B4A46009128465146B8
:1012240001960493FFF706FC2146284604F07FFC50
:101234004FF002032371049B20B1D8F8002001323F
:10124400C8F80020194632465046049304F0A1FC25
:10125400049B494600932846DDE9022301969B1A24
:101264005246FFF7E7FB2146284604F060FC23685A
:10127400013323604FF00103237138B1D8F80030F3
:101284000133C8F8003001E00228DBD001374EE713
:10129400A0730000C9730000F8730000ECC40020C0
:1012A40024D3002070B5094D2B7853B90126084C7E
:1012B400C4F8006503F080FA28B92E70C4F800055C
:1012C40070BD0020FCE74FF0FF30F9E7D8D40020D0
:1012D4000000845070B5AEB01D460446CDE902212D
:1012E400FFF7E0FFDDE902210123064E05A8C6F859
:1012F40000352346009505F0E1FA0023C6F80035D1
:101304002EB070BD00008450BFF36F8F72B60023FF
:101314004FF0FF30094A03F120010133102B42F84A
:101324002100F8D100234FF0FF3003F160010133B5
:10133400102B42F82100F8D1704700BF00E100E013
:1013440010B501224FF0FF340021194B19485A609F
:10135400C3F84843C3F8084303F580535A60C3F8FD
:101364004843C3F80843A3F55043C3F8001580224B
:10137400C3F8084304F049FF802200210E4804F01A
:1013840044FF00210D4B8022C3F800150C48C3F81C
:10139400084304F03AFF802200210A4804F035FF94
:1013A400094BC3F808454FF05023C3F8084310BD58
:1013B4000040015080800050808100500090005017
:1013C400809000508091005000700150014B1B68C8
:1013D400184700BFF0C40020014B1860704700BFDD
:1013E400F0C4002007B50B460021024600910348D3
:1013F40000F0EAF803B05DF804FB00BFD11300006D
:101404002DE9F74FB0F81890044619F008089346F0
:101414000ED001290CBF49F0100949F02009A0F8A9
:1014240018908BF31188BFF36F8F03B0BDE8F08F72
:10143400DFF890A109F00709022907D1204604F03A
:1014440085FD0028EDD00128238B4BD16769218BC2
:10145400002F15DA256821F00701C4E9008841F05E
:10146400010121830026218B01F007024A4502D0A5
:10147400A368002B57D10DB9002E6FD0002353E081
:1014840001F007035A1F012A1DD821F00701062B7A
:10149400256889B2C4E900880AD13DB12A46638B24
:1014A400126801339BB2002AFAD1638341F002012E
:1014B4002046218304F04AFD0028D3D0238B43F037
:1014C40020032383CEE7042B0AD121F0070189B23C
:1014D4002046218304F03AFD10B141F0200121831C
:1014E4000025BFE7032809D1226923F00703166802
:1014F40043F00603002523832F46B4E7042806D1CE
:10150400226923F00703566843F00403F2E7052831
:1015140006D1226923F00703966843F00503E9E73F
:1015240000252E46E8E7012341F0080121838BF3CF
:101534001188BFF36F8F03BB002D31D116B1514613
:101544002046B0474FF02003EFF3118B83F312884A
:10155400BFF36F8F238B23F008032383238BDA06D7
:1015640027D5012123F010032383B4F8189009F040
:10157400070900297FF460AF53E7A1680029DBD095
:10158400D1F800903B462046D1F804B00192D847E8
:10159400019AB9F1000FCFD04946D9F80090F1E78C
:1015A40029463B46204601922D6804F0EBFC019A43
:1015B400C2E713F020011EBF23F02003022123837E
:1015C400D3E700BFB55F00002DE9F04F8A464FF026
:1015D40000098FB01D46531E01900293029B587858
:1015E4005C1C252821D14FF0000C4FF0FF37184622
:1015F40061463C460A260230CDF80CC002780290BF
:10160400392A00F1010059D81F2A18D8002A00F0FD
:10161400F7815146019B25209847029B5146187833
:10162400019B984709F10209D8E7002800F0E881F6
:101634005146019B984709F101090294CEE7A2F1B2
:101644002003192BE5D80FF2080E5EF823F000BF33
:10165400BD1600001716000017160000BD16000086
:101664001716000041170000171600001716000097
:10167400171600001716000083170000BD1600009F
:1016840017160000971700004F17000017160000E8
:101694005B1700007717000077170000771700002A
:1016A40077170000771700007717000077170000FE
:1016B400771700007717000094469FE7582A00F038
:1016C4001B81A2F163035FFA83FEBEF1170FA0D85A
:1016D400172B9ED80FF2040E5EF823F05F1900005A
:1016E400BD1700001716000017160000171600009B
:1016F4009D170000BD170000171600001716000004
:101704009D1700001716000017160000171600009A
:10171400A718000017160000171600003F19000054
:1017240017160000BD17000017160000171600005A
:10173400A7180000171600009D1700005146252029
:10174400019B984709F1010948E7039B002703F02F
:10175400FE03039352E7002C0BDA002F0BDA039BF2
:10176400002B00F0498124EAE47406FB0424303C95
:1017740044E7002FF7DB06FB0727303F3EE7002F47
:1017840055F8043B01DB1F4638E71C1EBFF636AF95
:1017940064420223039331E7682A03D1682906D1FE
:1017A40048212BE76C2A02D16C2900F027810029FB
:1017B4007FF42FAF114621E77A2907D1752A05F165
:1017C40004062D6862D14FF000080DE06C29F5D0B5
:1017D4004C29F3D1EB1D23F007031E46752AF6E8C6
:1017E400020107D1D3E90058BCF1200F51D1864B37
:1017F400013C09E005468846B8F1000FF4DA6D4271
:10180400824B68EB4808013C4FF0000B00930DAB92
:101814000593284641460A220023CDF810B0FEF76E
:101824008FFC059B303203F80129CDE905352846A4
:10183400002341460A22CDF81C80FEF781FC069B5A
:1018440005460A2B079B884673F100030BF1FF3B07
:10185400DFD2049B049AC3F1010B0EAB9D18002F39
:10186400A5F1040504DA039B13F0010F18BF274602
:10187400039BA7EB0B08B8F1000FD4BFA4EB0B0438
:10188400E41B9B0700F18180274677E04FEAE57867
:10189400B2E7BCF12B0F0ABF5D4B5E4B04F1FF3482
:1018A400B2E7702A28D12E4656F8041B00230029DB
:1018B4005CD059480090023C002502F06002A2F17D
:1018C40039080DF1340E01F00F02092A88BF424491
:1018D40030320EF8012910294FEA111242EA03723C
:1018E4004FEA131073F1000305F1FF3C21D20EAB54
:1018F400C5F1010B1D44B2E76C2904D12E46002327
:1019040056F8041B08E04C29F8D1073525F00705E3
:101914002E466B6856F8081BBCF1230F06D13F4DC9
:1019240012F0200F3C4808BF2846C3E7394800900E
:10193400C2E7654611460346C5E72E4656F8045BE2
:10194400284604F03FFC002F834602DBB842A8BFC0
:10195400BB46304B002700938AE72E4656F8043BDB
:101964004FF0010B8DF8203008ADF2E74FF0050B76
:101974002B4DEEE751462020019B9847013FF9D5B6
:1019840024EAE473013C9944E41A009BA9EB03099B
:1019940004E000935146019B9847009B09EB030721
:1019A40013F8010B0028F4D1C146B9F1010913D58C
:1019B400D94628EAE878B9F1010912D5BBF1000F3C
:1019C400A8BFD8442546013D11D5002CA8BFA0448A
:1019D400354608EB070901E65146019B302098473C
:1019E400E3E7514615F8010B019B9847E3E751469D
:1019F400019B20209847E6E70123CBE64C21FDE537
:101A040048460FB0BDE8F08F5C7800008474000095
:101A140086740000967B00008B74000088740000BC
:101A24008E74000008B54FF02002EFF3118382F3A7
:101A34001288BFF36F8F00F0A3FB034804F079FA18
:101A440000F088F8FCE700BF947400004FF0200217
:101A5400EFF3118382F31288BFF36F8F0121044ADD
:101A6400C2F8401583F31188BFF36F8F00207047CD
:101A74000090035020B1034B800143F00103184749
:101A8400704700BF606C000001F0BABC114B70B528
:101A94001B680C468BB1104A116800228A4202DB93
:101AA4006FF0010070BD1D4613F8106B864207D01D
:101AB4000132F3E700202560F4E76FF00C00F1E752
:101AC400E86818B104F0E2FE0028F3D16FF01200C8
:101AD400E8E700BFF4C40020586D000070B588B07A
:101AE40005460C46C0B269461646FFF7CFFF0028EC
:101AF4001BDB0098C8B14368226802938368019590
:101B0400CDE903360023C568CDE90623059304F027
:101B1400D7FA6DB12846084901AA04F073FC079866
:101B240008B9059B236008B070BD6FF01500FAE793
:101B34006FF01200F7E700BF65610000014802F092
:101B4400F1BA00BF5C6D0000014910220A607047C1
:101B540010ED00E072B6404080F31188BFF36F8F40
:101B6400BFF34F8F30BF62B6BFF36F8F704700BFB4
:101B740072B6494081F3118820BF80F3118862B6A0
:101B8400704700BF37B505460C46C9B18B6810488D
:101B94000093D1E90023452104F085FA63694521C6
:101BA4000093D4E903230B4804F07DFA4521E2694C
:101BB400094804F078FA4521A269084804F073FA48
:101BC4002146284603B0BDE8304002F009B900BF01
:101BD400C1740000F5740000297500003D75000013
:101BE40043B2002B08DB012200F01F0002FA00F0D0
:101BF400024A5B0942F82300704700BF00E100E09D
:101C0400054B420953F82220012300F01F0003FA78
:101C140000F01040704700BF00E100E043B2002B29
:101C240001F10101ACBF03F16043064B4FEA4111DE
:101C3400C9B2ABBF03F5614300F00F0083F8001392
:101C44001954704714ED00E030BFFFF7FDBF00BF2B
:101C5400144A08B5144B22F07F029A60BFF34F8FE9
:101C6400BFF36F8FD3F8882022F47002C3F8882062
:101C7400D3F8882042F4A002C3F888204FF04042F1
:101C8400C3F83422BFF34F8FBFF36F8F0023E1EE0D
:101C9400103A02F0FBF802F03BF900F035FA02F0DA
:101CA40001F900BF0000000000ED00E01EF0040F89
:101CB4000CBFEFF30880EFF30980816911F8021C6F
:101CC4000229FFD001B504F06EFA01BD04460846AE
:101CD40011461A460023E1EE103A83F30B880A4BAF
:101CE4002025A3F5205686F30B8883F3098863B671
:101CF4004FF0000383F31188BFF36F8FA04785F380
:101D04001188BFF36F8FFEE7E0FC002001B5EFF30D
:101D14000580A0F110004FEAC0000449014409C93C
:101D24009847BDE80140024908470000E8690000FF
:101D3400391D0000704700BF38B5214C45212148AA
:101D440004F0B1F9A36A9D0103D545211E4804F0AE
:101D5400AAF9A36ADC0103D545211C4804F0A3F9C0
:101D6400174DAC6A14F4801404D04521184804F0CB
:101D74009AF90224AB6A180303D54521154804F0E7
:101D840092F90F4DAB6A590303D54521124804F06B
:101D94008AF9AB6A9A0303D54521104804F083F904
:101DA400074DAB6ADB0303D545210D4804F07BF9ED
:101DB400AB6A20466FEA03436FEA1343AB6238BD54
:101DC40000ED00E0707500008D750000A575000041
:101DD400C4750000F375000016760000407600001C
:101DE4005F76000070B5234C06460D462248452117
:101DF40004F059F9A36AD90403D545211F4804F016
:101E040052F9A36A1A0503D545211D4804F04BF97C
:101E1400184CA36A9B0510D51A48452104F043F9D0
:101E2400A26BA36A180408D54521174804F03BF9AE
:101E34001EB1A36A23F40043A3620E4CA36A59059E
:101E440003D54521114804F02EF9A36ADA050BD510
:101E540045210F4804F027F90020064A936A43F409
:101E64007F439362287070BDA36A9B04F4D5452117
:101E74000848EFE700ED00E08F760000AA76000046
:101E8400C0760000D8760000F676000010770000D7
:101E9400307700004D77000070B5264C06460D469D
:101EA4002548452104F0FFF8A36AD80603D5452147
:101EB400224804F0F8F8A36A190703D545212048FD
:101EC40004F0F1F81B4CA36A9A0710D545211D486C
:101ED40004F0E9F8626BA36A1B0608D545211A4889
:101EE40004F0E1F81EB1A36A23F08003A362114C4D
:101EF400A36ADE0703D54521144804F0D4F8A36A85
:101F0400980603D54521124804F0CDF80020094B6A
:101F14009A6AD10658BF9A6A9A6A920642BF5A6A66
:101F240022F400525A62034A936A43F0FF03936215
:101F3400287070BD00ED00E0817700009C77000000
:101F4400C0760000D4770000F17700000C78000020
:101F54004D7700002DE9F041554B00255E688AB0AD
:101F6400C6F3080485F31188BFF36F8F02F07F4333
:101F7400B3F17F4F07D102F00C03082B05D14521A3
:101F84004C4804F090F82F4604E012074EBF0F4669
:101F9400074601254FF00008E31E8DF80780092B42
:101FA40074D8DFE803F005686C657373737373703A
:101FB4003F4E4521404804F076F8F46A8DF80780D6
:101FC40014F0020405D045213C4804F06CF80024C8
:101FD40006E0F36A002B1DDA4521394804F063F862
:101FE4009DF807309BB92022394602A804F002F973
:101FF400099B002D57D0C3F3080222B96FEA53237B
:102004006FEA43230993204602A9FFF7BBFD0AB0F8
:10201400BDE8F081F36A5B00E2D54521294804F06C
:1020240042F8BB6933F8022C4DF602739A4209D088
:10203400B36ADBB26BB101200DF10701FFF72CFF8E
:102044000446CDE745213A681F4804F02CF83C6863
:10205400C6E7B36A13F47F4F05D001200DF10701E1
:10206400FFF7C0FEECE7B36A1B0C1B04002BB7D0D0
:10207400FFF762FEE4E700200DF10701DEE7002030
:102084000DF10701ECE7452110489EE7104916F4CD
:10209400F87F104A104808BF0A46A4F110034521EE
:1020A40004F001F893E723F4FF7323F00103A9E795
:1020B40000ED00E05E7800008E780000AA78000051
:1020C400D0780000E3780000077900002879000048
:1020D400307800004578000051790000044B5A69BB
:1020E40042F010025A615A6942F480625A617047A0
:1020F40000ED00E0EFF30880EFF3098101B57246CB
:10210400FFF728FF01BD00BF002320210348C218A8
:102114000133412B82F80013F9D1704700E100E04C
:10212400002080F31488BFF36F8F002080F30A88A7
:1021340080F30B88FFF7A8FC00200E490860BFF36A
:102144004F8F0D4880F3088800F03EF8202080F37C
:1021540011880A484FF40061401880F30988EFF3AE
:1021640014800221084380F31488BFF36F8FFFF7B4
:102174006FFD000094ED00E0E0FC0020E0FC002096
:10218400BFF34F8F0549064BCA6802F4E06213435C
:10219400CB60BFF34F8F00BFFDE700BF00ED00E051
:1021A4000400FA05002318460649D1F89020C2F32A
:1021B4000722934200D17047C1F89830C1F8A000BB
:1021C4000133F6E700ED00E010B572B6002484F3A5
:1021D4001388FFF7E7FF23464FF0FF300B4A03F164
:1021E40020010133102B42F82100F8D100234FF0D5
:1021F400FF3003F160010133102B42F82100F8D1C4
:1022040062B6BFF34F8FBFF36F8F10BD00E100E0E4
:10221400014B1860704700BFF8C40020084B70B52C
:10222400C31A0D4607499B100446594340220648E9
:1022340004F013F82B4601462046BDE870401847C9
:1022440038D30020B76DDBB670690000402373B546
:102254000B4C0093041B0B460D460A49A410614322
:102264000646094A094804F025F8011E05DA3046F5
:102274002B4602B0BDE87040184702B070BD00BFE5
:1022840038D30020B76DDBB62B6300007069000003
:1022940070B50022012104460520FFF7BFFC0F485A
:1022A40001F0B8F90E4B984215D104F094FA26695E
:1022B4000C49304603F09AFE00280BDB0125246903
:1022C4000849356404F11C0003F090FE002801DB8A
:1022D4000020E56470BD6FF00400FBE729230000D3
:1022E4000000AD0B986D000073B50C230146002669
:1022F4004B430A48C4184033D4E90E521844A66329
:10230400019203F097FF35B12B46019A044802B0BD
:10231400BDE87040184702B070BD00BF38D300203C
:102324007069000010B1012804D07047034B1B6C86
:102334005B0701D1FFF7D8BF704700BF38D3002037
:1023440008B54FF02003EFF3118183F31288BFF334
:102354006F8F124A136843F0020013F001031060F8
:102364000CD04FF05022D2F80C34D2F80C2413F0D5
:10237400010303D00A4803F05DFF012381F31188B0
:10238400BFF36F8F23B1BDE808400020FFF7ACBF57
:102394000120BDE8084004F02CBA00BF88D3002017
:1023A40078D30020074BD3E8EF2F22F00201C3E8D3
:1023B400E01F0028F7D1D30702D4012004F05ABA51
:1023C400704700BF88D300202DE9F8430122074657
:1023D4003549D1E8EF3FC1E8E02F0028F9D133B9FE
:1023E400324933484B60CB608A6003F012FE7B1E97
:1023F400012B31D8012F07D14FF05023D3F81C34CF
:1024040003F00303022B27D004F04EFA044618B954
:10241400284B1B78002B3FD14FF02003EFF311869C
:1024240083F31288BFF36F8F01244FF050254FF0D0
:102434000008DFF88490D5F81834D5F81824D203AE
:102444000CD503F00303022B01D0012F06D1ECB10C
:1024540086F31188BFF36F8FBDE8F8833046FFF72A
:1024640087FBD5F81835DBB2012BE4D1D5F804216C
:10247400002AE0D0C5F80481D5F804210222C5F869
:1024840018252022C9F88021AB60D4E74FF05023EF
:102494000222C3F80423DFE74FF05023022206464A
:1024A400C3F80823C1E700BF8CD3002028D3002041
:1024B40054D30020DDD4002000E100E008B5084832
:1024C400084B186004F0E2F938B10748FFF7A0FEA2
:1024D4000548FEF781FF002008BD6FF01200FBE7FE
:1024E400B869000090D30020F12400000A2838B510
:1024F4000446074D04D1286883680D215B6898471A
:1025040028688368E1B25B689847204638BD00BFFD
:1025140090D3002030B5406801F01F05047BB2F56C
:10252400001F45EA441585B04FF0000405D1284644
:1025340001F0FEFA002005B030BDB2F5800FCDE900
:1025440002442ED1B3F1007F0CBF042305238DF880
:102554000830836823FA01F1C90714D4B2F1A07FCB
:1025640011D11B4A05F01F03803352F82330DB07D7
:1025740009D40DF107042146284601F041FA154B10
:10258400984219D0039400232846194602AA01F060
:102594000DF9114B984218D10121284601F084FA13
:1025A400C8E7B3F1C06F05D0B3F1007F0CBF0223BD
:1025B4000123CCE70323CAE7204601F06FFA064B58
:1025C4009842DFD06FF00B00B5E76FF01500B2E76B
:1025D400002584500400AD0B0000AD0B10B501F0D4
:1025E4004DFA044668B901F021FA084B98420AD121
:1025F4002146074801F0FEF9224605210D20FFF788
:102604000DFB002010BD6FF00400FBE70000AD0BD4
:1026140019260000430970B511D1094B596871B1ED
:1026240001230C68074E03FA00F58A682A4002D099
:1026340030464B68984714B121462468F5E770BDCD
:1026440094D30020886900002DE9F043D0F8048079
:1026540001F01F0698F80C3085B046EA431614467C
:102664000F4630460DF1030101F0CAF914F4403568
:1026740081460BD1304601F083FA424B994503D190
:102684009DF8030001F004FA002056E000233046D0
:10269400194602AACDE9023301F088F8394B984271
:1026A40002D06FF0150048E0814503D19DF8030086
:1026B40001F0EEF9A50352D540F206332340B3F5F9
:1026C400837F3DD00CD8062B15D004D89BB1022BA8
:1026D400E7D104230FE0B3F5807FE2D101230AE0C0
:1026E40040F2022293422DD0B3F5407F2CD0B3F5B3
:1026F400007FD6D102238DF8043084F48033C3F3F1
:102704000043E0068DF805304CBF0323C4F34013A7
:1027140021038DF8063019D50121D8F8043001FAC7
:1027240007F79F600022304601A901F0E9F8154B34
:10273400984214BF6FF01500002005B0BDE8F08387
:102744000723D8E70523D6E70323D4E7620341BF71
:102754000121D8F8043001FA07F7DF60E2E7E30665
:102764004FF000034CBF0324C4F340141A46304610
:1027740001A98DF8044001F019F8024B984283D066
:102784008FE700BF0000AD0B024B0B600123136009
:10279400704700BFA0D3002000487047EC6D0000D4
:1027A40010B504F06FF8034C206004F068F8606022
:1027B400002010BDA0D30020F8B50E46144604F046
:1027C4005EF821460546304603F00BFE3746F8B165
:1027D400B6FBF5F305FB136323B9B4FBF5F305FB73
:1027E400134040B12346324645210C4803F05BFCBC
:1027F4006FF015000BE0A54209D804F040F8054637
:10280400384601F09FFA641B2F44F9D12046F8BDE5
:102814002346324645210248E8E700BF9A79000082
:10282400BE790000F8B50E461946304617461C46D8
:1028340003F0D7FD40B9234632464521124803F040
:1028440032FC6FF01500F8BD44EA060515F00305E7
:1028540004D02346324645210C48F0E78CB124F0DD
:102864000304AC4205EB060006D1094AD2F8003451
:10287400DB07FBD50020E6E7795901F081FA04353E
:10288400EFE72046DFE700BFBE790000E0790000F3
:102894000090035037B50C4619462046019315465F
:1028A40003F09FFD019B40B909482246452103F0EE
:1028B400FAFB6FF0150003B030BD33B11A46214660
:1028C400284603F097FC0020F5E71846F3E700BF1D
:1028D400BE7900002DE9F04104460D46076903F076
:1028E400E3FF10B92B4B1B78ABB94FF02003EFF388
:1028F400118883F31288BFF36F8F6068464603F034
:10290400D0FD08BB88F31188BFF36F8FEDE788F320
:102914001188BFF36F8F6426606803F0C2FD28B985
:10292400012003F00AFF013EF6D1F4E74FF0200343
:10293400EFF3118883F31288BFF36F8F6068464604
:1029440003F0AFFD0028E2D03B691D70626839696D
:102954001368C3F844150121C3F848150021C3F8CE
:102964002011D3F82001C3F858115268D3F8581134
:10297400D20641BF0822C3F800254FF48002C3F8F1
:10298400042301229A6086F31188BFF36F8FBDE898
:10299400F08100BFDDD40020F0B54B79012B26D0A7
:1029A400032B21D110268B79032B1DD1CC790CB1AB
:1029B400012C19D10A7912B1022A15D10E220B6801
:1029C4004568B3F5164F2D6865D02DD8B3F5165F5D
:1029D40064D016D8B3F5966F62D00AD8B3F5967F53
:1029E40061D0B3F5167F61D06FF0850052E0002608
:1029F400D9E7B3F5166F5CD0B3F5965FF4D1374BD6
:102A04003CE0B3F5E14F57D007D8B3F5615F55D03B
:102A1400B3F5964FE8D1324B30E047F61227BB426C
:102A2400E2D14FF4000329E0B3F5613F48D013D855
:102A3400B3F5963F47D009D84DF6C027BB4244D0E2
:102A4400B3F5614FD0D14FF46B0317E0B3F5E13F19
:102A5400CAD14FF0EB7311E0B3F5612F38D008D829
:102A6400204FBB4237D0B3F5E12FBDD14FF0E8631F
:102A740004E01D4FBB42B7D14FF08053006934438B
:102A8400C5F824352243031DC5F86C2503C983E822
:102A940003000020F0BD4FF41D03EFE7134BEDE7F7
:102AA4004FF49E23EAE74FF4A033E7E74FF41C33D7
:102AB400E4E74FF41D23E1E70D4BDFE70D4BDDE7C2
:102AC4004FF06C73DAE70C4BD8E74FF46503D5E7A6
:102AD4004FF07063D2E74FF08063CFE700B013008C
:102AE40000A04E0090D0030040420F000050270089
:102AF40000C0750000F03A0000903A012DE9F74358
:102B04000021D0F804800669D8F80040D8F80C9069
:102B1400C4F800150746306001AA484603F029FDB1
:102B2400051E1FDB019BD9F800201979186800F0F5
:102B3400B9FA051E16DB3846311DFFF72DFF054691
:102B440080B9D8F8043099071CD506F1180000F0B4
:102B5400A5FD214B984209D04521204803F0A3FA52
:102B64006FF00405284603B0BDE8F083327E42F0DE
:102B74000043C4F8A031C4F88C3001239340184AB0
:102B8400C2F804350823C4F8003598F8083053B95E
:102B9400C4F81031D4F810317369C4F83435012302
:102BA400C4F838352360D8F804309A075CBF4FF472
:102BB4008072C4F80423DB0644BF4FF48003C4F8D6
:102BC40004333369C4F844350023C4F84835012379
:102BD400A360E360C6E700BF0000AD0B247A0000E9
:102BE400007001500123834010B5DC430D4AD2E844
:102BF400EF1F01EA040CC2E8EECFBEF1000FF6D1DC
:102C04004FF4803202FA00F002F15022C2F80803B5
:102C1400BFF35F8FBFF36F8F0B4214BF01200020FF
:102C240010BD00BFACD300201949F8B5044622F00A
:102C34007F450868C1E90023A5F50013101AB3F510
:102C4400400F22D2134B1B681A0A1B065E19124B43
:102C540042F10007C3E90067012601F0B5F9A300BA
:102C640003F1502303F58033D3F84025AA420BD156
:102C74001EB94FF40002C3F840254FF48030074BCF
:102C840000FA04F4C3F84443F8BD0026E5E700BFA6
:102C940030C60020B0D3002018C6002000500150D8
:102CA400E1B101230E4A8340D2E8EF1F1943C2E881
:102CB400EC1FBCF1000FF7D14FF48033094A834075
:102CC400C2F80433084BD3E8AF3F23FA00F0C3073C
:102CD40042BF4FF40012054BC3F80021704700BFF8
:102CE400ACD3002000500150A8D3002000E100E044
:102CF4000D4B1868010A0006BFF35F8F0B4BD3F826
:102D04000435181841F10001B3F5801F0AD2084BAD
:102D1400D3E90023904271EB030303D210F18070D6
:102D240041F10001704700BFB0D3002000500150B2
:102D340018C600202DE9F04F2DED028B85B0164604
:102D440098460546FFF74EFF08EE100AFFF7D0FF3E
:102D5400B04271EB080379D2444B301A68EB01019D
:102D6400984271F100037ED2414B03EB0513D3E982
:102D740002ABD84508BF564550D04FF4803326F0F7
:102D84007F4214464FEA850905F1500709F150299D
:102D9400BF00AB4009F58039BFB207F1502701935A
:102DA400D9F84005334B07F58037D3F80415401A9A
:102DB40020F07F4021F07F4C0128C9F840C507D19D
:102DC400CDE90221132003F075FDDDE90221294B31
:102DD40001F1020CA4EB0C0020F07F40B0F5000FD1
:102DE40088BF64460020386038680198C3F84403FB
:102DF40024F07F40C9F84005D3F80405814206D089
:102E0400201A023820F07F40B0F5000F1CD8A41A15
:102E140024F07F4414EB060A48F1000B0024144903
:102E240010982B0101EB0512C850C2E902AB119BAB
:102E34005360284618EE101AFFF732FF204605B0FB
:102E4400BDEC028BBDE8F08F2046AEE701230A4AB1
:102E5400AB40D2E8EF1F1943C2E8E01F0028F8D1C5
:102E6400B246C346DAE76FF01504E2E70100000159
:102E740020C6002000500150A8D3002073B50024C0
:102E84004FF0FF304FF0FF31164D174BC5F8084592
:102E9400C3E902014FF4803302264FF40012C5F84F
:102EA4000433124B0121C5F804631520C3F88021B3
:102EB4002246FEF7B3FE1520FEF792FE01230C4ACC
:102EC400AB602B6013600B4B0B4A0093204600232E
:102ED4000194FFF72FFF3046FFF776FA204602B041
:102EE40070BD00BF0050015020C6002000E100E08A
:102EF400ACD300202D2C0000FFFF7F00354B2DE9C3
:102F0400F743D3F8042391070BD5D3F8042142B136
:102F14000022C3F80421304AD3F804311368013382
:102F240013604FF02003EFF3118183F31288BFF392
:102F34006F8F284BD3F80423D2030DD5274AD2E848
:102F4400EF0F20F00104C2E8E54F002DF7D100286F
:102F540036D1D3F840219ABB002381F31188BFF303
:102F64006F8F53B3FFF7C4FE4FF02003EFF31187C5
:102F740083F31288BFF36F8F194BD3E90245A04244
:102F840071EB05024FF0000221D3D3E900164FF094
:102F9400FF384FF0FF391A604FF48032C3E90289D9
:102FA4000C4BC3F8482387F31188BFF36F8F21B10B
:102FB40022462B4600200096884703B0BDE8F083E4
:102FC4000022C3F84021D3F840310123C5E711465C
:102FD400E9E700BF00500150B0D30020A8D300207F
:102FE40020C60020431C13B520D0012820DDB0F5F5
:102FF400000F1FDA441EFFF77BFE0F4BD3E90013CB
:10300400401AB0F5000F28BF0024013002190B4804
:10301400824228BF024600205218094901900091BB
:1030240043F10003FFF786FE02B010BD0348E1E759
:103034000024E0E7014CDEE730C60020FFFF7F00FC
:103044002D2C000008B5FFF753FE024B1B68C01A75
:1030540008BD00BF30C60020012300F01F0003FAA2
:1030640000F0034B09B9D86070479860704700BFFF
:103074000025845010B500F48054002C1CBF00219E
:10308400012200F01F041B02C0F3811043EA8003F5
:103094000B4343EA4202024B803443F8242010BD20
:1030A400002584502DE9F743164605460127DFF82D
:1030B400148100EB81094D4503D1002003B0BDE824
:1030C400F0832C68220CC4F30323192A77D8DFE891
:1030D40002F00D1A214426384476767676495176E4
:1030E400767676767676767656646A7004F03F0461
:1030F400C6F80C452A6802F01F0207FA02F2C8F863
:103104000820012204E004F03F04C6F8144500221C
:10311400114611E004F03F04C6F80845EAE704F05C
:103124003F04C6F808452A68012102F01F0207FA85
:1031340002F2C8F80C2000222868FFF79BFF043530
:10314400B9E704F03F04C6F80C452A6802F01F02F0
:1031540007FA02F2C8F80C20D3E704F03F04C6F8DB
:103164001045D4E704F03F04C6F80845002B08BF17
:103174000623CCE704F03F04C6F80C45F6E704F058
:103184003F040193C6F860452868C0F3403100F05D
:103194003F00FFF761FF019BB3E704F03F04019395
:1031A400C6F86445F0E704F03F040193C6F86845A7
:1031B400EAE704F03F040193C6F86C45E4E76FF0D6
:1031C40085007BE70025845040EA0103C3F30E0326
:1031D40030B58BB940F21515094CC90BC0F3C73093
:1031E400994201D1002030BDC218D2B202F5C0729A
:1031F40044F822500133F3E76FF01500F3E700BF02
:10320400003000500348452108B502F04CFF00206F
:10321400FEF7B6FF6C7A000030B5816885B01039CE
:1032240021F00704054602F094FF10220146684687
:1032340002F0EBFF10226846064902F0DBFF102380
:103244006A462146284602F051FF003818BF012083
:1032540005B030BD0C70000030B50C46816887B0F5
:10326400102302AA1039054602F02BFF002802DAC7
:10327400012007B030BD1022284602A903F09CF9B2
:1032840090B303232370284603F0A7F901230146D2
:103294000DF10702284602F014FF0028E8DB9DF830
:1032A4000730284603F00F021B09627023710122C4
:1032B4000DF1070103F080F910B96378042B03D9E9
:1032C4000123637000232371AA682846183A22F068
:1032D4000702083AA11C03F09AF90028C8D128462D
:1032E400E11C03F0EEF9C4E71022044902A802F03D
:1032F40070FF002814BF02230123C3E70C700000F1
:103304002DE9F04385B006466946032003F0DFF952
:10331400054618B1FF2005B0BDE8F083092002A9D5
:1033240003F0D5F9012804463FD1324649212C48FF
:1033340002F0B9FE03238DF809408DF808308DF8AA
:103344000A308DF80B308DF80C5000229DF8005097
:103354009DF808609DF803709DF80B809DF802901D
:10336400204C2946207803F03EF918B331466078A2
:1033740003F039F9F0B1A378042B01D0BB4219D181
:10338400E378042B01D0434514D12379042B0FD1C6
:103394006379022B19D1144A1448492102F083FE9F
:1033A4006079831E022BB6D9B4E70028CDD0B1E7EB
:1033B4004B45EDD00132032A04F10604D1D10C4867
:1033C400492102F070FE0120A5E7032B05D0094A2C
:1033D4000949042B18BF0A46DEE7084ADCE700BFA8
:1033E400B17A0000247B0000957A0000FC7A00008A
:1033F4000F7B00008E7A00009F7A00009A7A00000A
:1034040008B54FF47F03D3F83021D3F83431BFF338
:103414004F8F092A01BF4FF050230022C3F8142113
:10342400C3F8182103F078F928B10122514BC3F8ED
:10343400382AC3F878254FF47F03D3F83021D3F822
:103444003431BFF34F8F092A05D1012B1EBF01224E
:10345400484BC3F8782503F05FF918B10E22464BA8
:10346400C3F8E42E4FF47F03D3F83021D3F834317A
:10347400BFF34F8F092A06D100223E4BC3F80C2715
:103484000122C3F810270022D30003F57F03D3F8E9
:103494000013BFF34F8F013108D0D3F8001301326A
:1034A400D3F80433B2F5807F0B60EDD1334BDA6986
:1034B400BFF34F8FD10743D5314BD3F80024012AF2
:1034C400FBD1C3F80425D3F80024012AFBD12B4BEC
:1034D400DA69BFF34F8FD2070AD5DA6922F0010205
:1034E400DA61BFF34F8F264AD2F80034012BFBD1A7
:1034F400224A136ABFF34F8F01330CD1136A23F0AE
:10350400FF0343F020031362BFF34F8F1C4AD2F82A
:103514000034012BFBD10022194BC3F80425D3F846
:103524000024012AFBD1BFF34F8F1649164BCA68FA
:1035340002F4E0621343CB60BFF34F8F00BFFDE79B
:103544001B6ABFF34F8F0133B6D00E4BD3F88C20D8
:1035540042F44062C3F88C20D3F8882042F470020D
:10356400C3F88820BFF34F8FBFF36F8F074B084A10
:103574001A6008BD0040005000A003500080FF0006
:103584000090035000ED00E00400FA0534C500206B
:103594000090D00370B501250268B2FA82F3C3F13A
:1035A4001F035E1CDCB210D005FA03F322EA030306
:1035B400D0E8EF6F964204D1C0E8EC3FBCF1000FB5
:1035C400F6D1E9D102480C7070BD0248FCE700BF97
:1035D4000000AD0B0200AD0B036810B5CB40DB0758
:1035E40011D4012303FA01F1036841EA0302D0E88C
:1035F400EF4F9C4204D1C0E8EC2FBCF1000FF6D190
:10360400F2D1024810BD0248FCE700BF0000AD0B38
:103614000400AD0B044B1A7922B9012218601A7107
:103624000248704702487047B4D300200000AD0B35
:103634000C00AD0B4FF05023D3F8002110B552B15C
:103644000020C3F80001D3F800210122C3F80823A5
:10365400114B1B6898474FF05023D3F804218AB1CB
:103664000022C3F80421D3F80421D3F81824D3F892
:10367400181402F00302012A4FF0020103D1C3F827
:1036840018159A6010BDC3F80813034B0120BDE858
:1036940010401B68184700BFB4D3002001460148FE
:1036A400FFF778BF38C50020064A00F01F0002EB80
:1036B4008000D0F8003223F4403343EA0141C0F8DB
:1036C4000012704700258450034B083033F8100073
:1036D400C0F34010704700BF3CC5002070B50D4CCE
:1036E40000F1080334F813300546DA050E4607D511
:1036F400C3F3432304EBC302526854F833309847AE
:10370400A3682BB131462846E268BDE870401847EB
:1037140070BD00BF3CC50020134A083032F8103099
:1037240010B4D9051CD5C3F3432123F4F85322F86C
:103734001030002002F1100434F8023B13F4807FAF
:1037440003D0C3F3432399420AD001302028F3D194
:10375400002306485DF8044B42F83130FFF73CBFC4
:103764005DF8044B704700BF3CC5002090C50020A5
:1037740038B50246FFF7A8FF0B4C02F1080560B10B
:10378400002134F815305B0B9B0003F1A04303F5D3
:103794005043C3F81015C3F810151046FFF7BCFFCB
:1037A400002324F8153038BD3CC500202DE9F34131
:1037B40004461D4609B34D4F00F1080837F8186058
:1037C400B30706D5FFF780FF18B1494802B0BDE83A
:1037D400F081484B04F01F0003EB8000D0F8003266
:1037E400097823F00F0326F0020643EA810346F02A
:1037F4000106C0F8003227F8186092B13B4B04F17F
:10380400080633F8161010788F0752680CD5002A72
:10381400DBD133F8162022F01C0242EA800023F8A0
:103824001600CDBB3448D1E721F02001C904C90CEE
:1038340023F81610002AECD00328C6D892F800C04A
:103844006246920002F1A04202F5504220B9C2F849
:103854001005C2F81005DCE7D2F8107541EA4C31C6
:1038640027F00307C2F81075D2F8107541F0200153
:1038740027F4473727F44077C2F81075D2F810E5DB
:10388400270207F4F8574EEA004E47EA0E07C2F83B
:10389400107523F81610BCE72046D5E90067FFF73A
:1038A4003BFF002EBED0114D2B689E4204D16B68A5
:1038B4009F4201D1002209E010480DF10701FFF7F2
:1038C40069FE0D4B984281D19DF8072005EBC20398
:1038D40008345F6035F8143045F8326043EA422317
:1038E40043F4807325F814309CE700BF3CC50020E6
:1038F4000400AD0B002584500000AD0B90C50020E2
:10390400F8B5044669B3374E00F1080736F8175086
:10391400AB0704D4FFF7D8FE08B13348F8BD15F05F
:103924001C0F4B7801D0012BF7D0304804F01F0C4A
:1039340000EB8C0CDCF8000291F800E05B0020F452
:10394400E160897843EA0E2320F00700034343EA49
:10395400810343F0010345F00305CCF8003226F857
:1039640017500AB92248D9E71E4E04F1080736F861
:1039740017008307D1D592F800C00023614620F0D8
:103984002000890001F1A041C00401F55041C00CA0
:10399400C1F8103526F81700C1F810355578002DF8
:1039A400E0D0D1F81035927823F4981323F4F85327
:1039B400C1F81035D1F810E5230203F4F8532D04AF
:1039C40043EA0E0305F4403512052B4302F480123A
:1039D40040EA4C30134340F02000C1F8103526F87B
:1039E4001700BFE73CC500200400AD0B0025845040
:1039F4000000AD0B014BC3E9020170473CC5002038
:103A040008B50246FFF760FE38B1054B083233F8BB
:103A1400123004485B0B0B7008BD0348FCE700BF81
:103A24003CC500200000AD0B0400AD0B38B50F4CB5
:103A340094F85850BDB94022294604F1100002F010
:103A4400E4FB0D20FEF7CCF8094B0A48C3F87C517F
:103A5400D3F87C214FF00042C3F80423012384F8F7
:103A64005830636538BD0448FCE700BF3CC50020FE
:103A740000D000500000AD0B0500AD0B034B93F8D4
:103A84005800003818BF0120704700BF3CC5002013
:103A940001460148FFF7A0BD8CC50020014601483E
:103AA400FFF778BD8CC50020024610B5FFF70CFE69
:103AB4001C4B02F1080433F81430E0B113F0020493
:103AC40019D15B0B9A0002F1A04000F5514002F1BC
:103AD400A042046002F550420068D2F8100540F09C
:103AE4000100C2F8100529B1012202FA03F30E4ABB
:103AF400C2F8043310BDC3F38203042B0ED0052B8C
:103B04000ED00A4B196902F01F03D94001F00101DC
:103B140002311046BDE81040FFF7C6BD0321F8E7A7
:103B24000221F6E73CC5002000D000500025845057
:103B340008B50246FFF7C8FDC0B10F4B02F10801FA
:103B440033F81130990711D401225B0B9A400B49C9
:103B54009B0003F1A043C1F8082303F55043D3F8B5
:103B6400102522F00302C3F8102508BD0021BDE88A
:103B740008401046FFF798BD3CC5002000D0005017
:103B84000C4B00F1080233F8123010B5DB07044681
:103B94000DD5FFF7CDFF2046FFF7EAFD0222064BC5
:103BA40004F01F048034054843F8242010BD044861
:103BB400FCE700BF3CC50020002584500000AD0B8D
:103BC4000400AD0B2DE9F04F002501222C464D4B8E
:103BD4004D484E4985B01E6836B1D0F8046316428C
:103BE4001EBF1C601E68154304338B424FEA420219
:103BF400F1D1454FD7F87C3193B1454E336A0393E5
:103C040033624FF001090DF10C08039850B9C7F85D
:103C14007C01D7F87C31336A03933362002BF0D1F3
:103C2400012469E090FAA0FABAFA8AFA394A0AF148
:103C3400080332F813104FEADA0C0AF0070309FA02
:103C440003F418F80C30C1F3820223EA040308F8E1
:103C54000C3006EB8A03D3F80042C8069346C4F33B
:103C6400014418D5114650460193FFF737FD019BD7
:103C7400E4B2D3F80032C3F301439C4207D10021DC
:103C84005046FFF711FD21465046FFF70DFD09FA96
:103C94000AF03062B9E7022C0CBF0321022150461E
:103CA4000192FFF701FD019A032A04D0022C07D1E7
:103CB400BBF1010FEBD159465046FFF70FFDE6E784
:103CC400032CE4D1BBF1020FF4E795FAA5F3B3FAA0
:103CD40083F304FA03F29B0003F1A04303F550437A
:103CE400D3F81005D3F81015C0F30420C1F3014133
:103CF40025EA0205FFF7F2FC002DE6D105B0BDE888
:103D0400F08F00BF00D1005000D0005020D10050EF
:103D1400002584503CC500200022034BC3F88425B1
:103D2400C3F80425704700BF00900350044AD2F83A
:103D34000834DB07FBD50160BFF35F8F704700BF1A
:103D44000090035008B5C0F30B0383B90222094B5A
:103D5400C3F88425C3F804254FF0FF320260D3F87A
:103D64000024D207FBD5FFF7D7FF034808BD03485B
:103D7400FCE700BF009003500000AD0B0A00AD0B40
:103D8400012208B5054BC3F88425C3F80425FFF7C1
:103D9400CDFFBDE80840FFF7BFBF00BF0090035050
:103DA4000E4B70B553F82040013053F82060A64202
:103DB40000D870BDD4E900352846984765B1EB6852
:103DC40030B10028B8BF4042FF28A8BFFF201870B8
:103DD4005A7842F001025A700834E8E7706E000025
:103DE40073B504460D464FF02003EFF3118683F3B9
:103DF4001288BFF36F8F0022042896BF114B124B19
:103E040053F82030009245210246104802F04BF945
:103E14003DB1EB69C3F308031BB145210C4802F023
:103E240042F900220B4B45210B4802F03CF929468C
:103E34002046FFF7E7F986F31188BFF36F8F02B0CE
:103E440070BD00BF846E0000367B0000447B000020
:103E5400717B0000977B00009F7B0000012208B566
:103E6400084B02201A70FFF79BFF00F007F90320AC
:103E7400FFF796FFFCF7D2FA034A137B23F0010302
:103E8400137308BDDDD4002038C6002008B50348EC
:103E9400034A0021121A02F003FD08BD18C60020CF
:103EA400E0D4002008B5174B03F5006282F30888BC
:103EB40083F30A880025E023134C84F82230E57745
:103EC40025766576A57684F82050636A43F4E0236A
:103ED400636284F82350FEF701F9FDF735FE4FF0D5
:103EE400FF33A362E36202F0D0FC2846FFF758FFD9
:103EF4000120FFF755FF2B462A4629460348FDF7C4
:103F0400E5FE00BFE0FC002000ED00E0613E0000A3
:103F140008B50648064A0749121A02F0C3FCBDE870
:103F24000840054A0549064802F0BCBCE8C4002024
:103F340014C60020407C000000000000407C00000B
:103F4400E8C40020034B1B680BB9FFF77BB80020C3
:103F5400704700BFBCD300200D4B10B51C689C42B9
:103F640008BF0024FFF7EEFF74B1D4E904321B1A32
:103F740062EBE070B3F1004F70F1000204DA002844
:103F8400ACBF1846002010BD6FF00040FBE700BF37
:103F940098C5002030B5036868B10A4A5268904257
:103FA40009D043B1D3E90421D0E90445121941EB06
:103FB4000501C3E90421426813605A600023C0E983
:103FC400003330BD98C500202DE9F8434FF020039D
:103FD400EFF3118583F31288BFF36F8F244FDFF85B
:103FE4009880244E3860D8F800003B6840454FEA7A
:103FF400E371D6E9002E0BD050B1D0E9044CA342B2
:1040040071EB0C0916DAE41A6CEB010CC0E9044CF0
:1040140000249B184EEB0101C6E900313C60FFF718
:104024009BFF2146FEF7DEFF85F31188BFF36F8FF8
:10403400BDE8F883A2184EEBE4710023C6E9002121
:104044000022C0E90423FFF7A5FF85F31188BFF31D
:104054006F8F836898474FF02003EFF3118583F344
:104064001288BFF36F8F3B681B1B3B60BBE700BF2D
:10407400BCD30020B8C6002098C50020024A0349DA
:10408400034801F056BF00BF967B0000097C000086
:10409400167C000010B50A4C23681BB101230020D4
:1040A400236010BD00F050F80028F7D0013806282E
:1040B40003D8044B53F8200010BD034810BD00BFC3
:1040C400C0D30020986E0000FE8FFFFFBFF34F8F18
:1040D4000549064BCA6802F4E0621343CB60BFF3A0
:1040E4004F8F00BFFDE700BF00ED00E00400FA05BC
:1040F40030B44FF0FE320025074B084C084949689C
:10410400C3F80024C3F80424C3F80824C3F80C2417
:10411400C4F8005530BC0847001084500000845097
:10412400A0C50020024BD0E90012C3E90012704779
:10413400A0C5002038B131B100220144034601304A
:1041440088421A70FAD1704738B500F02FF820B1C0
:10415400032400F063F8204638BD00F031F898B924
:1041640000F0ACF898B90F4DD5F828391B0EF02B98
:1041740008D1D5F8242A0C4B9A420AD0072400F01F
:1041840017F8E6E70624FAE70424204638BD00249D
:10419400F5E7012000F092F804460028F7D1C5F8AD
:1041A4000C0AD8E7001084500000E020002070477B
:1041B40000207047014BC3F8040A70470010845074
:1041C40010B5114800F048F800B110BD0F4800F0D8
:1041D40043F80028F9D10E4C204600F03DF80028A1
:1041E400F3D10C4B0C481C6000F036F80146002853
:1041F400EBD100F02DF8044608B1204610BD00F0C4
:104204003FF82046FAE700BFB4C50020A8C5002047
:10421400B0C50020B8C50020ACC5002008B50848CA
:1042240000F024F8074800F021F8074800F01EF8D1
:10423400064800F01BF8BDE8084000F00BB800BFCA
:10424400B4C50020A8C50020B0C50020ACC500201E
:1042540000207047704700BF08B5034B02681B6815
:1042640010689847002008BDC4C5002008B5034B5A
:1042740002685B6810689847002008BDC4C5002028
:1042840070B5094C094D2069AB68984718B1084BC3
:1042940008485B6898470021074AEB681160206969
:1042A400BDE87040184700BFD4C50020C4C5002035
:1042B400A0C50020B46E0000C4D30020F8B51A4D88
:1042C4001A4E0446B26828699047E8B9184F3B680B
:1042D4004CB1A3B1012B19D0013B3B602869F368B1
:1042E40098470020F8BD43B90121124AC2F80015CD
:1042F4001149D1F81029002AFBD101333B60F3683E
:10430400286998470020F8BD0C48F8BD0A4AD2F83D
:104314001039002BFBD1074A6FF07E40C2F80035FC
:10432400FFF748FF3B68D7E7D4C50020C4C5002089
:10433400C4D300200000845000108450E98FFFFF94
:1043440010B5044630B16368DB0602D50023236050
:10435400636010BD024B03485B689847F3E700BFF6
:10436400A0C50020D46E0000B0B1436893B1DB0651
:104374000ED5012350E8002F194640E8001C9CF09C
:10438400000FF7D1012AF5D0BFF35F8F00207047EB
:1043940003487047034870476FF4E040704700BF1C
:1043A400E98FFFFFEA8FFFFF034668B142683AB125
:1043B400D20607D5BFF35F8F002210461A607047FC
:1043C40003487047034870476FF4E040704700BFEC
:1043D400EA8FFFFFE98FFFFF10B5044620B10022EA
:1043E40011232260636010BD0148FFF781FEF6E7E8
:1043F400FC6E000030B10268034B04489A4208BFC7
:104404000020704702487047DD55AABB8208F000BF
:104414007108F00038B50D460446B0B1A022002161
:10442400043002F064FA95B10822294604F16400CC
:1044340002F063FA082205F1200104F1840002F07D
:104444005CFA0020034B236038BD0348FCE70348B3
:10445400FAE700BFDD55AABB7108F0008308F0003D
:104464002DE9F74305460E4699461146FFF7C2FF6C
:104474000446002840F08480002E00F08580002946
:1044840000F08480B9F1200F40F0828005F14404EB
:10449400082205F10408204602F02FFA05F124074A
:1044A40008223146404602F028FA06F1200108228B
:1044B400384602F022FA02A941F8049D4FF48070B4
:1044C40002F00FFA002865D14FF48073324A0121BB
:1044D400136093600823314A00F034FB0121052363
:1044E40008462F4A00F02EFB0823424601211C20D7
:1044F40000F028FB08233A460121032000F022FBA8
:10450400224608230121022000F01CFB0823254A2F
:1045140001211A2000F016FB0523234A01211B2048
:1045240000F010FB0823214A0121142000F00AFBAB
:1045340008231F4A0121152000F004FB082305F17C
:1045440064020121162000F0FDFA082305F184021B
:104554000121172000F0F6FA0823164A01210B2046
:1045640000F0F0FA00F04AFB0446019800F0D8FA93
:10457400114B002C18BF1C46A421284602F0B9F99F
:10458400204603B0BDE8F0830C4CF9E70C4CF7E788
:104594000C4CF5E7084CEFE790108450606F000076
:1045A400D86F0000206F0000C46F0000846F00000B
:1045B400A46F0000406F00008408F0007608F0004B
:1045C4008008F0008108F000C2690C4B1A6082690F
:1045D40043F8042C426943F8082C026943F80C2C74
:1045E400C26843F8102C826843F8142C426843F8DC
:1045F400182C026843F81C2C704700BF5C168450CA
:104604000C4B1B68C3610C4B1B6883610B4B1B6811
:1046140043610B4B1B6803610A4B1B68C3600A4B65
:104624001B688360094B1B684360094B1B6803606C
:10463400704700BF5C16845058168450541684503A
:10464400501684504C168450481684504416845096
:104654004016845030B10268034B04489A4208BFA4
:104664000020704702487047DD55AABB0202F000E3
:104674000002F00038B5044668B1051D70212846D3
:1046840002F037F928462022044902F02EF90020CE
:10469400034B236038BD0348FCE700BFEC6F000008
:1046A400DD55AABB0002F0002DE9F04385B01546A4
:1046B4006F46274B04460E460FCB87E80F002DB9F3
:1046C4004FF00009484605B0BDE8F0832046FFF7E7
:1046D400C1FF81460028F5D1231D0193636AA3BB62
:1046E400236F8BB1C3F14008A84528BFA84604F145
:1046F400300031461844424602F0F7F8236F46442E
:1047040043442367A5EB0805226F402A06D104F130
:104714003001384600F0B4FB0023236705F03F085E
:1047240035F03F0505D031462A46384600F0A8FB4F
:104734002E44B8F1000FC3D04246314604F1300094
:1047440002F0D3F8C4F87080BCE7DFF80890B9E74A
:10475400506C00000C02F0002DE9FF4104466F4646
:10476400134B0E460FCB87E80F002046FFF772FF6E
:104774008046B0B9CEB1636A251D01953BB90123CA
:10478400226F636204F13001384600F079FB2B4656
:10479400043E243453F8042B12BAA34246F8042FDF
:1047A400F8D1404604B0BDE8F081DFF80880F8E7AE
:1047B400506C00000502F000084B1B681B0EF02B28
:1047C40008D1074B1A68074B9A4205D10020064BC3
:1047D40018607047052070470620704728198450D8
:1047E400241A84500000E0200C1A8450002230B5B2
:1047F400134640F6FC754900023802F1A15404F551
:10480400823490424FEA840402F10102CABF236059
:1048140025605B181E2AF0D1034A13600B445360D1
:10482400024B034A1A6030BD7810845084108450BF
:1048340020F80F001E4B30B51A4685B01968009158
:104844000099CC07FAD500F1A15000F58230800020
:10485400016813680193019BD807FAD5154B164CD0
:10486400186820231F3090FBF3F0144D0138002802
:1048740010DA00230130400153B14FF00042A0F19F
:104884002001134204D1013888424FEA5202F8D180
:1048940005B030BD13680393039BDB07FAD54318B7
:1048A40023602B680293029B002BE3D10138DEE7DF
:1048B400B4108450AC108450E4108450DC10845044
:1048C400F0B51D6885B001F01F040DB91F2C28D167
:1048D400174D2E462F680197019FFF07FAD500F167
:1048E400A15000F582308000006835680395039D6F
:1048F400ED07FAD51F2C00EB611018BFC9430D4D0D
:1049040018BF01F01F0128600B480068029002984C
:104914001CBF00FA01F111604FF0000108BF1060E4
:10492400196010684300C00F136005B0F0BD00BFEC
:10493400B4108450E4108450DC1084500C4B890172
:1049440018603F3020F03F004030586099600948BB
:10495400D9601961596199611C3382B01960026888
:104964000192019AD207FAD5196002B0704700BFCC
:1049740090108450B410845038B5A0F12003B3F5DE
:10498400426F05462CD88F2826D800F1470300F142
:104994006604DB064FEA541400D0013464013F344A
:1049A400A409013411B1A1421AD30C464FF480502A
:1049B400E300B0FBF3F0202828BF202002B11060F0
:1049C4000122084B21461A60FFF710FF28462146B2
:1049D400FFF7B4FF002038BD00F11F046409DDE7D0
:1049E4000148F8E71C1884502221F000464BF0B52A
:1049F4001D4689B01C680194019CE407FAD5434B19
:104A0400002413449B001A680B181E2B88BFC0F1A6
:104A14001E011F320B1852095343B3F5806F84BF34
:104A24004FF48061B1FBF2F1274688BF091ADFF821
:104A3400E4E000F1A150DFF8E0C000F58230A142CB
:104A440033DC2B680493049BDB07FAD5304B1B68DB
:104A5400296805910599CF07FAD52E4C2E49236074
:104A640000231E46934203F1010040D1194600265B
:104A740020F0010228488A423CD829680691069908
:104A8400CE07FAD525490968286807900798C00712
:104A9400FAD5216000210C461F488B422DD10020FD
:104AA4001D499A422CD809B0F0BD2B680293029B91
:104AB400DB07FAD503199B001B682E680396039E37
:104AC400F607FAD5CEF800300023934203F1010330
:104AD40006D1164623F00103B34204D80134AEE7ED
:104AE400CCF80070F1E7CCF800700136F4E70E6002
:104AF4000346B7E706600131BDE704600131CCE746
:104B040008600133CDE700BFB4108450240421149D
:104B14007C108450D4108450D81084507810845061
:104B240008B540B1202801464FF0070228BF2021D4
:104B34000020FFF75BFF0022014B1A6008BD00BF95
:104B44001C188450F0B5294D85B02C462E6800966B
:104B5400009EF607FAD500F1A15000F582308000DE
:104B64000568206801900198C707FAD52048214FAD
:104B7400056002EB8306B24229D100275A1C1D4E60
:104B840022F001029A4227D823680293029BDE078F
:104B9400FAD5194B0B449B001B681F335B099A42DF
:104BA40013D2216803910399C907FAD5002115444A
:104BB400056008469B1A0F4A8B4210D800205A1CE5
:104BC4000C4922F001029A420CD805B0F0BD52F80B
:104BD40004CBC7F800C0CEE737600133D2E71060DA
:104BE4000131E9E708600133EDE700BFB4108450F8
:104BF400D4108450D8108450240421142DE9F04199
:104C0400814BA0B01D68986820331E461A68019233
:104C1400019AD707FAD57D4B7D4A1A603268029211
:104C2400029AD407FAD57B4A1A607B4A1446116863
:104C340003910399C907FAD5784A1168C1F3402151
:104C440037680497049FFF07FAD5754F1F602768DC
:104C54000597059FFF07FAD51768002900F0CF8054
:104C6400B90540F1CC80316806910699CF07FAD591
:104C74006C491960216807910799C907FAD5116829
:104C8400C1F3402137680897089FFF07FAD5664F9C
:104C94001F6027680997099FFF07FAD51268002942
:104CA40000F0AF80910540F1AC8032680A920A9A14
:104CB400D207FAD5564A1A6032680B920B9AD70774
:104CC400FAD55A4A1A6031680C910C99CC07FAD576
:104CD4005749196031680D910D99C907FAD555499D
:104CE400196031680E910E99CF07FAD552491960AF
:104CF40031680F910F99CC07FAD550491960504B80
:104D04001E46196810911099C907FAD53F4C4D4BAE
:104D1400236033681193119BDB07FAD54A4B236058
:104D240033681293129BDF07FAD5484B23603A4B42
:104D34009846196813911399C907FAD5324F386008
:104D440033681493149BDB07FAD5226033681593F8
:104D5400159BD807FAD53E4B236033681693169BF0
:104D6400D907FAD53B4B236033681793179BDA07AF
:104D7400FAD5394B236033681893189BDB07FAD5AF
:104D8400364B236033681993199BD807FAD5344BF3
:104D9400236033681A931A9BD907FAD5314B2360E1
:104DA40033681B931B9BDA07FAD52F4B236000F063
:104DB4001DFC08BBD8F800301C931C9BDB07F9D5FD
:104DC4003D6033681D931D9BD907FAD5274B23609B
:104DD40033681E931E9BDA07FAD5254B2360D8F857
:104DE40000301F931F9BDB07F9D50C4B1B6813F492
:104DF400805F204B08BF184620B0BDE8F0811E48F4
:104E0400FAE71E48F8E700BF9010845080108450E1
:104E140000100251C01F7229B410845088108450AD
:104E2400C0CF0129C01F0E29C03F002940010249FB
:104E3400003184A800001649400108A18044088874
:104E4400B0108450C044708880077A41C0077E4106
:104E540000006A498006164940006E49000200219C
:104E640000822021408220218082242140A161A14E
:104E740000C861510308F1000108F1000208F100C3
:104E8400324B2DE9F74F80469246994644681A689A
:104E9400002AFCD12E4B9B461A68002AFCD14FF005
:104EA400FF30019100F094FC802000F097FC012376
:104EB4000720284A284DA2F59E722B60C2F83C01B7
:104EC4001360636A254F264E3B60A36A2046336015
:104ED400D8F8003042F8043CD8F8083098470199D3
:104EE400D9F80030002BFBD1BAF1000F20D10422F5
:104EF4001C4B1A60D9F80030002BFBD1DBF800A062
:104F0400BAF1000FFAD1D8F80C30204698473B6824
:104F140063623368A362144BC3F800A0C3F844A1CE
:104F2400D9F80030002BFBD12B6003B0BDE8F08F23
:104F3400236A4020012B04BF0B4A13600B4B1960FA
:104F4400C3F804A000F050FCD4E700BF101984504B
:104F5400201C84500019845018188450CC17845095
:104F6400D0178450C817845084168450281C845049
:104F7400544B10B5194698B01A680192019AD20799
:104F8400FAD5514B514A1A600A680292029AD40720
:104F9400FAD54F4A1A600A680392039AD007FAD5E1
:104FA4004C4818600A680492049AD207FAD54A4A0F
:104FB4001A600A680592059AD407FAD5474A1A6016
:104FC4000A680692069AD207FAD5454A1A600A6810
:104FD4000792079AD407FAD5424A1A600A680892D7
:104FE400089AD207FAD5404A1A600A680992099ABF
:104FF400D407FAD53D4A1A600A680A920A9AD20777
:10500400FAD53B4A1A600A680B920B9AD407FAD570
:10501400384A1A600A680C920C9AD207FAD5364AB2
:105024001A600A680D920D9AD407FAD5334A1A60A9
:105034000A680E920E9AD207FAD5314A1A600A68A3
:105044000F920F9AD407FAD52E4A1A600A68109262
:10505400109AD207FAD52C4A1A601A4B19461C68C2
:105064001194119CE407FAD5174B18600868129044
:105074001298C407FAD51A600A681392139AD007D3
:10508400FAD5124A1A600A681492149AD207FAD509
:105094001E4A1A600A681592159AD407FAD51C4A52
:1050A4001A600A681692169AD007FAD5194A1A6035
:1050B4000A681792179AD207FAD5174A1A6018B0D5
:1050C40010BD00BFB010845080108450009365213F
:1050D40000043190409665900083612100C3302123
:1050E40000C3649000816190004610210081112169
:1050F4000041442100C320290C4610C800863121F8
:1051040000C3602140C128294096652100133190D5
:1051140040962529594614C840043249494B10B5D4
:10512400194694B01A680092009AD207FAD5464BF1
:10513400464A1A600A680192019AD407FAD5444A89
:105144001A600A680292029AD007FAD54148186098
:105154000A680392039AD207FAD53F4A1A600A688A
:105164000492049AD407FAD53C4A1A600A68059254
:10517400059AD207FAD53A4A1A600A680692069A3C
:10518400D407FAD5374A1A600A680792079AD207F1
:10519400FAD5354A1A600A680892089AD407FAD5EB
:1051A400324A1A600A680992099AD207FAD5304A33
:1051B4001A600A680A920A9AD407FAD52D4A1A6024
:1051C4000A680B920B9AD207FAD52B4A1A600A681E
:1051D4000C920C9AD407FAD5284A1A600A680D92E0
:1051E4000D9AD207FAD5264A1A600A680E920E9AC8
:1051F400D407FAD5234A1A600A680F920F9AD20785
:10520400FAD5214A1A600F4B19461C681094109C59
:10521400E407FAD50C4B1860086811901198C4077C
:10522400FAD51A600A681292129AD007FAD5174A68
:105234001A600A681392139AD207FAD5144A1A60AC
:1052440014B010BDB010845080108450809065213B
:105254000004099040966590808061218020082197
:10526400802064900081619000461021008111210A
:105274000041442180202029024610C800860921CB
:1052840080206021402128294096652140962529C7
:10529400594614C8504B10B51C4696B01A68019272
:1052A400019AD207FAD54D4B4D4A1A6022680292F0
:1052B400029AD207FAD54B4A1A604B4A42EA804016
:1052C40022680392039AD207FAD5186022680492DE
:1052D400049AD007FAD5454A1A60A2F5800242EA38
:1052E400814122680592059AD207FAD5196022688D
:1052F4000692069AD007FAD53D4A1A6022680792A8
:10530400079AD107FAD53B4A1A6022680892089A8C
:10531400D207FAD5384A1A6022680992099AD00746
:10532400FAD5364A1A6022680A920A9AD107FAD53F
:10533400334A1A6022680B920B9AD207FAD5314A83
:105344001A6022680C920C9AD007FAD52E4A1A6079
:1053540022680D920D9AD107FAD52C4A1A60226858
:105364000E920E9AD207FAD5294A1A6022680F9231
:105374000F9AD007FAD5274A1A602168109110991C
:10538400C907FAD51A60144B1A4619681191119974
:10539400C807FAD5114B2049196011681291129966
:1053A400C907FAD51D491960116813911399CC07DF
:1053B400FAD50B491960116814911499C807FAD5E4
:1053C40017491960116815911599C907FAD5154A35
:1053D4001A6016B010BD00BFB01084508010845005
:1053E4004004419000862929D81001C840144190F6
:1053F40040142129401465210034409000310C9060
:10540400C0400C90C030202940960D90004160901F
:10541400031645C80086112100416021594644C83D
:105424004014459040142D90264870B5054688B028
:1054340004680094009CE607FAD5234C23480460D2
:10544400234C44EA83432C680194019CE407FAD575
:105454000360930143EA824242F0104444F4C0449E
:105464002B680293029BDE07FAD504602B68039332
:10547400039BDB07FAD5174B03608B0143EA814199
:1054840041F0104343F4C0432E680496049EF6078B
:10549400FAD503602B680593059BDE07FAD50460F3
:1054A40041F058412B680693069BDC07FAD501604E
:1054B40042F058422B680793079BDB07FAD502603A
:1054C40008B070BDB0108450C021022980108450EF
:1054D4008071009880611890354B8EB019461A6817
:1054E4000092009AD207FAD5324B334A1A600A68FE
:1054F4000192019AD007FAD5304A1A600A680292DA
:10550400029AD207FAD52E4A1A600A680392039ABD
:10551400D007FAD52B4A1A600A680492049AD20773
:10552400FAD5294A1A600A680592059AD007FAD56D
:10553400264A1A600A680692069AD207FAD5244ABD
:105544001A600A680792079AD007FAD5214A1A60A6
:105554000A680892089AD207FAD51F4A1A600A689C
:105564000992099AD007FAD51C4A1A600A680A9265
:105574000A9AD207FAD51A4A1A6008680B900B984F
:10558400C007FAD51A600A680C920C9AD007FAD5AB
:10559400144A1A600A680D920D9AD207FAD5124A73
:1055A4000E211A6000200D230F220EB0FFF73CBF1E
:1055B400B010845080108450804301294063392105
:1055C400807001298020542100D13490C04034904F
:1055D400C0302029C0530D9000413890832308C85F
:1055E40080E3102100413821CF4308C801232DE96D
:1055F400F04192B0CDE90333624B1D461A6805921F
:10560400059AD207FAD5604B604C2360604B19466B
:105614001A680692069AD707FAD55E4B1A68D6041A
:1056240000F1A8802A680792079AD007FAD55A4A47
:1056340022600A680892089AD207FAD51E68C6F34F
:105644000036002E40F098801220FFF7F3F807464A
:105654001320FFF7EFF887428CBF12201320FFF7C7
:10566400E9F8471EFFF738FF03AB01AA39461220B9
:10567400FFF726F904AB804602AA39461320FFF748
:105684001FF900EB4800022832D003283ED001283D
:1056940074D12B680993099BDB07FAD53F4B236030
:1056A4002B680A930A9BD807FAD53D4B23602B68D5
:1056B4000F930F9BD907FAD53A4B23602B681093AD
:1056C400109BDA07FAD5384B23602B681193119B92
:1056D400DB07FAD5354B2360013F25D5102319226A
:1056E40018210020FFF7A0FE304612B0BDE8F0817B
:1056F4002B680B930B9BD907FAD52D4B23602B6892
:105704000C930C9BDA07FAD52A4BCFE72B680D9341
:105714000D9BDB07FAD5284B23602B680E930E9B59
:10572400D807FAD5254BC1E703AB01AA39461220A5
:10573400FFF7C6F804AB044602AA39461320FFF764
:10574400BFF810EB440402D1FFF712FCC4E7FFF7E3
:10575400E5FC022C08D0032C09D0012C10D1172110
:105764001620FFF797FDB7E715211420F9E70F215D
:105774000E20F6E7124EB7E7124EB5E7124EB3E726
:10578400124EB1E7B010845000084A518010845082
:10579400B41084508810845000084E5100065A49B1
:1057A40040065E49000442410014424940042E4927
:1057B400000652494006564900063A4940063E4909
:1057C4000608F1000708F1000408F1000508F100DB
:1057D400014B1860704700BF081A8450014B1860D1
:1057E400704700BF041A8450034A13681842FCD05F
:1057F400024A106018467047001A8450081A8450F0
:10580400704729B1012914BF6FF0150009207047B2
:10581400032070470020704770472DE9F7430E4678
:1058240017469946044628B94FF0FF38404603B05E
:10583400BDE8F0830029F7D0002AF5D0CB680D89A4
:1058440038461D44042329460DEB030200F039FCBD
:1058540080460028E8D146F60812BDF80410738982
:10586400914223D1BDF806109942DDD10423384674
:105874000DEB0302294400F024FC0028D4D146F6A1
:105884000713BDF804209A42CED19DF82830BDF804
:105894000620A3727389C4E900672B44E3600435CE
:1058A4001344A4F8089063612561BFE7002BE6D098
:1058B400BAE72DE9F7430F4690461E46044620B941
:1058C4004FF0FF3003B0BDE8F0830368002BF7D03E
:1058D4004368002BF4D04FF6FF79D4E904239A42AD
:1058E40016D223685B8923B1E368934204BF04336F
:1058F40023610423216960680DEB030200F0E1FBDE
:105904000028DDD1A37A256923B1E368AB4201D82D
:105914000120D7E72189BDF80620494502F1040397
:1059240003D0BDF804C08C450BD116B1BDF80410EA
:10593400318004353D60A8F80020226913442361B6
:10594400C0E72B442361C8E773B50C4606461146ED
:105954000223204601AA00F03FFA0546E8B9019A5D
:105964001F2A0ED9A2F120013046202223681944AF
:1059740000F040FC2368019A13442360284602B0D7
:1059840070BD0146C2F12002304600F03EFC019A8F
:105994002168C2F120003044EAE76FF00205EDE728
:1059A40000F017BC4FF4C0735843303070470B7885
:1059B400032B06D0092B0CBF4FF4C0704FF0FF30FF
:1059C40070474FF4C070704710B5044600F0BAFB3E
:1059D4004FF4C072A368303B02FB103010BD8168E5
:1059E4000122183921F00701083900F059BE13B516
:1059F4000446019100F0F1FD0423A0F108010DEB30
:105A04000302204600F020FE02B010BD73B5134619
:105A140001920E46024600210546FBF78DF9044625
:105A240050B901212846019B05F12C02FBF784F9AA
:105A340010B1002E18BF0446204602B070BD73B5E5
:105A4400054600200C461646FFF7DBFE6946C0B249
:105A5400FCF71CF830BB2C2101FB04542189E368BA
:105A64000098CD18042329460DEB030200F029FB0E
:105A7400C0B946F60813BDF8042064899A4216D1C9
:105A8400BDF806309C420DD1042300980DEB0302AF
:105A9400611900F016FB28B946F60713BDF8042077
:105AA4009A4207D0009800F00BFB02B070BD002CA6
:105AB400F2D0F7E7BDF80610214429443160F1E73C
:105AC40037B580250446426A01A903200195FCF7F5
:105AD40005F858B9019B0920226DA36201A901951B
