:100000008816012019320000DF860000ED31000063
:10001000ED310000ED310000ED310000ED31000068
:10002000000000000000000000000000492D00005A
:10003000ED31000000000000B52C0000ED310000A3
:10004000ED2D0000ED2D0000ED2D0000ED2D000048
:10005000ED2D0000ED2D0000ED2D0000ED2D000038
:10006000ED2D0000ED2D0000ED2D0000ED2D000028
:10007000ED2D0000ED2D0000ED2D0000ED2D000018
:10008000ED2D0000ED2D0000ED2D0000ED2D000008
:10009000ED2D0000ED2D0000ED2D0000ED2D0000F8
:1000A000ED2D0000ED2D0000ED2D0000ED2D0000E8
:1000B000ED2D0000ED2D0000ED2D0000ED2D0000D8
:1000C000ED2D0000ED2D0000ED2D0000ED2D0000C8
:1000D000ED2D0000ED2D0000ED2D0000ED2D0000B8
:1000E000ED2D0000ED2D0000ED2D0000ED2D0000A8
:1000F000ED2D0000ED2D0000ED2D0000ED2D000098
:10010000ED2D0000ED2D0000ED2D0000ED2D000087
:10011000ED2D0000ED2D0000ED2D0000ED2D000077
:10012000ED2D0000ED2D0000ED2D0000ED2D000067
:10013000ED2D0000ED2D0000ED2D0000ED2D000057
:04014000ED2D0000A1
:1001440053B94AB9002908BF00281CBF4FF0FF313A
:100154004FF0FF3000F00CB8ADF1080C6DE904CE9F
:1001640000F008F8DDF804E0DDE9022304B070478C
:10017400704700BF2DE9F04F099E88468E4615460C
:1001840004461946002B40F0C6804245B2FA82F775
:1001940046D94FB1C7F1200C08FA07F3BD40BC4063
:1001A40020FA0CFC4CEA030E4FEA15481FFA85FCB2
:1001B400220CBEFBF8F908FB19E309FB0CFA42EA2E
:1001C40003439A4528D9EB1809F1FF3004D29A4524
:1001D40002D9A9F102002B44A3EB0A03A4B2B3FB96
:1001E400F8F208FB123302FB0CFC44EA0344A44576
:1001F40014D92C1902F1FF3303D2A44501D9931E5B
:100204002C44A4EB0C0443EA00401EB1FC40002340
:1002140034607360BDE8F08F4846DDE71346F0E7CD
:1002240002B9FFDE8FBBA8EB020301214FEA154E92
:10023400AAB2200CB3FBFEFC0EFB1C330CFB02F831
:1002440040EA0343984562D9EB180CF1FF3004D21D
:10025400984502D9ACF102002B44A3EB0803A4B2E5
:10026400B3FBFEFC0EFB1C330CFB02F244EA03441A
:10027400A2424ED92C190CF1FF3304D2A24202D966
:10028400ACF102032C44A41ABDE7C7F1200CBD4015
:1002940008FA07F3BC4028FA0CF94FEA154E20FA85
:1002A4000CFC4CEA0302ABB2B9FBFEFC110C0EFBD6
:1002B4001C900CFB03F841EA0040804523D9281820
:1002C4000CF1FF3104D2804502D9ACF1020128447B
:1002D400A0EB080092B2B0FBFEFC0EFB1C000CFB72
:1002E40003F842EA004398450FD9EB180CF1FF32AA
:1002F40004D2984502D9ACF102022B44A3EB0803C3
:1003040042EA014192E76146E2E76246F6E7604667
:10031400A3E76346B7E7434505D90EB1C6E900082C
:100324000021084676E7B3FA83FCBCF1000F10D134
:10033400434501D382420AD8841A68EB030301209F
:100344009E46002E68D0C6E9004E002162E7604652
:10035400F7E7CCF1200E03FA0CF302FA0CF500FADD
:100364000CF722FA0EF428FA0EFB20FA0EF11C43C5
:1003740008FA0CF34FEA14491943A3B20A0CBBFB65
:10038400F9F809FB18BB08FB03FA42EA0B42924551
:100394003ED9A21808F1FF3004D2924502D9A8F13F
:1003A40002002244A2EB0A0289B2B2FBF9F809FB6B
:1003B400182208FB03F341EA024293422AD9A21805
:1003C40008F1FF3104D2934202D9A8F10201224478
:1003D40041EA0040D21AA0FB059842454B464146EB
:1003E40002D306D14F4504D20138B9EB050368EBBB
:1003F40004018EB1FC1A62EB010707FA0EFE24FA1F
:100404000CF327FA0CF74EEA0303C6E900379CE71E
:100414004046C7E74146DBE73146FBE608B50B48F3
:1004240008F05DFE28B9BDE808404521084807F0FA
:1004340026BE4FF40031074807F06DF9BDE80840C7
:1004440000220321014807F056B900BF6894000058
:10045400689B0000689700002DE9FF41594B5A4AF8
:100464004921C3F800265948C3F80426C3F80826CE
:10047400C3F80C26C3F81026C3F81426C3F81826AC
:10048400C3F81C2607F0FBFDFFF7C8FF07F065F96A
:100494004F4808F024FE00284ED04FF480314D48D8
:1004A40007F039F90C214A4807F011F9002843D024
:1004B400002140F2676005F043FB4FF47A7708F0BF
:1004C40066FF3D46A0FB074007FB0100E40B404EDE
:1004D40044EA40440C21304607F0F9F8804608F01D
:1004E40056FFA0FB053007FB0100DB0B43EA40434A
:1004F4001B1BB3F5E17F07D2B8F1000F1CD000211C
:10050400212005F01DFBE5E7B8F1000F14D04FF0F2
:100514005023D3F800340BB1DB070DD5012203219E
:100524002B4807F0E8F849212B4807F0A8FD01F013
:1005340017FE2A4802F040F901A800F07BFC284B82
:100544001B68834204D04521264807F098FDFEE746
:10055400039A4921244807F092FD4921234807F0D2
:100564008EFD4FF48031002003F020FF044620B1BB
:1005740045211F4807F083FDFEE769469DF8080002
:1005840000F03AF8009B039D1D44019B1E8900F076
:1005940069FFAF1900F04AFF02F07EFE84F30B8876
:1005A40084F30A88AB5983F3088884F31488BFF36F
:1005B4006F8FBFF36F8F7B68984745210D4807F015
:1005C4005EFDFEE7008001503546526E9F9B0000A1
:1005D4006894000060970000B89B000058970000E2
:1005E40028C80020DC9B0000FF9B00002E9C00001C
:1005F400539C0000869C000008B540B102460023CD
:100604000448452107F03BFD6FF0150008BD086064
:10061400FCE700BFA99C00001FB50C46014601AAD7
:10062400044808F02FFA18B9019B2360029B636009
:1006340004B010BD989400002DE9F04F1D46834B83
:10064400DBB01746DDE966481E68DDF890B100F0BE
:10065400BBFE01227E4B3AA8C3F8002505F070FFCB
:100664003CB1B8F1000F04DD424621463AA807F038
:10067400C8FB4FF000097B89B7F808809844FB68F1
:100684009844C8454ED80DA93AA805F0CBFF0022DE
:100694006F4BC3F80025C3F80025689B23B12022C3
:1006A40018460DA908F054F800232A460093394649
:1006B4004FF6FF7307A807F051F80446002844D109
:1006C4004FF0FF37DFF894A1DFF8848102900DF139
:1006D400160305AA06A907A807F08CF8041E34DB44
:1006E40040F0A480BDF81690B9F1100F38D1BDF8D0
:1006F4001490B9F1200F40F0A3804B462846069988
:100704003AAA07F0CAFC0446F8B94A463AA90DA821
:1007140007F0E7F804464F4B1B68834215D10123C9
:100724000293D4E7659AA8EB09039A4228BF1A46B4
:1007340049461346924628465A4607F0AEFC0446FC
:1007440038B10022424BC3F8002520465BB0BDE817
:10075400F08F524659463AA807F053FBD14490E72C
:10076400B9F1010F3ED1BDF81430202B68D82846CA
:1007740006993AAA07F091FC04460028E5D19DF8B1
:1007840014B0BBF1200F09D8DAF80030324F0393CC
:10079400039B9C4205DB0023C8F800354FF0FF346F
:1007A4001CE000F011FEC8F800951DA805F0C8FE75
:1007B4007A681DA8126857F8081B07F022FB15A9D0
:1007C4001DA805F02FFF00223AA9C8F8002515A896
:1007D4005A4607F094FF18B9C8F80005274676E78B
:1007E4000134D5E7B9F1220F7FF471AF7B1C3FF4DC
:1007F4006EAFDAF80030BB4215DDBDF81430802B43
:100804001ED8284606993AAA07F047FC0446002851
:100814009BD1FFB22021BDF8143000973AAA0DA84D
:1008240000F01EF806464FF0FF3750E7029B53B125
:10083400084B1B68B34201D0044B1E68344684E75E
:100844004FF0FF3481E701247FE700BFE8C40020B4
:100854000000845028C8002074970000709700009E
:100864002DE9F04196B017461D469DF87020354B92
:100874000E4653F8321003EBC2035B6880461868D7
:1008840001913023014402AA01A807F047FA10B1EC
:100894004FF0FF3053E0DDE901431C44214606AB31
:1008A40003AA01A807F062FA0028F1D1049A072AE2
:1008B400EED12549059807F022FF0028E8D1079AD0
:1008C400082AE5D12149089807F019FF0028DFD14B
:1008D400214602AA01A807F035FA0028D8D1DDE99B
:1008E400013213449C42D3D1412AD1D13D44302317
:1008F400294603AA02A8029707F010FA0028C7D1D4
:10090400DDE9023213449D42C2D32A4602A906A855
:1009140006F0BBFF0028BBD12A4602A90EA806F0A8
:10092400B4FF0028B4D1202EB2D101990B78042B46
:10093400AED13346404606AA013100F05DFD16B043
:10094400BDE8F08174970000CF9C0000D79C0000A4
:100954002DE9F041032386B00D466F460026DFF8EB
:100964006880ADF8003017F8010B01A901F038FADE
:100974000446A0B901981023816802AA103907F02F
:100984008CFB0446019807F087FB44B910224146CA
:1009940002A807F0B4FE40B12EB14FF0FF34204658
:1009A40006B0BDE8F0810126DDE7019808F03EFAC3
:1009B4000423A0F108012A46019807F06EFB0446BF
:1009C400019807F069FBEAE7589B00002DE9F04124
:1009D400384B88B0064600200D461C6806F0B2FE6F
:1009E40006A9C0B201F0FCF9002857D1294606F047
:1009F400A9FE2C2407A9C0B204FB056401F0F0F998
:100A0400002836D04FF02C0808FB05F806EB080741
:100A1400396911F0100137D14FF480730193264BDB
:100A2400224600930846CDE90311069B0291FFF785
:100A340003FE0446214B56F8082006989A420CD12E
:100A44003A89FB68D1438B4207D8134482689342A6
:100A540003D21B4B1B68A3421DD045B382680021FF
:100A640007F045FB174A4521174807F008FB012406
:100A740011E0079807F059FB0746079807F00CFBAD
:100A8400631EE21C93420DD1002DF0D0304606992E
:100A940007F023F82C46069807F0FEFA204608B023
:100AA400BDE8F08113F8011FB942EBD0AAE7074A69
:100AB400D9E700BFE8C40020DEE800203DB8F39683
:100AC40028C80020E09C0000F29C0000EA9C000082
:100AD40073B50D46002104462846CDE9001106F001
:100AE400BBFF30B3164E2368B34203D1204601AA9C
:100AF40006F046FFE36AB34204D16A460121204668
:100B040006F03EFFDDE90032934288BF0193019B6A
:100B1400AB60019A2946204600F03AFB094B1A685B
:100B2400002A03DD5721084807F0A9FA002002B083
:100B340070BD05F10801FFF70BFFAB680193E8E70F
:100B44003DB8F3968CDC00201A9D00002DE9F84F87
:100B54008A46904699460026DFF870B0194C1A4D23
:100B64000B9B9E4201D300200FE00B9B50469F1B22
:100B7400B7F5806F28BF4FF48067144A3B4606EBF5
:100B8400090107F08AFA10B10120BDE8F88F0A992B
:100B94003B465A464046711807F094FA0028F3D1B0
:100BA400C4F800563E44C4F80456C4F80856C4F8C1
:100BB4000C56C4F81056C4F81456C4F81856C4F8A1
:100BC4001C56CDE7008001503546526E8CC800207B
:100BD4002DE9F0430F4600218E4B85B01E688E4BE5
:100BE400044643628D4B0365084606F0ABFD04F1F1
:100BF4002001C0B201F0F4F80121002006F0A2FDAA
:100C040004F14C01C0B201F0EBF80546204606F0B1
:100C1400F8FE804668B900222046114606F097FE89
:100C2400804608B3002257217D4807F028FA0123A3
:100C340092E04FF4807257217A4807F020FA01239A
:100C4400984584F85830E6D194F85830042B8DF840
:100C5400073000F28480012B00F2888000F09F802E
:100C6400FF2384F858309AE0204600F0A7F90028C2
:100C7400DDD0684606F0E7FE6946204606F082FFAE
:100C840018B1424657216848CFE7684606F0E4FEAB
:100C940080F001006A46C1B2204606F058FE0246C2
:100CA4000028BFD1684606F0D7FE804660BB69467F
:100CB4002046FFF70DFF9DF8073084F85830033BBA
:100CC400012B06D8404606F0ACFF10B1FF2384F890
:100CD40058309DF80730023B022B0BD8002006F059
:100CE4008EFF38B1FF2384F8583045214F4807F070
:100CF400C6F9FEE794F85830FF2BF6D06A46002177
:100D0400204606F024FE92E79DF80790B9F1010F02
:100D140017D1104603F0E6FB831E022B80460DD844
:100D240049462046FFF752FE414B1B68984205D0C6
:100D340001280CBF4FF001084FF0050884F85880D3
:100D440082E701212046FFF741FE394B1B68984298
:100D540014BF05239DF8073084F8583074E7052B39
:100D64007FF47EAF002006F05CFF13E06946204666
:100D7400FFF7AEFE94F858300546DA1E012A0CD867
:100D8400002006F04EFF054600287FF469AF0020DE
:100D940006F035FF054610B162E7022BF7D094F850
:100DA4005830FF2B04D14521204807F068F9FEE7AD
:100DB400012B06D06A460021204606F0C8FD0546F0
:100DC400D0B900212046FFF701FE0646DFF8608017
:100DD400D8F8003098420FD110220021684607F05D
:100DE400C2FC206A06F0B7FC00253871236AD8F8E3
:100DF40000605B683C60BB60E06C07F04DF9206A02
:100E040007F04AF9002D14BF2846304605B0BDE866
:100E1400F08300BFE8C400208CCC00208CD40020D8
:100E24008B9D0000499D0000B79D0000E19D0000DE
:100E340028C8002038B5064D044660220021284603
:100E440007F091FC21462846FFF7C2FE38BD00BFDB
:100E54002CC8002073B516461C4633B3436A5D683C
:100E64006379012B15D101BB1F4B22681B689A4281
:100E740098BF0025002006F065FC01A9C0B200F06F
:100E8400AFFFF0B10125019807F006F9284602B03A
:100E940070BD022B09D12368012B08D9124A1268AC
:100EA400934202D8B1FA81F149090025E2E7FCD165
:100EB4000029DFD00129F8D12179023918BF012195
:100EC400F3E7294620233246019807F0E6F8054661
:100ED4000028D7D1002CD6D0356804482D1A18BF65
:100EE4004FF0FF35CFE700BFECC400203DB8F396C8
:100EF4002DE9F04F07460C4685B001460020164602
:100F040006F0F6FC051E52DB3846E46D06F0FDFCE7
:100F14005FFA84F94FF0000A4FF0010B4FF0FF34F1
:100F240005F1FF3809FB08089DB9BAF1010F03DD8B
:100F34004521214807F0A3F8631C06D0FF2C2ADCC6
:100F440040F2011301343460B380284605B0BDE893
:100F5400F08F6B1E00934146012338460DF10F02BA
:100F640007F09BF8031E019323DB012238460DF1A1
:100F74000F0107F06FFF019B40B15B4501D00AF1FF
:100F8400010A9B46009DA8EB0908CDE7B4F1FF3F99
:100F940008BF2C46F5E70223A4F58074737163102F
:100FA40004F001040133013433603471CDE70725C3
:100FB400CBE70125C9E700BFED9D0000816A426DC2
:100FC40038B5914208D0531C8B4205D057211448A0
:100FD40007F055F8002038BDB1F5807F1CD95721A2
:100FE4001048F5E7446A056D04EBC30405EBC3053B
:100FF40064686D68AC4202D057210B48E8E70133BE
:101004009A42EFD1914205D9436A03EBC202536875
:10101400A342F1D10120DEE700231C46F0E700BF24
:10102400109E0000489E0000779E000000B589B025
:10103400032004A907F074FF9DF81020012A41D071
:10104400254B2649032A18BF0B469DF81320492136
:1010540002929DF81220224801929DF811200092DC
:10106400204A07F00CF8092006A907F059FF9DF85B
:101074001820012A28D0184B1849032A18BF0B46F8
:101084009DF81B20492102929DF81A2014480192D0
:101094009DF819200092144A06F0F1FF9DF81030D3
:1010A400012B13D19DF81230032B0FD19DF818306A
:1010B400012B0BD00D48492106F0E1FF022009B0B5
:1010C4005DF804FB0A4BC0E7094BD9E709484921FD
:1010D40006F0D5FF0020F2E7A89E0000AE9E0000B7
:1010E400C09E0000B29E0000019F0000119F0000FE
:1010F400A39E0000309F000070B54B6814461E4A42
:1011040003F0FF23934206460D4686B02FD10B68A9
:10111400012B2CD1204604A903F090F99DF810204E
:10112400012A26D0154B1649032A18BF0B469DF8F1
:101134001320492102929DF81220124801929DF831
:1011440011200092104A06F09AFF9DF81030032BEC
:101154000DD12146304606F0C0FC204607F0D3FEF0
:101164002046A96806F0E4FB204603F047F906B0E0
:1011740070BD064BDBE700BF00010004A89E000021
:10118400AE9E0000C09E0000019F0000A39E0000D0
:101194002DE9F04F2DED028B05460C46854849217B
:1011A40089B0174606F06BFF6B6A01225E68002364
:1011B4003344BB42114602F10102F9D3DFF800B215
:1011C4002046CBF8001006F047FC18B3E86D06F093
:1011D4008AFB0023AF6A013F3344834201D2013FBB
:1011E400FAE7DBF80030BB4214D35721724806F00B
:1011F40046FFDBF8002007FB06F3572102FB0662DB
:101204006E4806F03CFF0123E37109B0BDEC028B8C
:10121400BDE8F08F06A9032000F0E2FD07A909202C
:1012240000F0DEFD21462846079AFFF765FF637943
:10123400012B08D1DBF80070DFF888A1DBF800305F
:10124400A7B9012323604FF002030127DFF874815B
:101254006371DBF80030DDF818909F424DD94846A1
:1012640006F01AFF079806F017FFCEE7226801334D
:101274009B1A9F423FD86B6A012A196853F83700BA
:1012840003EBC70353F8083CDDF81880A3EB010314
:1012940008EE103AA0EB010912D1E268079B022A7A
:1012A4000AD041462846029306F017FC22464146DE
:1012B400284606F048FC029B1946284606F00DFC19
:1012C40032464946404606F006FC18EE103A4246BD
:1012D40041462846CDE90096FFF738FC21462846CA
:1012E40006F0C7FB23680133236020B1DAF800302D
:1012F4000133CAF80030013FA0E723689F4257D367
:10130400696A286D51F83730FA0003930B68083A7C
:1013140050F802C0029303682079DDF81CA001286C
:10132400ACEB030342D189580593029B3246C91A98
:101334004846049106F0CFFB0499059B4A46009168
:101344002846514601960493FFF700FC214628469F
:1013540006F08FFB4FF002032371049B20B1D8F8F1
:1013640000200132C8F80020194632465046049342
:1013740006F0B1FB049B494600932846DDE90223AD
:1013840001969B1A5246FFF7E1FB2146284606F0D8
:1013940070FB2368013323604FF00103237138B1DC
:1013A400D8F800300133C8F8003001E00228DBD05F
:1013B40001374EE7479F0000709F00009F9F000089
:1013C400ECC400208CDC002070B5094D2B7853B997
:1013D4000126084CC4F8006505F054F928B92E70AC
:1013E400C4F8000570BD0020FCE74FF0FF30F9E7BA
:1013F400DEE900200000845070B5AEB01D460446FE
:10140400CDE90221FFF7E0FFDDE902210123064EC9
:1014140005A8C6F800352346009507F0BEFF002353
:10142400C6F800352EB070BD00008450BFF36F8F36
:1014340072B600234FF0FF30094A03F12001013353
:10144400102B42F82100F8D100234FF0FF3003F1B4
:1014540060010133102B42F82100F8D1704700BF1E
:1014640000E100E010B501224FF0FF340021194BD8
:1014740019485A60C3F84843C3F8084303F5805336
:101484005A60C3F84843C3F80843A3F55043C3F86C
:1014940000158022C3F8084307F065F98022002173
:1014A4000E4807F060F900210D4B8022C3F80015A7
:1014B4000C48C3F8084307F056F9802200210A4873
:1014C40007F051F9094BC3F808454FF05023C3F80E
:1014D400084310BD004001508080005080810050BE
:1014E4000090005080900050809100500070015096
:1014F4002DE9F043079C1CB920461460BDE8F08335
:101504000325B4FBF5F505EB4507BC4218BF0135CF
:10151400B5F1804F05D34FF0FF3313606FF00B002C
:10152400ECE7AD0001358D4200D808B91560F5E748
:1015340006460025DFF8B4E0BD4231469C4606F17C
:10154400040603F1030329D3A54222D20135A5429F
:1015540028BF00239CF80060244F38BF9CF801305A
:101564004FEAA60C17F80CC0A54281F800C007EB9F
:10157400131C2FBF3D239B0003F03C03FB5C36018F
:101584008B703D2306F030061CF80660CB704E705D
:101594000431081A106000200870AFE713F803CC78
:1015A40013F8021C4FEAAC091EF809904FEA0C1C10
:1015B40013F8018C0CF0300C06F8049C0EEB111996
:1015C40019F80CC0890006F803CC01F03C010EEBBD
:1015D400981C1CF8011008F03F0806F8021C1EF8BD
:1015E4000810033506F8011CA6E700BFABA00000F5
:1015F4002DE9F04300273C463D46079EDFF8248151
:10160400B5420AD32E4604E00135AE420EF1010E76
:1016140005D1CCBB1460002058E04FF0000E13F845
:1016240005C0BCF1200FEFD0AE42F2D0A6EB050905
:10163400B9F1010F15D0BCF10D0F12D103EB05095F
:1016440099F80190B9F10A0F1CD0BEF1000F05D131
:10165400BCF13D0F08D10137022F08D96FF01500F6
:1016640034E0BCF10A0FEFE71CF0800FF6D118F854
:101674000CC0BCF17F0FF1D0BCF13F0F01D8002F9B
:10168400ECD101340135BBE74FF0060C04F007053B
:10169400E4080CFB05F50CFB04F40735E41B04EB30
:1016A400D50480B18C420ED800259C461E440324E8
:1016B40003462946DFF86CE0DFF86C80664507D105
:1016C4001B1A1360A7E76FF00B001460BDE8F083EA
:1016D4001CF8019BA9F10A07FFB2162F03D828FAB8
:1016E40007F7FF07EAD41EF809700131402F08BF3D
:1016F400013C07F03F07042947EA8515DED17CB198
:10170400290C012C197002D101330021D6E7022CD7
:101714004FEA1521597016BF9D7002330333F4E765
:101724002146CBE72BA0000009004000014B1B68B9
:10173400184700BFF0C4002007B50B46002102463D
:101744000091034800F0EAF803B05DF804FB00BF21
:10175400311700002DE9F74FB0F81890044619F03E
:10176400080893460ED001290CBF49F0100949F02E
:101774002009A0F818908BF31188BFF36F8F03B082
:10178400BDE8F08FDFF890A109F00709022907D11D
:10179400204606F091FB0028EDD00128238B4BD185
:1017A4006769218B002F15DA256821F00701C4E948
:1017B400008841F0010121830026218B01F00702FA
:1017C4004A4502D0A368002B57D10DB9002E6FD023
:1017D400002353E001F007035A1F012A1DD821F00A
:1017E4000701062B256889B2C4E900880AD13DB1F6
:1017F4002A46638B126801339BB2002AFAD16383B1
:1018040041F002012046218306F056FB0028D3D084
:10181400238B43F020032383CEE7042B0AD121F04A
:10182400070189B22046218306F046FB10B141F03E
:10183400200121830025BFE7032809D1226923F071
:101844000703166843F00603002523832F46B4E7F5
:10185400042806D1226923F00703566843F00403E1
:10186400F2E7052806D1226923F00703966843F0BE
:101874000503E9E700252E46E8E7012341F00801C6
:1018840021838BF31188BFF36F8F03BB002D31D1FC
:1018940016B151462046B0474FF02003EFF3118BA9
:1018A40083F31288BFF36F8F238B23F00803238302
:1018B400238BDA0627D5012123F010032383B4F800
:1018C400189009F0070900297FF460AF53E7A16875
:1018D4000029DBD0D1F800903B462046D1F804B073
:1018E4000192D847019AB9F1000FCFD04946D9F8EF
:1018F4000090F1E729463B46204601922D6806F008
:10190400F7FA019AC2E713F020011EBF23F0200367
:1019140002212383D3E700BF217F00002DE9F04F8C
:101924008A464FF000098FB01D46531E0190029362
:10193400029B58785C1C252821D14FF0000C4FF0F5
:10194400FF37184661463C460A260230CDF80CC0E3
:1019540002780290392A00F1010059D81F2A18D8B8
:10196400002A00F0F7815146019B25209847029BED
:1019740051461878019B984709F10209D8E70028D5
:1019840000F0E8815146019B984709F1010902944E
:10199400CEE7A2F12003192BE5D80FF2080E5EF86A
:1019A40023F000BF111A00006B1900006B1900002E
:1019B400111A00006B190000951A00006B19000041
:1019C4006B1900006B1900006B190000D71A000096
:1019D400111A00006B190000EB1A0000A31A000092
:1019E4006B190000AF1A0000CB1A0000CB1A0000DC
:1019F400CB1A0000CB1A0000CB1A0000CB1A00004F
:101A0400CB1A0000CB1A0000CB1A000094469FE7C3
:101A1400582A00F01B81A2F163035FFA83FEBEF132
:101A2400170FA0D8172B9ED80FF2040E5EF823F0E0
:101A3400B31C0000111B00006B1900006B1900009F
:101A44006B190000F11A0000111B00006B19000053
:101A54006B190000F11A00006B1900006B190000EB
:101A64006B190000FB1B00006B1900006B190000D0
:101A7400931C00006B190000111B00006B1900007F
:101A84006B190000FB1B00006B190000F11A000029
:101A940051462520019B984709F1010948E7039B1A
:101AA400002703F0FE03039352E7002C0BDA002F08
:101AB4000BDA039B002B00F0498124EAE47406FB53
:101AC4000424303C44E7002FF7DB06FB0727303FB4
:101AD4003EE7002F55F8043B01DB1F4638E71C1E88
:101AE400BFF636AF64420223039331E7682A03D179
:101AF400682906D148212BE76C2A02D16C2900F011
:101B0400278100297FF42FAF114621E77A2907D1D5
:101B1400752A05F104062D6862D14FF000080DE026
:101B24006C29F5D04C29F3D1EB1D23F007031E4695
:101B3400752AF6E8020107D1D3E90058BCF1200F59
:101B440051D1864B013C09E005468846B8F1000FA7
:101B5400F4DA6D42824B68EB4808013C4FF0000B0D
:101B640000930DAB0593284641460A220023CDF885
:101B740010B0FEF7E5FA059B303203F80129CDE9F0
:101B840005352846002341460A22CDF81C80FEF77D
:101B9400D7FA069B05460A2B079B884673F1000378
:101BA4000BF1FF3BDFD2049B049AC3F1010B0EAB94
:101BB4009D18002FA5F1040504DA039B13F0010F0F
:101BC40018BF2746039BA7EB0B08B8F1000FD4BF3F
:101BD400A4EB0B04E41B9B0700F18180274677E00C
:101BE4004FEAE578B2E7BCF12B0F0ABF5D4B5E4BC1
:101BF40004F1FF34B2E7702A28D12E4656F8041BAC
:101C0400002300295CD059480090023C002502F0D2
:101C14006002A2F139080DF1340E01F00F02092A15
:101C240088BF424430320EF8012910294FEA1112BC
:101C340042EA03724FEA131073F1000305F1FF3C0B
:101C440021D20EABC5F1010B1D44B2E76C2904D1BE
:101C54002E46002356F8041B08E04C29F8D107351A
:101C640025F007052E466B6856F8081BBCF1230FB8
:101C740006D13F4D12F0200F3C4808BF2846C3E769
:101C840039480090C2E7654611460346C5E72E462B
:101C940056F8045B284606F02BFD002F834602DB32
:101CA400B842A8BFBB46304B002700938AE72E46B4
:101CB40056F8043B4FF0010B8DF8203008ADF2E7E5
:101CC4004FF0050B2B4DEEE751462020019B984722
:101CD400013FF9D524EAE473013C9944E41A009BDA
:101CE400A9EB030904E000935146019B9847009B2C
:101CF40009EB030713F8010B0028F4D1C146B9F12D
:101D0400010913D5D94628EAE878B9F1010912D5B1
:101D1400BBF1000FA8BFD8442546013D11D5002CC6
:101D2400A8BFA044354608EB070901E65146019BCC
:101D340030209847E3E7514615F8010B019B98477B
:101D4400E3E75146019B20209847E6E70123CBE6D1
:101D54004C21FDE548460FB0BDE8F08F9EA600007B
:101D6400EBA00000EDA000009E9B0000F2A000008C
:101D7400EFA00000F5A0000008B54FF02002EFF33B
:101D8400118382F31288BFF36F8F01F073FA034853
:101D940006F085F800F08EFEFCE700BFFBA0000013
:101DA4004FF02002EFF3118382F31288BFF36F8F99
:101DB4000121044AC2F8401583F31188BFF36F8FE1
:101DC400002070470090035020B1034B800143F082
:101DD40001031847704700BF5097000002F002BC8F
:101DE400114B70B51B680C468BB1104A1168002268
:101DF4008A4202DB6FF0010070BD1D4613F8106BC0
:101E0400864207D00132F3E700202560F4E76FF043
:101E14000C00F1E7E86818B107F061F90028F3D184
:101E24006FF01200E8E700BFF4C4002060980000DF
:101E340070B588B005460C46C0B269461646FFF731
:101E4400CFFF00281BDB0098C8B1436822680293C7
:101E540083680195CDE903360023C568CDE90623DF
:101E6400059306F019F96DB12846084901AA06F050
:101E74000DFE079808B9059B236008B070BD6FF08C
:101E84001500FAE76FF01200F7E700BF3D8100008C
:101E9400014804F07BB800BF6498000010B5044604
:101EA40018B90D4B0D485B689847616808290DD037
:101EB40031F004030AD011F0020108D02146084889
:101EC40007F036F9002323600023636010BD142259
:101ED400206806F048FCF7E7B8C5002028A10000F8
:101EE40090DC002008B5E8B14368042B0CD1012232
:101EF4000368D3E8EF1F002903D1C3E8E02F0028CB
:101F0400F7D10BD1002008BD53B100684FF0FF3268
:101F14004FF0FF3303F040FA0028F3D00348F2E710
:101F24000348F0E76FF4E040EDE700BFE98FFFFFFF
:101F3400EA8FFFFF08B5B0B14368042B0DD100222E
:101F44000368D3E8EF1F012903D1C3E8E02F002879
:101F5400F7D1074808BF104608BD3BB1006803F03D
:101F640093FA0020F8E76FF4E040F5E70148F3E75F
:101F7400E98FFFFFEA8FFFFF10B5044618B9164B2F
:101F840016485B6898476368042B23D0082B21D03C
:101F9400CBB92368BBB94FF0FF324FF0FF33214672
:101FA4000F4803F03FF908B923681BB90A4B0D48E1
:101FB4005B68984714220021206806F0D4FB63680C
:101FC40043F002036360206807F0F7F8636843F0A6
:101FD4000103636010BD00BFB8C5002028A1000044
:101FE40090DC00204EA1000008B5064940231422CD
:101FF400054807F082F8BDE808400449044804F0A5
:1020040027B800BFACDC002090DC00207C980000E6
:102014006C980000F7B5244E306883685B6C03B19C
:102024009847306883685B6BA3B9204C204D3068B7
:1020340083689B698BB101220DF107019847012840
:102044000BD1236893B92B684BB94521194806F085
:1020540016F802E098470028E7D103B0F0BD69689C
:102064001A688B422A6000D16A602360124A9DF884
:1020740007001188B1F5007F04D223684F1C0B447C
:10208400178018720A28D2D100202368118818609A
:1020940059600A494D6825B9C1E9003310802060B0
:1020A400C4E72B604B60F9E7D4E50020B4E10020DD
:1020B400ACE100207BA10000DCE80020CCE500209E
:1020C400044B10B5044618688368E1B25B6898470E
:1020D400204610BDD4E50020F8B50646154608464E
:1020E4004FF02003EFF3118C83F31288BFF36F8F4B
:1020F40018490B6843B1184A54689C4204D000271D
:102104001F609CB9C2E90033144A13682BB15768A5
:102114001C68BB42146008BF54608CF31188BFF381
:102124006F8F0B602BB918462B60F8BD236053608A
:10213400EAE75C6803F10801A042D8BF00F1FF346C
:102144002246304606F004FB0023335501232B605E
:10215400E018EAE7B8E10020ACE10020CCE500207B
:1021640037B500251C4B1D4AC3E900551C4B1D4CBB
:102174001D4803F502711360C3F8085219605160D9
:10218400206006F0ACFF10B32068836823B19B6C19
:1021940013B12A4615499847206883685B6B0BB1D5
:1021A400984748B1206883689B6903B9FEE7012218
:1021B4000DF107019847F4E700250D4B20681D80B9
:1021C40083689B6A33B19847284603B030BD4FF00B
:1021D400FF30FAE71846F8E7CCE50020ACE1002030
:1021E400BCE10020D4E50020809400001920000008
:1021F400DCE8002040F6061300202DE9F043DFF868
:10220400FC90D9B0D9F80010ADF80830374BDFF89E
:10221400F0801E680B78A6EB080601330B7073BAC6
:102224004B808B8808225BBA8B80487005F004FED3
:1022340032464146ADF80C0005F0FEFD02272C4D58
:1022440040BA2B68B4B2ADF80C00022102A85B6856
:10225400984704F10A035BBA0DF10E01022205A8A6
:10226400ADF80E3006F074FAD9F8001008220DF11A
:102274001600ADF80E7006F06BFABDF80E0005AB53
:10228400083080B232464146ADF80E00184406F0DC
:102294005FFABDF80E0005AB204480B23A46ADF8B3
:1022A4000E0003A9184406F053FABDF80E3004AA30
:1022B4003B449BB2ADF80E300093BD2105AB28A87A
:1022C400FFF716F904992B68ADF80E1028A85B687F
:1022D40089B298472B6801215B68064898474921D1
:1022E400054805F0CCFE59B0BDE8F083E0E50020D8
:1022F400D8E500209D9B0000B9A10000DCE500208A
:10230400E0E90020F7B50646B3680C469A42104649
:102314001AD291421CDC6946FEF77EF9A0B9DDE9C8
:1023240000531D44224649210B486B1E2F1B05F008
:10233400A6FE3A462146304605F0D9FE024630B1A3
:102344004521064805F09BFE6FF0150400E02C467D
:10235400204603B0F0BD00BFC1A10000DEA1000013
:10236400F0B50C68164F85B002380D46C4F50071FF
:102374000090144B381903AA0131FFF739F90446C8
:10238400D8B92B68039A1344022B2B6012D93E88C8
:10239400023B76BAB6B29E420CD13246B91C05F065
:1023A4004BFD38B9022E05D92B68023B1F442B6024
:1023B400BC700124204605B0F0BD4FF0FF34F9E7AE
:1023C40060EA002063EC002007B5CDE9000169460E
:1023D400024806F0BFF803B05DF804FBE0E5002016
:1023E40038B505460A4C0A21204606F0C5F80221F4
:1023F4000848FFF7E9FF2946204606F0A7F82046DB
:102404000A2106F0D7F8BDE83840FFF7F3BE00BF55
:10241400E0E5002000A20000002307B5054A009370
:10242400022102F18003044806F0D3F803B05DF8FA
:1024340004FB00BFE0E90020E0E500202DE9F043C3
:1024440007290446A3B040F28380037813F0FD0605
:102454007ED14388A1F108055BBA9BB2AB4277D326
:10246400A84B186083885BBA8380FFF7D5FFA088E8
:10247400012840F08A81E7793FB1012F7CD0082000
:1024840023B0BDE8F043FFF7ABBF01469E4806F01A
:1024940073F806219D48FFF797FF05219A4806F037
:1024A4005CF83C46DFF8A082994F974E2146002005
:1024B40005F048F909A9C0B2FFF792FC05460028C7
:1024C4003BD1202301460AAA099805F0E6FD0A9BA0
:1024D400BB4242D08F4B1D68099805F0DDFDD8F84A
:1024E4000030AB4229D11421304606F045F80421CE
:1024F4008948FFF769FF2146304606F027F807218F
:102504008648FFF761FF109B40210293BDF83E30DF
:10251400834A01939DF83D3012A800939DF83C3006
:1025240000F006FF12A806F0E3F8014612A8FFF730
:102534004BFF1421304606F03DF864B10521724882
:1025440006F029F82146704806F034F8FFF752FEE9
:1025540023B0BDE8F0830124A8E74023019312AB24
:102564002946CDE90355029500932846099B0AAAFA
:10257400FEF762F80546AFE7294609AB12AA04F153
:102584000800089600F0FAF928B3032422464921EA
:10259400644805F074FD0A215B4805F0EDFF022153
:1025A4006148FFF711FF2146574805F0CFFF44B9B2
:1025B40003215E48FFF708FF5D4B5348196805F097
:1025C400C5FF0A21504805F0F5FFFFF713FE0898F0
:1025D40005F062FDBCE7099B9D42D6D14FF0FF395F
:1025E40002464E4605460746219C12AB944221D131
:1025F400731CCAD0002FC8D0002105F0A3F808A985
:10260400C0B2FFF7EDFB04460028BED1DFF82081FD
:10261400002E6CD10898C8F80040866805F075F95A
:102624004449FDF7F9FFC0B14521434805F027FDB2
:102634000124ABE7197A032904D8DFE801F0020684
:10264400090C186801320C33D0E7D3E90075F9E7B7
:10265400D3F80090F6E71E68F4E74E4595D3374B60
:102664001C60374BC3F80090D8F80020334E013A71
:10267400316808982A44FFF745FE0028306084DB5F
:10268400089805F04BFDB5FBF0F303FB1050C1B205
:10269400A5EB0109D8F80020294D09EB02032E68A7
:1026A4001944B14238BF00204921C6B2254805F07B
:1026B400E6FC4B463A46D8F80010089805F002FDAF
:1026C40000287FF462AF002E40D1D8F800002B68B8
:1026D400484430449842C8F800007FF457AF154B83
:1026E40008981A681146FFF70DFEC40F4EE7D8F894
:1026F4000030B3427FF44AAF114AAB1912689342D7
:10270400B2D942E7DCE50020E0E5002003A20000A6
:102714003DB8F396E8C400200AA200000FA200000E
:1027240017A2000081A2000000A200008FA20000F6
:1027340010E600201CE6002026A2000018E6002077
:1027440014E6002061A2000028C80020089805F0C3
:10275400ECFC082201460AA806F005F8324607EB0D
:1027640009010AA805F0F4FF089FD8F800103846BC
:102774004944079105F0D2FC079903460AAA384652
:1027840005F0A0FC0028A0D0FFE600287FF477AE77
:10279400E379012B3FF474AE052B03D0002B7FF4B7
:1027A4006EAED5E6FFF71CFE4FF40050002103F097
:1027B400C7F90120FFF7E0FA01232DE9F7430024CC
:1027C4000646284F284D3B70284BDFF8A88000941C
:1027D4001860DFF8A490C4F50071C5F8008633686A
:1027E400C5F8048601AAC5F808860131C5F80C8627
:1027F40009EB0400C5F81086C5F81486C5F81886D8
:10280400C5F81C8698470028019B00DC33B10444BA
:1028140053B940F201239C4200D100243B78002BA1
:10282400D7D103B0BDE8F08399F80030062B0AD164
:1028340099F80130092B0CD1002300936946A01E9E
:10284400FFF78EFD05E0042B03D199F80130142B1A
:10285400F4D00128E1D1009905480239FFF7EEFDD3
:10286400DBE700BFDFE9002000800150D8E500204D
:1028740062EA00203546526E61EC002073B50446CE
:102884000E4605F0F7FE00286BD0374B69460093DF
:1028940005232046019305F0CCFD38B1314620468E
:1028A40005F0A9FD10B10023337240E0204605F085
:1028B400E4FEA8B12D4B69460093042320460193FE
:1028C40005F0B7FD60B13146204605F0AFFD38B1E3
:1028D40001253572204605F0D4FE284602B070BDAD
:1028E400204605F0CAFE78B1214B694600930323C4
:1028F4002046019305F09DFD30B13146204605F098
:102904007AFD08B10223CFE7204605F0B6FE80B178
:102914000325184B694620460093019505F089FD6F
:1029240038B13146204605F066FD10B135720125F7
:10293400D0E7204605F0A1FE08B90025CAE70E4BF2
:102944006946009303232046019305F072FD002895
:10295400F3D03146204605F069FD0028EDD004236C
:10296400A2E70546B9E700BF0B9F000093A2000051
:1029740098A200008FA200009CA200002DE9F04361
:102984004FF001099DB004AD07460E4690461C4623
:1029940002460B4628460421CDF8009005F075FE4A
:1029A400284605F049FD70B10C230521CDE90183CA
:1029B4004846114B009508F13C0205F05EFD50B904
:1029C400284605F055FD0022099BD868DA6090423C
:1029D40008BF1F200CE0284605F048FD0028F2D06F
:1029E4002CB10498C01BB04294BF20602660002024
:1029F4001DB0BDE8F08300BF812800000B460139FB
:102A0400425C1AB90029F9D108467047022B85BFE8
:102A14000121044A19469B1882BF13F8020C814015
:102A2400C9B2F1E7A0A20000F8B505460F4610466A
:102A340019461646FFF7E2FF012804D1307817281B
:102A440094BF002001202A68E968431C134499427A
:102A540004D2082200206B69DA60F8BD337840B1F3
:102A6400831E062B8EBF00230E4CE35C03F1180477
:102A7400E3B28A42EDD203F01F0444EA4713511C27
:102A84002960137033189E4204D1AB6801200133CE
:102A9400AB60E2E72A68511C296013F8011D11702C
:102AA400F1E700BFA0A20000014910220A607047AC
:102AB40010ED00E072B6404080F31188BFF36F8FD1
:102AC400BFF34F8F30BF62B6BFF36F8F704700BF45
:102AD40072B6494081F3118820BF80F3118862B631
:102AE400704700BF2DE9F04107460C4686B0002927
:102AF4004AD08B6828480093D1E90023452105F08A
:102B0400BEFA636945210093D4E90323234805F001
:102B1400B6FA4521E269224805F0B1FA26460025B5
:102B2400DFF88880D6ED0B7AFCEEE77A96ED087A2A
:102B3400CDED057AEB1C0493D6ED0A7AFCEEE77A28
:102B4400CDED037AAB1C0293D6ED097AFCEEE77A5D
:102B5400CDED017AFCEEC77A6B1C2A460093452121
:102B640017EE903A4046043505F089FA102D06F127
:102B74001006D7D14521226E0A4805F080FA452176
:102B8400A269094805F07BFA2146384606B0BDE83B
:102B9400F04102F017BA00BFA7A20000DBA20000B8
:102BA4000FA300006BA300007FA3000023A3000079
:102BB40043B2002B08DB012200F01F0002FA00F0F0
:102BC400024A5B0942F82300704700BF00E100E0BD
:102BD400054B420953F82220012300F01F0003FA99
:102BE40000F01040704700BF00E100E043B2002B4A
:102BF40001F10101ACBF03F16043064B4FEA4111FF
:102C0400C9B2ABBF03F5614300F00F0083F80013B2
:102C14001954704714ED00E030BFFFF7FDBF00BF4B
:102C2400144A08B5144B22F07F029A60BFF34F8F09
:102C3400BFF36F8FD3F8882022F47002C3F8882082
:102C4400D3F8882042F4A002C3F888204FF0404211
:102C5400C3F83422BFF34F8FBFF36F8F0023E1EE2D
:102C6400103A02F017FA02F0EBFF00F0C7FA02F094
:102C740051FA00BF0000000000ED00E0094A0A49D3
:102C8400936809685867996708494B6843F080530B
:102C94004B60002383F31188BFF36F8F9368986FA1
:102CA400704700BFC8E60020CC99000000ED00E0AA
:102CB40022498A6882F8BDE04FF030001044EFF3F7
:102CC400098C80E8F01F1EF0100F03D102F17C0084
:102CD40080EC108A202080F31288BFF36F8F184F86
:102CE4004FF00066CA698A603E6092F9BDE0506F99
:102CF4000023536780F311881EF0100F03D00023C4
:102D0400E1EE103A03E002F17C0090EC108AEFF35C
:102D1400148323F0040383F31488BFF36F8F02F149
:102D2400300090E8F01F8CF3098802F1000004B52C
:102D340005F0DAFCBDE8044070470000C8E6002056
:102D440004ED00E01EF0040F0CBFEFF30880EFF376
:102D54000980816911F8021C0229FFD001B505F030
:102D6400B4FC01BD42F8203C009B0D4942F81C3CD8
:102D7400019B21F0010142F8183C029B42F8081C17
:102D840042F8143C4FF0807342F8043C002343673C
:102D94004FF47D43203A0265C0F8BC30704700BF51
:102DA4006D8000000023E1EE103AEFF3148323F06A
:102DB400040383F31488BFF36F8FBFF36F8F094B42
:102DC4009860436E83F30B88104681F309880021D1
:102DD40063B681F31188BFF36F8F0022002305F0DF
:102DE40043F900BFC8E6002001B5EFF30580A0F168
:102DF40010004FEAC0000449014409C99847BDE8DE
:102E04000140024908470000C8940000152E000044
:102E1400044B9968D869884203D003494FF0805223
:102E24000A607047C8E6002004ED00E038B5214C84
:102E34004521214805F023F9A36A9D0103D54521C5
:102E44001E4805F01CF9A36ADC0103D545211C4882
:102E540005F015F9174DAC6A14F4801404D045211B
:102E6400184805F00CF90224AB6A180303D5452170
:102E7400154805F004F90F4DAB6A590303D54521F4
:102E8400124805F0FCF8AB6A9A0303D545211048B3
:102E940005F0F5F8074DAB6ADB0303D545210D4872
:102EA40005F0EDF8AB6A20466FEA03436FEA13437B
:102EB400AB6238BD00ED00E0B2A30000CFA3000078
:102EC400E7A3000006A4000035A4000058A40000F5
:102ED40082A40000A1A4000070B5234C06460D4650
:102EE4002248452105F0CBF8A36AD90403D545212E
:102EF4001F4805F0C4F8A36A1A0503D545211D48E7
:102F040005F0BDF8184CA36A9B0510D51A48452155
:102F140005F0B5F8A26BA36A180408D54521174833
:102F240005F0ADF81EB1A36A23F40043A3620E4C6E
:102F3400A36A590503D54521114805F0A0F8A36AF1
:102F4400DA050BD545210F4805F099F80020064A0B
:102F5400936A43F47F439362287070BDA36A9B0411
:102F6400F4D545210848EFE700ED00E0D1A40000C6
:102F7400ECA4000002A500001AA5000038A500007A
:102F840052A5000072A500008FA5000070B5264C64
:102F940006460D462548452105F071F8A36AD80672
:102FA40003D54521224805F06AF8A36A190703D519
:102FB4004521204805F063F81B4CA36A9A0710D5F5
:102FC40045211D4805F05BF8626BA36A1B0608D512
:102FD40045211A4805F053F81EB1A36A23F0800373
:102FE400A362114CA36ADE0703D54521144805F0FA
:102FF40046F8A36A980603D54521124805F03FF820
:103004000020094B9A6AD10658BF9A6A9A6A9206B6
:1030140042BF5A6A22F400525A62034A936A43F046
:10302400FF039362287070BD00ED00E0C3A50000AB
:10303400DEA5000002A5000016A6000033A60000CD
:103044004EA600008FA500002DE9F041554B002548
:103054005E689CB0C6F3080485F31188BFF36F8FD4
:1030640002F07F43B3F17F4F07D102F00C03082B2A
:1030740005D145214C4805F002F82F4604E012071B
:103084004EBF0F46074601254FF00008E31E8DF89A
:103094000780092B74D8DFE803F005686C65737347
:1030A400737373703F4E4521404804F0E8FFF46A9F
:1030B4008DF8078014F0020405D045213C4804F043
:1030C400DEFF002406E0F36A002B1DDA45213948AF
:1030D40004F0D5FF9DF807309BB96822394602A851
:1030E40005F036FB099B002D57D0C3F3080222B923
:1030F4006FEA53236FEA43230993204602A9FFF79B
:10310400F1FC1CB0BDE8F081F36A5B00E2D5452117
:10311400294804F0B4FFBB6933F8022C4DF602735E
:103124009A4209D0B36ADBB26BB101200DF10701F9
:10313400FFF72CFF0446CDE745213A681F4804F009
:103144009EFF3C68C6E7B36A13F47F4F05D00120A5
:103154000DF10701FFF7C0FEECE7B36A1B0C1B047B
:10316400002BB7D0FFF762FEE4E700200DF1070162
:10317400DEE700200DF10701ECE7452110489EE74A
:10318400104916F4F87F104A104808BF0A46A4F103
:103194001003452104F073FF93E723F4FF7323F036
:1031A4000103A9E700ED00E0A0A60000D0A60000FE
:1031B400ECA6000012A7000025A7000049A7000004
:1031C4006AA7000072A6000087A6000093A700006B
:1031D400044B5A6942F010025A615A6942F48062FF
:1031E4005A61704700ED00E0EFF30880EFF30981C6
:1031F40001B57246FFF728FF01BD00BF002320215F
:103204000348C2180133412B82F80013F9D17047E7
:1032140000E100E0002080F31488BFF36F8F0020EA
:1032240080F30A8880F30B88FEF7D8FD00200E494E
:103234000860BFF34F8F0D4880F3088800F03EF814
:10324400202080F311880A484FF40061401880F36D
:103254000988EFF314800221084380F31488BFF334
:103264006F8FFFF7DDFC000094ED00E0881601206D
:10327400C8170120BFF34F8F0549064BCA6802F4F3
:10328400E0621343CB60BFF34F8F00BFFDE700BF85
:1032940000ED00E00400FA05002318460649D1F8C1
:1032A4009020C2F30722934200D17047C1F89830AE
:1032B400C1F8A0000133F6E700ED00E010B572B6E6
:1032C400002484F31388FFF7E7FF23464FF0FF3011
:1032D4000B4A03F120010133102B42F82100F8D1ED
:1032E40000234FF0FF3003F160010133102B42F84B
:1032F4002100F8D162B6BFF34F8FBFF36F8F10BDBB
:1033040000E100E0084B9B6883420BD1EFF3058397
:1033140043B1064B5A6842F080525A605A6A22F40A
:1033240000425A6202F02CBCC8E6002000ED00E026
:103334000CB410B586B009B90DF10B000024CDE929
:10334400040109AB089A009404A905480393FEF705
:10335400E5FA049B1C7006B0BDE8104002B070474B
:103364007D870000084B70B5C31A0D4607499B10B2
:10337400044659434022064805F027FA2B460146E5
:103384002046BDE87040184734E60020B76DDBB630
:1033940050940000402373B50B4C0093041B0B4660
:1033A4000D460A49A41061430646094A094805F036
:1033B40039FA011E05DA30462B4602B0BDE87040EA
:1033C400184702B070BD00BF34E60020B76DDBB60D
:1033D400958800005094000070B500220121044635
:1033E4000520FFF703FC0F4801F006FA0E4B984244
:1033F40015D105F019FE26690C49304604F0ACFDE0
:1034040000280BDB012524690849356404F11C00FC
:1034140004F0A2FD002801DB0020E56470BD6FF01C
:103424000400FBE7713400000000AD0BC4980000F9
:1034340073B50C23014600264B430A48C418403395
:10344400D4E90E521844A663019205F0ABF935B1E4
:103454002B46019A044802B0BDE87040184702B0F8
:1034640070BD00BF34E600205094000010B1012864
:1034740004D07047034B1B6C5B0701D1FFF7D8BF27
:10348400704700BF34E6002008B54FF02003EFF387
:10349400118183F31288BFF36F8F124A136843F0CC
:1034A400020013F0010310600CD04FF05022D2F848
:1034B4000C34D2F80C2413F0010303D00A4805F0AD
:1034C40071F9012381F31188BFF36F8F23B1BDE834
:1034D40008400020FFF7ACBF0120BDE8084005F01C
:1034E400B1BD00BF84E6002074E600201FB50022B1
:1034F4000123CDE902236B46084ACDF800D0CDF86C
:1035040004D005F0BEF9002805DB4FF48042002307
:10351400684602F015F805B05DF804FBB5880000B4
:10352400074BD3E8EF2F22F00201C3E8E01F002885
:10353400F7D1D30702D4012005F0C5BD704700BF01
:1035440084E600202DE9F041012207463749D1E8FD
:10355400EF3FC1E8E02F0028F9D133B934493548A9
:103564004B60CB608A6004F00AFD7B1E012B2FD8D0
:10357400012F07D14FF05023D3F81C3403F0030379
:10358400022B25D005F0FDFD044618B92A4B1B7803
:10359400002B44D14FF02003EFF3118683F31288FC
:1035A400BFF36F8F01244FF05025DFF89080D5F8DA
:1035B4001834D5F81824D2030CD503F00303022BD6
:1035C40001D0012F06D124B386F31188BFF36F8F86
:1035D400BDE8F081C4B13046FFF77AFAD5F8183562
:1035E400DBB2012BE3D1D5F80421002ADFD000227D
:1035F400C5F80421D5F804210222C5F81825202293
:10360400C8F88021AB60D2E70021212002F098FAAB
:10361400E4E74FF050230222C3F80423D8E74FF025
:10362400502302220646C3F80823BCE788E600209C
:1036340024E6002050E6002084EE002000E100E0B3
:1036440030B5406801F01F05047BB2F5001F45EA60
:10365400441585B04FF0000405D1284601F05AFB0B
:10366400002005B030BDB2F5800FCDE902442ED163
:10367400B3F1007F0CBF042305238DF80830836861
:1036840023FA01F1C90714D4B2F1A07F11D11B4A66
:1036940005F01F03803352F82330DB0709D40DF102
:1036A40007042146284601F09DFA154B984219D08B
:1036B400039400232846194602AA01F069F9114B24
:1036C400984218D10121284601F0E0FAC8E7B3F185
:1036D400C06F05D0B3F1007F0CBF02230123CCE7F8
:1036E4000323CAE7204601F0CBFA064B9842DFD009
:1036F4006FF00B00B5E76FF01500B2E700258450BA
:103704000400AD0B0000AD0B10B501F0A9FA04469E
:1037140068B901F07DFA084B98420AD1214607485E
:1037240001F05AFA224605210D20FFF75FFA002026
:1037340010BD6FF00400FBE70000AD0B453700003F
:10374400430970B511D1094B596871B101230C6853
:10375400074E03FA00F58A682A4002D030464B68C7
:10376400984714B121462468F5E770BD8CE6002023
:10377400689400002DE9F043D0F8048001F01F069E
:1037840098F80C3085B046EA431614460F46304686
:103794000DF1030101F026FA14F4403581460BD1F2
:1037A400304601F0DFFA424B994503D19DF80300FE
:1037B40001F060FA002056E000233046194602AAC0
:1037C400CDE9023301F0E4F8394B984202D06FF0AE
:1037D400150048E0814503D19DF8030001F04AFA41
:1037E400A50352D540F206332340B3F5837F3DD081
:1037F4000CD8062B15D004D89BB1022BE7D1042397
:103804000FE0B3F5807FE2D101230AE040F2022207
:1038140093422DD0B3F5407F2CD0B3F5007FD6D1A1
:1038240002238DF8043084F48033C3F30043E006AC
:103834008DF805304CBF0323C4F3401321038DF8E6
:10384400063019D50121D8F8043001FA07F79F6032
:103854000022304601A901F045F9154B984214BFE6
:103864006FF01500002005B0BDE8F0830723D8E70A
:103874000523D6E70323D4E7620341BF0121D8F827
:10388400043001FA07F7DF60E2E7E3064FF00003D4
:103894004CBF0324C4F340141A46304601A98DF8E2
:1038A400044001F075F8024B984283D08FE700BFC3
:1038B4000000AD0BF8B545680646E86805F00FFC56
:1038C40078B9EB6845211A681C4804F0D8FB6FF0FE
:1038D40012052B4649213268194804F0D0FB2846CA
:1038E400F8BD2C7D6B8A14F0030416BF4FF4D0127C
:1038F4004FF4B0126C68E868297C13430127D0F8B0
:1039040010C0DA07DCF8005048BF83F44023D0F835
:1039140008E023F480128F40DB074CBF3D43BD43D6
:10392400CCF80050DEF80030984705460028D0D186
:10393400002CCED0204605F02CFDCAE7DCA7000001
:10394400F9A70000024B0B6001231360704700BF0E
:103954009CE60020004870473899000037B50C46B3
:10396400194620460193154605F044F8019B40B9D9
:1039740009482246452104F082FB6FF0150003B08C
:1039840030BD33B11A462146284604F0E1FE00203A
:10399400F5E71846F3E700BF2EA8000010B5012292
:1039A4000648114605F010FC05F095FB044C206018
:1039B40005F08EFB6060002010BD00BFA4E600206F
:1039C4009CE60020F8B50E46144605F081FB21461E
:1039D4000546304605F00EF8374648B3B6FBF5F316
:1039E40005FB136323B9B4FBF5F305FB134040B1A6
:1039F400234632464521114804F041FB6FF015007F
:103A040015E0A54213D84FF0FF324FF0FF330C48B6
:103A140001F096FD05F05CFB0546384601F084FA9A
:103A2400641B2F44F9D1064801F06AFD2046F8BD15
:103A34002346324645210348DEE700BF50A8000074
:103A4400A4E600202EA80000F8B50E46194630461C
:103A540017461C4604F0CEFF40B9234632464521A2
:103A6400174804F00CFB6FF01500F8BD44EA060596
:103A740015F0030504D02346324645211148F0E7EA
:103A8400DCB14FF0FF324FF0FF330F4801F058FD27
:103A940024F00304AC4205EB060009D10B4AD2F82A
:103AA4000034DB07FBD5084801F02AFD0020DCE7E1
:103AB400795901F057FA0435ECE72046D5E700BF01
:103AC4002EA8000074A80000A4E600200090035073
:103AD400F0B54B79012B26D0032B21D110268B79FD
:103AE400032B1DD1CC790CB1012C19D10A7912B157
:103AF400022A15D10E220B684568B3F5164F2D68BE
:103B040065D02DD8B3F5165F64D016D8B3F5966F8B
:103B140062D00AD8B3F5967F61D0B3F5167F61D031
:103B24006FF0850052E00026D9E7B3F5166F5CD03C
:103B3400B3F5965FF4D1374B3CE0B3F5E14F57D082
:103B440007D8B3F5615F55D0B3F5964FE8D1324B42
:103B540030E047F61227BB42E2D14FF4000329E0DC
:103B6400B3F5613F48D013D8B3F5963F47D009D891
:103B74004DF6C027BB4244D0B3F5614FD0D14FF4CA
:103B84006B0317E0B3F5E13FCAD14FF0EB7311E0DB
:103B9400B3F5612F38D008D8204FBB4237D0B3F5E6
:103BA400E12FBDD14FF0E86304E01D4FBB42B7D114
:103BB4004FF0805300693443C5F824352243031D74
:103BC400C5F86C2503C983E803000020F0BD4FF459
:103BD4001D03EFE7134BEDE74FF49E23EAE74FF4A1
:103BE400A033E7E74FF41C33E4E74FF41D23E1E788
:103BF4000D4BDFE70D4BDDE74FF06C73DAE70C4B51
:103C0400D8E74FF46503D5E74FF07063D2E74FF080
:103C14008063CFE700B0130000A04E0090D00300F3
:103C240040420F000050270000C0750000F03A0029
:103C340000903A012DE9F7430746002201210820AC
:103C4400FEF7D4FF0820FEF7B3FF0021D7F8048065
:103C54003E69D8F80040D8F80C90C4F800154846DE
:103C6400376001AA05F0AEF8051E1FDB019BD9F8E9
:103C740000201979186800F007FB051E16DB38468A
:103C8400311DFFF725FF054680B9D8F804309907A0
:103C94001CD506F11C0000F0F3FD214B984209D01D
:103CA4004521204804F0EBF96FF00405284603B0E1
:103CB400BDE8F083327F42F00043C4F8A031C4F879
:103CC4008C3001239340184AC2F804350823C4F801
:103CD400003598F8083053B9C4F81031D4F81031CD
:103CE400B369C4F834350123C4F838352360D8F8EF
:103CF40004309A075CBF4FF48072C4F80423DB06D7
:103D040044BF4FF48003C4F804337369C4F84435E2
:103D14000023C4F848350123A360E360C6E700BF6D
:103D24000000AD0BB8A80000007001502DE9F0416F
:103D340004460D46076905F024FA10B9214B1B7897
:103D44008BB94FF02003EFF3118883F31288BFF38C
:103D54006F8F6068464604F08DFF30BB88F311888E
:103D6400BFF36F8FEDE76426606804F083FF70B9DA
:103D7400012005F00BF9013EF6D10021212001F0CC
:103D8400DFFEF0E788F31188BFF36F8FF5E74FF09C
:103D94002003EFF3118883F31288BFF36F8F6068F9
:103DA400464604F067FF0028ECD07B6901221D70B1
:103DB4007969606804F043FF86F31188BFF36F8F5D
:103DC400BDE8F08184EE00200123834010B5DC437C
:103DD4000D4AD2E8EF1F01EA040CC2E8EECFBEF1AF
:103DE400000FF6D14FF4803202FA00F002F15022B3
:103DF400C2F80803BFF35F8FBFF36F8F0B4214BF8A
:103E04000120002010BD00BFB8E600201949F8B514
:103E1400044622F07F450868C1E90023A5F5001394
:103E2400101AB3F5400F22D2134B1B681A0A1B0653
:103E34005E19124B42F10007C3E90067012601F045
:103E4400DBFFA30003F1502303F58033D3F84025AF
:103E5400AA420BD11EB94FF40002C3F840254FF417
:103E64008030074B00FA04F4C3F84443F8BD00263D
:103E7400E5E700BF98C60020BCE6002080C600200D
:103E840000500150E1B101230E4A8340D2E8EF1FF4
:103E94001943C2E8EC1FBCF1000FF7D14FF4803393
:103EA400094A8340C2F80433084BD3E8AF3F23FAEE
:103EB40000F0C30742BF4FF40012054BC3F80021C2
:103EC400704700BFB8E6002000500150B4E600205F
:103ED40000E100E00D4B1868010A0006BFF35F8F94
:103EE4000B4BD3F80435181841F10001B3F5801FCA
:103EF4000AD2084BD3E90023904271EB030303D2A7
:103F040010F1807041F10001704700BFBCE6002051
:103F14000050015080C600202DE9F04F2DED028B9A
:103F240085B0164698460546FFF74EFF08EE100A80
:103F3400FFF7D0FFB04271EB080379D2444B301A3B
:103F440068EB0101984271F100037ED2414B03EB0F
:103F54000513D3E902ABD84508BF564550D04FF4FA
:103F6400803326F07F4214464FEA850905F1500755
:103F740009F15029BF00AB4009F58039BFB207F100
:103F840050270193D9F84005334B07F58037D3F810
:103F94000415401A20F07F4021F07F4C0128C9F815
:103FA40040C507D1CDE90221132005F0F2F9DDE97E
:103FB4000221294B01F1020CA4EB0C0020F07F40FC
:103FC400B0F5000F88BF6446002038603868019857
:103FD400C3F8440324F07F40C9F84005D3F804052E
:103FE400814206D0201A023820F07F40B0F5000F3D
:103FF4001CD8A41A24F07F4414EB060A48F1000BE1
:104004000024144910982B0101EB0512C850C2E991
:1040140002AB119B5360284618EE101AFFF732FFCB
:10402400204605B0BDEC028BBDE8F08F2046AEE71C
:1040340001230A4AAB40D2E8EF1F1943C2E8E01F4C
:104044000028F8D1B246C346DAE76FF01504E2E778
:104054000100000188C6002000500150B4E6002091
:1040640073B500244FF0FF304FF0FF31164D174B5E
:10407400C5F80845C3E902014FF4803302264FF422
:104084000012C5F80433124B0121C5F8046315204E
:10409400C3F880212246FEF7A9FD1520FEF788FD0E
:1040A40001230C4AAB602B6013600B4B0B4A00934B
:1040B400204600230194FFF72FFF3046FFF742FA12
:1040C400204602B070BD00BF0050015088C60020D9
:1040D40000E100E0B8E60020113E0000FFFF7F0091
:1040E400354B2DE9F743D3F8042391070BD5D3F8C7
:1040F400042142B10022C3F80421304AD3F8043128
:104104001368013313604FF02003EFF3118183F33D
:104114001288BFF36F8F284BD3F80423D2030DD535
:10412400274AD2E8EF0F20F00104C2E8E54F002D42
:10413400F7D1002836D1D3F840219ABB002381F36C
:104144001188BFF36F8F53B3FFF7C4FE4FF0200302
:10415400EFF3118783F31288BFF36F8F194BD3E901
:104164000245A04271EB05024FF0000221D3D3E9CE
:1041740000164FF0FF384FF0FF391A604FF48032C9
:10418400C3E902890C4BC3F8482387F31188BFF3B2
:104194006F8F21B122462B4600200096884703B03A
:1041A400BDE8F0830022C3F84021D3F84031012355
:1041B400C5E71146E9E700BF00500150BCE6002006
:1041C400B4E6002088C60020431C13B520D0012883
:1041D40020DDB0F5000F1FDA441EFFF77BFE0F4B06
:1041E400D3E90013401AB0F5000F28BF00240130B2
:1041F40002190B48824228BF02460020521809497E
:104204000190009143F10003FFF786FE02B010BD58
:104214000348E1E70024E0E7014CDEE798C600200C
:10422400FFFF7F00113E000008B5FFF753FE024B6D
:104234001B68C01A08BD00BF98C60020012300F007
:104244001F0003FA00F0034B09B9D8607047986067
:10425400704700BF0025845010B500F48054002C32
:104264001CBF0021012200F01F041B02C0F38110B7
:1042740043EA80030B4343EA4202024B803443F88F
:10428400242010BD002584502DE9F7431646054629
:104294000127DFF8148100EB81094D4503D100208B
:1042A40003B0BDE8F0832C68220CC4F30323192A5D
:1042B40077D8DFE802F00D1A214426384476767662
:1042C40076495176767676767676767656646A7020
:1042D40004F03F04C6F80C452A6802F01F0207FAEE
:1042E40002F2C8F80820012204E004F03F04C6F8F2
:1042F40014450022114611E004F03F04C6F80845B5
:10430400EAE704F03F04C6F808452A68012102F0F0
:104314001F0207FA02F2C8F80C2000222868FFF7EF
:104324009BFF0435B9E704F03F04C6F80C452A683E
:1043340002F01F0207FA02F2C8F80C20D3E704F0D7
:104344003F04C6F81045D4E704F03F04C6F8084516
:10435400002B08BF0623CCE704F03F04C6F80C4545
:10436400F6E704F03F040193C6F860452868C0F3FB
:10437400403100F03F00FFF761FF019BB3E704F019
:104384003F040193C6F86445F0E704F03F04019349
:10439400C6F86845EAE704F03F040193C6F86C45A3
:1043A400E4E76FF085007BE70025845040EA0103D1
:1043B400C3F30E0330B58BB940F21515094CC90B84
:1043C400C0F3C730994201D1002030BDC218D2B227
:1043D40002F5C07244F822500133F3E76FF0150080
:1043E400F3E700BF003000500348452108B503F04F
:1043F40046FE0020FEF73EFFF6A8000030B58168B7
:1044040085B0103921F00704054603F08EFE102212
:104414000146684604F0A7F910226846064904F0EC
:1044240097F910236A462146284603F04BFE0038CC
:1044340018BF012005B030BD589B000030B50C46B4
:10444400816887B0102302AA1039054603F025FEBF
:10445400002802DA012007B030BD1022284602A944
:1044640004F0D3FC90B303232370284604F0DEFC4D
:10447400012301460DF10702284603F00EFE002831
:10448400E8DB9DF80730284603F00F021B09627031
:10449400237101220DF1070104F0B7FC10B9637810
:1044A400042B03D90123637000232371AA682846CF
:1044B400183A22F00702083AA11C04F0D1FC0028A3
:1044C400C8D12846E11C04F025FDC4E710220449A4
:1044D40002A804F014F9002814BF02230123C3E73F
:1044E400589B00002DE9F04385B006466946032039
:1044F40004F016FD054618B1FF2005B0BDE8F083B1
:10450400092002A904F00CFD012804463FD13246DB
:1045140049212C4803F0B3FD03238DF809408DF89D
:1045240008308DF80A308DF80B308DF80C500022CD
:104534009DF800509DF808609DF803709DF80B806D
:104544009DF80290204C2946207804F075FC18B39D
:104554003146607804F070FCF0B1A378042B01D0EC
:10456400BB4219D1E378042B01D0434514D12379FC
:10457400042B0FD16379022B19D1144A1448492111
:1045840003F07DFD6079831E022BB6D9B4E70028C1
:10459400CDD0B1E74B45EDD00132032A04F1060436
:1045A400D1D10C48492103F06AFD0120A5E7032B72
:1045B40005D0094A0949042B18BF0A46DEE7084A10
:1045C400DCE700BF3BA90000AEA900001FA9000062
:1045D40086A9000099A9000018A9000029A90000D3
:1045E40024A9000008B54FF47F03D3F83021D3F891
:1045F4003431BFF34F8F092A01BF4FF050230022FB
:10460400C3F81421C3F8182104F0AFFC28B1012227
:10461400514BC3F8382AC3F878254FF47F03D3F8F5
:104624003021D3F83431BFF34F8F092A05D1012B40
:104634001EBF0122484BC3F8782504F096FC18B13C
:104644000E22464BC3F8E42E4FF47F03D3F83021F7
:10465400D3F83431BFF34F8F092A06D100223E4BE1
:10466400C3F80C270122C3F810270022D30003F556
:104674007F03D3F80013BFF34F8F013108D0D3F871
:1046840000130132D3F80433B2F5807F0B60EDD10F
:10469400334BDA69BFF34F8FD10743D5314BD3F88E
:1046A4000024012AFBD1C3F80425D3F80024012AED
:1046B400FBD12B4BDA69BFF34F8FD2070AD5DA69E6
:1046C40022F00102DA61BFF34F8F264AD2F8003498
:1046D400012BFBD1224A136ABFF34F8F01330CD154
:1046E400136A23F0FF0343F020031362BFF34F8FD9
:1046F4001C4AD2F80034012BFBD10022194BC3F819
:104704000425D3F80024012AFBD1BFF34F8F1649A7
:10471400164BCA6802F4E0621343CB60BFF34F8FB9
:1047240000BFFDE71B6ABFF34F8F0133B6D00E4BBA
:10473400D3F88C2042F44062C3F88C20D3F888204C
:1047440042F47002C3F88820BFF34F8FBFF36F8F1A
:10475400074B084A1A6008BD0040005000A00350EF
:104764000080FF000090035000ED00E00400FA0513
:104774004CC500200090D00370B501250268B2FA40
:1047840082F3C3F11F035E1CDCB210D005FA03F3FD
:1047940022EA0303D0E8EF6F964204D1C0E8EC3F6D
:1047A400BCF1000FF6D1E9D102480C7070BD02488B
:1047B400FCE700BF0000AD0B0200AD0B036810B5B1
:1047C400CB40DB0711D4012303FA01F1036841EA6A
:1047D4000302D0E8EF4F9C4204D1C0E8EC2FBCF1B7
:1047E400000FF6D1F2D1024810BD0248FCE700BF29
:1047F4000000AD0B0400AD0B044B1A7922B9012261
:1048040018601A710248704702487047C0E60020D9
:104814000000AD0B0C00AD0B4FF05023D3F800217A
:1048240010B552B10020C3F80001D3F800210122D1
:10483400C3F80823114B1B6898474FF05023D3F853
:1048440004218AB10022C3F80421D3F80421D3F847
:104854001824D3F8181402F00302012A4FF00201BD
:1048640003D1C3F818159A6010BDC3F80813034B9D
:104874000120BDE810401B68184700BFC0E60020B7
:1048840001460148FFF778BF50C50020064A00F0F2
:104894001F0002EB8000D0F8003223F4403343EAD7
:1048A4000141C0F80012704700258450034B0830C2
:1048B40033F81000C0F34010704700BF54C5002007
:1048C40070B50D4C00F1080334F813300546DA05D1
:1048D4000E4607D5C3F3432304EBC302526854F8CE
:1048E40033309847A3682BB131462846E268BDE8C7
:1048F4007040184770BD00BF54C50020134A0830EB
:1049040032F8103010B4D9051CD5C3F3432123F475
:10491400F85322F81030002002F1100434F8023B5E
:1049240013F4807F03D0C3F3432399420AD00130A8
:104934002028F3D1002306485DF8044B42F83130B7
:10494400FFF73CBF5DF8044B704700BF54C500201F
:10495400A8C5002038B50246FFF7A8FF0B4C02F1AA
:10496400080560B1002134F815305B0B9B0003F19E
:10497400A04303F55043C3F81015C3F810151046AF
:10498400FFF7BCFF002324F8153038BD54C50020C0
:104994002DE9F34104461D4609B34D4F00F10808C3
:1049A40037F81860B30706D5FFF780FF18B14948F8
:1049B40002B0BDE8F081484B04F01F0003EB800017
:1049C400D0F80032097823F00F0326F0020643EAF8
:1049D400810346F00106C0F8003227F8186092B14E
:1049E4003B4B04F1080633F8161010788F07526811
:1049F4000CD5002ADBD133F8162022F01C0242EA3F
:104A0400800023F81600CDBB3448D1E721F0200103
:104A1400C904C90C23F81610002AECD00328C6D800
:104A240092F800C06246920002F1A04202F55042A0
:104A340020B9C2F81005C2F81005DCE7D2F81075E9
:104A440041EA4C3127F00307C2F81075D2F810750B
:104A540041F0200127F4473727F44077C2F8107556
:104A6400D2F810E5270207F4F8574EEA004E47EA59
:104A74000E07C2F8107523F81610BCE72046D5E9D6
:104A84000067FFF73BFF002EBED0114D2B689E42FE
:104A940004D16B689F4201D1002209E010480DF156
:104AA4000701FFF769FE0D4B984281D19DF807205D
:104AB40005EBC20308345F6035F8143045F8326002
:104AC40043EA422343F4807325F814309CE700BF83
:104AD40054C500200400AD0B002584500000AD0B2C
:104AE400A8C50020F8B5044669B3374E00F108079D
:104AF40036F81750AB0704D4FFF7D8FE08B1334893
:104B0400F8BD15F01C0F4B7801D0012BF7D03048BD
:104B140004F01F0C00EB8C0CDCF8000291F800E0B0
:104B24005B0020F4E160897843EA0E2320F007005B
:104B3400034343EA810343F0010345F00305CCF842
:104B4400003226F817500AB92248D9E71E4E04F15C
:104B5400080736F817008307D1D592F800C0002360
:104B6400614620F02000890001F1A041C00401F554
:104B74005041C00CC1F8103526F81700C1F81035A3
:104B84005578002DE0D0D1F81035927823F498139D
:104B940023F4F853C1F81035D1F810E5230203F4D7
:104BA400F8532D0443EA0E0305F4403512052B4354
:104BB40002F4801240EA4C30134340F02000C1F864
:104BC400103526F81700BFE754C500200400AD0BCC
:104BD400002584500000AD0B014BC3E9020170476E
:104BE40054C5002008B50246FFF760FE38B1054BF6
:104BF400083233F8123004485B0B0B7008BD0348CD
:104C0400FCE700BF54C500200000AD0B0400AD0B51
:104C140038B50F4C94F85850BDB94022294604F1D8
:104C2400100003F0A0FD0D20FDF7C2FF094B0A4858
:104C3400C3F87C51D3F87C214FF00042C3F804231D
:104C4400012384F85830636538BD0448FCE700BF8D
:104C540054C5002000D000500000AD0B0500AD0B82
:104C6400034B93F85800003818BF0120704700BF69
:104C740054C5002001460148FFF7A0BDA4C500208B
:104C840001460148FFF778BDA4C50020024610B5CF
:104C9400FFF70CFE1C4B02F1080433F81430E0B1AA
:104CA40013F0020419D15B0B9A0002F1A04000F545
:104CB400514002F1A042046002F550420068D2F86B
:104CC400100540F00100C2F8100529B1012202FAD2
:104CD40003F30E4AC2F8043310BDC3F38203042B5A
:104CE4000ED0052B0ED00A4B196902F01F03D940D0
:104CF40001F0010102311046BDE81040FFF7C6BDC6
:104D04000321F8E70221F6E754C5002000D0005043
:104D14000025845008B50246FFF7C8FDC0B10F4B0B
:104D240002F1080133F81130990711D401225B0B09
:104D34009A400B499B0003F1A043C1F8082303F5F3
:104D44005043D3F8102522F00302C3F8102508BD00
:104D54000021BDE808401046FFF798BD54C5002067
:104D640000D000500C4B00F1080233F8123010B59B
:104D7400DB0704460DD5FFF7CDFF2046FFF7EAFD1C
:104D84000222064B04F01F048034054843F8242013
:104D940010BD0448FCE700BF54C500200025845022
:104DA4000000AD0B0400AD0B2DE9F04F00250122EE
:104DB4002C464D4B4D484E4985B01E6836B1D0F84F
:104DC400046316421EBF1C601E68154304338B42E5
:104DD4004FEA4202F1D1454FD7F87C3193B1454EA9
:104DE400336A039333624FF001090DF10C08039801
:104DF40050B9C7F87C01D7F87C31336A0393336226
:104E0400002BF0D1012469E090FAA0FABAFA8AFAE8
:104E1400394A0AF1080332F813104FEADA0C0AF09F
:104E2400070309FA03F418F80C30C1F3820223EAE9
:104E3400040308F80C3006EB8A03D3F80042C806D2
:104E44009346C4F3014418D5114650460193FFF725
:104E540037FD019BE4B2D3F80032C3F301439C4213
:104E640007D100215046FFF711FD21465046FFF7B8
:104E74000DFD09FA0AF03062B9E7022C0CBF0321D8
:104E8400022150460192FFF701FD019A032A04D042
:104E9400022C07D1BBF1010FEBD159465046FFF765
:104EA4000FFDE6E7032CE4D1BBF1020FF4E795FA1A
:104EB400A5F3B3FA83F304FA03F29B0003F1A043CE
:104EC40003F55043D3F81005D3F81015C0F30420AC
:104ED400C1F3014125EA0205FFF7F2FC002DE6D1FA
:104EE40005B0BDE8F08F00BF00D1005000D00050E5
:104EF40020D100500025845054C500200022034BCB
:104F0400C3F88425C3F80425704700BF00900350FC
:104F1400044AD2F80834DB07FBD50160BFF35F8F86
:104F2400704700BF0090035008B5C0F30B0383B96A
:104F34000222094BC3F88425C3F804254FF0FF323D
:104F44000260D3F80024D207FBD5FFF7D7FF03484C
:104F540008BD0348FCE700BF009003500000AD0B00
:104F64000A00AD0B012208B5054BC3F88425C3F82C
:104F74000425FFF7CDFFBDE80840FFF7BFBF00BF22
:104F8400009003500E4B70B553F82040013053F895
:104F94002060A64200D870BDD4E900352846984761
:104FA40065B1EB6830B10028B8BF4042FF28A8BF04
:104FB400FF2018705A7842F001025A700834E8E76A
:104FC400B8990000F7B505460E464FF02003EFF3FD
:104FD400118783F31288BFF36F8F00F0CBFD00229B
:104FE400042D98BF184B044694BF53F82530174B33
:104FF400009245212A46164803F041F83EB1F36970
:10500400C3F308031BB14521124803F038F82CB14F
:10501400204604F0BCF808B1037803B90E480346EF
:10502400224645210D4803F02AF831462846FFF769
:10503400DBF987F31188BFF36F8F204603B0BDE817
:10504400F040FEF75FB900BFD0990000C0A900008E
:10505400D6A9000003AA0000CEA9000029AA0000D6
:10506400012208B5094B02201A70FFF78BFF00F0EC
:1050740039FF0320FFF786FF00F032F9FBF7ECF964
:10508400034A137B23F00103137308BD84EE00204D
:1050940060C7002008B50348034A0021121A04F02F
:1050A40028F808BD80C6002088EE0020C02370B513
:1050B400134E012203FB0066002386B0CDE90423CE
:1050C4000F220193CDE902321C234FF4A0720D4D3F
:1050D4000D4903FB0055044602FB00110B4B3046FF
:1050E400009500F0CDF8737B09482C75013423F04A
:1050F400040300EBC4247373EE606C6006B070BDEF
:10510400A0C60020C8E60020881601209791000060
:10511400C817012000B52B4BB9B003F5006282F328
:10512400088883F30A880024E023274D274E85F856
:105134002230EC772C766C76AC7685F820406B6A5E
:1051440043F4E0236B6285F82340FEF741F8FDF752
:10515400ABFC4FF0FF33AB62EB6240F20113ADF8EE
:105164002C3008ABB360CDE92144249403F0B6FF9E
:105174002046FFF707FF0120154DFFF703FF00F05E
:105184004BFC144BF56105930123134E13494FF463
:105194002052CDE9034328463346CDE90144009427
:1051A40000F06EF86A7B079022F0040228466A73C6
:1051B40004F044F82046FFF779FF32462846079961
:1051C400FDF7F0FDC817012000ED00E0C8E600205F
:1051D40060C7002090AA00006550000088EE0020FF
:1051E40070B50E4B0E4CA34201D3002070BDD3E921
:1051F400030141EA000212F003020BD19D685A61D7
:10520400AA4201D11C33EEE75E6901320E60596196
:105214000144F5E76FF01500E8E700BF2CC6002055
:105224002CC6002037B50C464FF02005EFF3118152
:1052340085F31288BFF36F8F45695DB125602B68D4
:105244004361836901338361002081F31188BFF3D3
:105254006F8F11E052EA030C03D16FF00B0025604D
:10526400F3E7CDE900230246083000F02BFB18B920
:10527400024B9B685B69236003B030BDC8E6002025
:105284002DE9FF410E9E00F1580506730426C0E97E
:10529400165500250446073222F00702C0E9191208
:1052A400467301EB02080D9E0C9AC0E90655856011
:1052B4008673C573C56602920B9A01920A9A00928C
:1052C4004246FDF74FFD054B65659B6803B11B6FB7
:1052D4004046236704B0BDE8F08100BFC8E6002063
:1052E4002DE9F043294C2A4D87B02646AE4204F1FD
:1052F40030040FD300F0A4F94FF4004640F2E7372E
:10530400224CDFF89090AC4220D307B0BDE8F043C4
:1053140000F066BB54F8043C54E90C01059354F8BE
:10532400103C049354F8143C039354F8183C02932F
:1053340054F81C3C019354F8203C009354E90A238C
:10534400FFF79EFF54F8303C5E65CEE7636A5A1C53
:105354000DD00021384623EAE373C3FB060151EA6A
:10536400C333D4F8008004D1404600F04FFA3034FF
:10537400C9E74FF47A720023FAF7E2FE02460B46BD
:1053840008F11800494600F0BFFCF0E72CC60020E5
:105394002CC60020619200002DE9F3410446174613
:1053A4001E464FF02003EFF3118883F31288BFF3F6
:1053B4006F8FC368324A6BB180689168884219D094
:1053C40057EA060318D188F31188BFF36F8F6FF083
:1053D4000F000CE0916891F90E100133E3609368BB
:1053E4002161A36088F31188BFF36F8F002002B09E
:1053F400BDE8F0812169F0E791F90E1090F90E30C3
:105404006FF07E029942A8BF19469142B8BF114677
:105414008B422EDD03F0C9FE054622464146CDE906
:105424000076184800F04EFA0028E0D04FF0200330
:10543400EFF3118683F31288BFF36F8F236821691A
:105444009C420AD04BB193F90E309942A8BF194639
:105454006FF07E039942B8BF1946A06803F0A5FE19
:1054640000B945B13146074800F0D8F86FF00A009A
:10547400BDE70025D1E786F31188BFF36F8FF5E709
:10548400C8E6002085EE0020836870B504466BB33F
:10549400194A926893422CD1C368012B03D9013B6A
:1054A400C360002070BD4FF02003EFF3118583F338
:1054B4001288BFF36F8F0169806803F076FE20467F
:1054C40003F018FF0026A06050B190F90E2022616D
:1054D400866703F0B3FE2946084800F09FF8E0E72A
:1054E400E06085F31188BFF36F8FDAE76FF0150082
:1054F400D8E74FF0FF30D5E7C8E6002085EE00205E
:1055040038B504464FF02003EFF3118583F3128876
:10551400BFF36F8F03F0EEFE48B10022826703F001
:105524008DFE2946BDE83840044800F077B8D4E938
:1055340002329A4218BF0133A360F2E785EE0020DD
:1055440013B54FF02004EFF3118184F31288BFF3F5
:105554006F8F846844B1013C846081F31188BFF388
:105564006F8F002002B010BD52EA030406D181F30C
:105574001188BFF36F8F6FF00F00F3E7CDE90023BD
:105584000246024800F09EF9ECE700BF85EE0020D9
:1055940038B5074D2C6854B1FEF746FE054B204440
:1055A400186100212868BDE8384003F0D1BE38BD39
:1055B400FCE60020C8E60020F8B504460D464FF08E
:1055C4002003EFF3118783F31288BFF36F8F002159
:1055D4004FF4004C40F2E7300D4E002331614FF49C
:1055E4007A72E4FB0C01FAF7ABFD002C094B0ADCE0
:1055F4001860094BB0681D60FFF7CAFF87F3118874
:10560400BFF36F8FF8BD0228B8BF0220F0E700BFD8
:10561400C8E60020FCE60020F8E6002049B9EFF3D4
:10562400058030B9054BDA699B689A4201D0FDF7D1
:1056340025BB81F31188BFF36F8F7047C8E6002044
:105644004FF02003EFF3118183F31288BFF36F8FC0
:10565400044B9A68D37B013BD37381F31188BFF366
:105664006F8F7047C8E6002038B502460C4803F037
:10567400DFFD0C4D044600B9EC68AB684AB95A7BAF
:10568400D20606D1A26922B9DA897F2A01D9EB614F
:1056940038BD9C4202D02046FFF77AFFEC61F7E761
:1056A400E8E60020C8E6002070B590F90D20014618
:1056B400002A437B04DA03F07F03437303F090FD75
:1056C4004B7B154A63F07F034B7302F12005D2E94B
:1056D4000834AB421BD0D3B191F90E6093F90E009C
:1056E40086420FD0801B00280CDD5868C1E90030C9
:1056F400016059609068BDE87040431A58425841AF
:10570400FFF7B2BFA34202D01B68002BE6D1C1E968
:10571400005421605162EDE7C8E6002038B54FF02F
:105724002003EFF3118583F31288BFF36F8F174BB8
:10573400174A9C6811688C4207D12046FFF728FF5E
:1057440085F31188BFF36F8F38BD00211160114AB2
:105754001268C2B1E2897F2A15D8627BD20612D1BF
:105764000D4A94F90E10126891420CDB0B4A9442D4
:1057740009D01A69824203DC2046FFF795FFDCE773
:10578400121A1A61DCE70022FBE700BFC8E600201A
:10579400F4E60020FCE60020F8E60020A0C6002085
:1057A40070B490F90D20437B002A2ADBDA0628D155
:1057B400826932BB144A63F07F03437302F120050C
:1057C400D2E90834AB4217D0B3B190F90E6093F923
:1057D4000E108E420BD0891B002908DD5A68C0E9DF
:1057E400003210605860002070BCFFF73DBFA34238
:1057F40002D01B68002BEAD1C0E90054206050623B
:10580400F1E770BC704700BFC8E6002010B54FF048
:105814002002EFF3118482F31288BFF36F8F427B6F
:10582400510704D484F31188BFF36F8F10BD22F0A5
:1058340004024273FFF7B4FF2146BDE8104001485B
:10584400FFF7ECBE85EE002008B590F90D20014667
:10585400002A437B04DA03F07F03437303F0C0FCA4
:10586400044B9868431A58425841BDE80840FFF772
:10587400FBBE00BFC8E600202DE9F04106461546F0
:105884001C464FF02003EFF3118783F31288BFF314
:105894006F8F03F005FD87F31188BFF36F8FB4F1A9
:1058A400FF3F08BFB5F1FF3F08D02A46234606F163
:1058B40018000349BDE8F04100F026BABDE8F081C4
:1058C4006192000010B50C46064B11469868064BD1
:1058D4001860DDE90223FFF7CFFF2046BDE8104042
:1058E400FDF7CCB9C8E60020F4E60020F8B504467C
:1058F4004FF02003EFF3118683F31288BFF36F8F09
:10590400437B49B2DA0633D182698ABB03F07F0351
:10591400437303F065FC437B174A63F07F034373CF
:105924008173104650F8203F83421BD0D3B1576A8D
:1059340093F90E50A94210D06D1A002D0DDD5A684E
:10594400C4E9003214605C600120FFF78DFE012081
:1059540086F31188BFF36F8FF8BDBB4202D01B687A
:10596400002BE5D1536AC4E900031C605462EBE7E1
:105974000020A173ECE700BFC8E6002070B5044620
:10598400183003F0CFFC4FF02003EFF3118683F3BC
:105994001288BFF36F8F94F90D20637B002A05DA18
:1059A40003F07F032046637303F01AFC0B4D637B03
:1059B400A86843F010036373031B58425841FFF770
:1059C40053FE86F31188BFF36F8FAB68A34203D1F4
:1059D400BDE8704003F022BC70BD00BFC8E60020E3
:1059E40010B54FF02003EFF3118483F31288BFF353
:1059F4006F8F084B00209A68D37B0133D373FFF772
:105A040033FE84F31188BFF36F8FBDE8104003F0B9
:105A140005BC00BFC8E600200021044B084603F182
:105A24002002C3E90822FFF7C7BD00BFC8E6002073
:105A3400F8B54FF02003EFF3118583F31288BFF319
:105A44006F8F1A498868437B03F07F03437303F025
:105A5400C7FB08468B685A7B62F07F025A7350F882
:105A6400202F82421CD0DAB14F6A93F90E6092F96A
:105A74000E40A6420FD0A41B002C0CDD5168C3E9D4
:105A840000210B6053600120FFF7EEFD2846BDE8BE
:105A9400F840FDF7F3B8BA4202D01268002AE6D102
:105AA4004A6AC3E9000213604B62ECE7C8E60020CF
:105AB40050EA01032DE9F04105460E4603D1FFF7F4
:105AC400B7FF002033E06FF001044FF0FF33241AD6
:105AD40063EB0103012C73F1000302DA03F053FCBE
